:03000000020A4DA4
:0C0A4D00787FE4F6D8FD758121020A9440
:0C000300000000000000000000000000F1
:080996004560810102080A64BA
:0B0DAD00EF1FAC0670011E4C70F62218
:100D5800AB07AA06EB1BAE0270011A4E60097FAA08
:080D68007E05120DAD80ED22A5
:1008B200907120E04480F07F057E00120DADE4FFD0
:1008C200FE120D5875A75575AC589071327450F0E0
:1008D2009071307403F0907136742FF07F18EFD35B
:1008E2009432748094805010EF2466FDE434718D4C
:1008F20082F583E4F00F80E6904011E4935407FF01
:1009020090711CE054F84FF0904017E493547FFF2D
:1009120090711DE054804FF0904010E493FF540119
:10092200C43333335480FE907123E0547F4EF0EF92
:10093200C313543F4440FFA3E054804FF090401251
:10094200E493FF540FFE907146E054F04EF0EFC472
:10095200540FFF90714FE054F04FF0904013E49326
:10096200543FFF907140E054C04FF0904014E49324
:10097200907126F0904015E493907128F090401603
:10098200E49390712AF075D95590715EE054FEF0AF
:03099200E4F5D9B0
:01099500223F
:08099E004560860102080A64AD
:100D70001208B2120BB81207C375D9AA120B608001
:010D8000F87A
:0809A60045608B0102080A64A0
:080DB800E5F430E4FB8FF722A3
:0D000F00E5F430E4FB8FF7E5F430E4FB226C
:100D3900E4906098F078F2E254FCF2E24401F29017
:0E0D490071967403F075F60175F59F75F21042
:010D57002279
:100C9900906095EBF0A3EAF0A3E9F0906095E0FB92
:100CA900A3E0FAA3E0F91203866017906095A3E424
:100CB90075F0011203B5A9F0FA120386FF12000FAD
:030CC90080D922AD
:0C0DA100613D25642C00763D25642C008B
:1009AE004560290102080A6460206003000000000F
:1009BE000000000000000000000000000000000029
:1009CE000000000000000000000000004160020076
:1009DE0044602300000000426027000042600000D7
:0109EE000008
:100CCC0078C3E2440CF2907123E054D8F0E0441D58
:100CDC00F09071227407F07599057869E24448F236
:070CEC007F017E00020D589C
:1006C600E4906099F07869E24401F2786BE230E1F7
:1006D6001D7402F2AF93EF75F010A4FFE594C454B5
:1006E6000FFDEF4DFF906000E5F0F0A3EFF0906096
:1006F60000E0FEA3E0FFA3E025E02403F582E43456
:1007060060F583EEF0A3EFF0906002E004F0C3948E
:1007160010748094804002E4F09060231204B800C4
:10072600000000E4906099F0906099E0C394107422
:10073600809480503F906023E0F8A3E0F9A3E0FAAC
:10074600A3E0FB906099E025E02403F582E43460A1
:10075600F583E0FEA3E0FFE4FCFDEB2FFFEA3EFE9F
:10076600ED39FDEC38FC9060231204AC906099E002
:1007760004F080B4906023E0FCA3E0FDA3E0FEA3B8
:10078600E0FF7804120499A3EEF0A3EFF07BFF7A62
:100796000D79A1906000E0FFA3E0906031CFF0A357
:1007A600EFF012008C7BFF7A0D79A7906027E0FFAF
:0D07B600A3E0906031CFF0A3EFF002008CC3
:0809EF004560900102080A6452
:100BB80043A820D2AF75D101906090E0FBE4FAF928
:100BC800F87F807EBBFDFC120407EF24FFFFEE34A4
:100BD800FFFEED34FFFDEC34FFFC78081204997831
:100BE80095EFF2906090E0FBE4FAF9F87F807EBB25
:100BF800FDFC120407EF24FFFF7894EFF27891745C
:070C0800A0F21874E1F222D2
:03001E00020C0FC2
:100C0F00C0E0C0F0C083C082C0D075D000C000C0AB
:100C1F0001C002C003C004C005C006C0077891E23E
:100C2F0030E707E24480F2120AD9D007D006D00588
:100C3F00D004D003D002D001D000D0D0D082D08346
:050C4F00D0F0D0E032FE
:1009F70045607C0102080A6450606C000001000138
:0B0A0700FF05740000050005FF0C5403
:100B6000E490609AF0F090609AE0FFC39402748081
:100B700094805043EF75F008A4246CF582E434604F
:100B8000F583E0602A90609AE075F008A4246CF583
:100B900082E43460F583E4F0EF75F008A42471F585
:100BA00082E43460F583A3E0FAA3E0F91204E9904B
:070BB000609AE004F080AF41
:010BB700221B
:100AD900E4FFEFC3940274809480507AEF75F008B4
:100AE900A4246DF582E43460F583E0FCA3E04C6056
:100AF90061EF75F008A4246DF582E43460F5837420
:100B0900FFF5F012039FEF75F008A4246DF582E458
:100B19003460F583E0FCA3E04C7037EF75F008A46E
:100B2900246FF582E43460F583E0FCA3E0FDEF7502
:100B3900F008A4246DF582E43460F583ECF0A3EDAC
:100B4900F0EF75F008A4246CF582E43460F5837441
:060B590001F00F020ADBAF
:010B5F002273
:100A12004560650102080A64416064004260620048
:100A22000041606B0041605D004260600000416017
:100A320056FF41606A0042605E000042605700005B
:0A0A4200426059000042605B0000B2
:1007C30078E2E254F3F2E24404F290718F740AF097
:1007D3007856E4F278277409F218745FF27833E4F8
:1007E300F218F27819E254FEF218E24401F2781199
:1007F300E24401F27817E24401F27812E24401F292
:100803007814E24401F278C3E254CFF2E24410F2E6
:100813009071847409F07857E4F278297409F21816
:10082300745FF27837E4F218F27819E254FDF218A3
:10083300E24402F27811E24402F27817E24402F24F
:100843007812E24402F27814E24402F278E2E254CB
:10085300CFF2E2F278C3E254F3F2E2F278F2E25436
:10086300F3F278F0E24402F278C3E254F3F2E244A2
:100873000CF278E2E254CFF2E24430F2907123E0DA
:1008830054D8F0E0441DF09071227407F075990577
:100893007869E24448F2759A12E24450F27F017E8D
:0F08A30000120D5878B6741FF208F278B5F222E1
:100D8100AC06EC7833F218EFF27817E24401F22264
:100D9100AC06EC7837F218EFF27817E24402F2224F
:100C5400A2B1E433FB906056E0FF6B6037EFF460C1
:100C640027EB60299060647401F0906062F0A374D3
:100C74002CF0E4FFFE120D81120D9190606B740153
:100C8400F0E490605DF08005E4906064F0AF039060
:040C94006056EBF0CB
:010C98002239
:100CF3007869E24401F2786BE230E1167402F2AFF4
:100D030093EF75F010A4FFAEF0E594C4540FFDEF1C
:020D13004DFF92
:010D150022BB
:100D16007869E24402F2786BE230E2167404F2AFCC
:100D260095EF75F010A4FFAEF0E596C4540FFDEFF5
:020D36004DFF6F
:010D38002298
:10057400D3906063E09400906062E09400400EA326
:10058400E024FFF0906062E034FFF0805990606BEB
:10059400E06053E4F0906064E0640170207FF87ED2
:1005A40007120D81E4FFFE120D91E490605BF0A34D
:1005B400F0A304F0E4906060F0A3F08029906064FC
:1005C400E064027021FFFE120D817FF87E07120D98
:1005D40091E490605BF0A3F0A304F0E4906060F019
:1005E400A3F090606AF0120CF3906057EEF0A3EF62
:1005F400F0120D16A3EEF0A3EFF090605DE070032F
:100604000206B3D390605AE09479906059E094065E
:100614004036906061E004F07006906060E004F0A1
:10062400D3906061E094C8906060E09400401990B9
:1006340060647402F090606214F0A3742CF0E4908F
:10064400605DF090606B04F0D3906058E094799012
:100654006057E094064022906061E004F0700690D8
:100664006060E004F0D3906061E094C8906060E062
:1006740094004005E4906064F0C390605CE094C42E
:1006840090605BE09409500EA3E004F07006906063
:100694005BE004F080199060647402F0906062146E
:1006A400F0A3742CF0E490605DF090606B04F09023
:1006B4006064E0700C90605DF0FFFE120D81120D1D
:0106C40091A4
:0106C5002212
:100A5900020D70E493A3F8E493A34003F68001F236
:100A690008DFF48029E493A3F85407240CC8C3339E
:100A7900C4540F4420C8834004F456800146F6DF6D
:100A8900E4800B0102040810204080900996E47E5E
:100A9900019360BCA3FF543F30E509541FFEE49362
:100AA900A360010ECF54C025E060A840B8E493A329
:100AB900FAE493A3F8E493A3C8C582C8CAC583CA54
:100AC900F0A3C8C582C8CAC583CADFE9DEE780BE0C
:010A4C0000A9
:10038600BB010689828A83E0225002E722BBFE0275
:09039600E32289828A83E49322A8
:10039F00C5F0F8A3E028F0C5F0F8E58215827002E9
:0603AF001583E038F02286
:1003B500A3F8E0C5F025F0F0E582158270021583FB
:0603C500E0C838F0E82258
:1003CB0075F008758200EF2FFFEE33FECD33CDCCE9
:1003DB0033CCC58233C5829BED9AEC99E58298406C
:1003EB000CF582EE9BFEED9AFDEC99FC0FD5F0D649
:1003FB00E4CEFBE4CDFAE4CCF9A88222B800C1B973
:10040B000059BA002DEC8BF084CFCECDFCE5F0CBB0
:10041B00F97818EF2FFFEE33FEED33FDEC33FCEBE9
:10042B0033FB10D703994004EB99FB0FD8E5E4F9A4
:10043B00FA227818EF2FFFEE33FEED33FDEC33FC91
:10044B00C933C910D7059BE99A4007EC9BFCE99A85
:10045B00F90FD8E0E4C9FAE4CCFB2275F010EF2FCA
:10046B00FFEE33FEED33FDCC33CCC833C810D707CA
:10047B009BEC9AE899400AED9BFDEC9AFCE899F805
:0E048B000FD5F0DAE4CDFBE4CCFAE4C8F92298
:10049900E8600FECC313FCED13FDEE13FEEF13FF41
:0304A900D8F12265
:0C04AC00ECF0A3EDF0A3EEF0A3EFF022C3
:1004B800A8828583F0D083D0821204CF1204CF1291
:1004C80004CF1204CFE473E493A3C583C5F0C583B6
:1004D800C8C582C8F0A3C583C5F0C583C8C582C88E
:0104E80022F1
:0604E9008A838982E4739E
:10002100E5082431F582E43460F583E00508229087
:10003100602E300703906031E475F00112052E0245
:1000410003862000E97F2ED2008018EF540F249000
:10005100D43440D4FF30040BEF24BFB41A00500352
:100061002461FFE50960021509050CE50C70020524
:100071000B30070E90602EE475F00112052EEF0291
:10008100051C020DB87403D2078003E4C207F5080A
:1000910090602E120545E4F509F50BF50CE50960B4
:1000A100077F2012006480F5750AFFC201C200C2F9
:1000B10002C203C205C206C208120030FF700D3031
:1000C10007057F00120075AF0CAE0B22B4255FC28D
:1000D100D5C204120030FF24D0B40A00501A75F0C2
:1000E1000A780930D50508B6FF0106C6A426F62010
:1000F100D5047002D20380D924CFB41A00EF500482
:10010100C2E5D204020276D20180C6D20080C0D2FA
:100111000280BCD2D580BAD20580B47F201200649F
:100121002002077401B5090040F1120021FF1200FD
:100131006402009ED208D2068095120021FB1200B3
:1001410021FA120021F94A4B700679477A037BFFA5
:1001510020022EE509602A7E008E8275830012043A
:10016100EF60060EEE650A70F0C2D5EBC0E0EAC0A2
:10017100E0E9C0E0EE1202BDD0E0F9D0E0FAD0E053
:10018100FB120386FF60AAEBC0E0EAC0E0E9C0E031
:10019100120064D0E02401F9D0E03400FAD0E0FB91
:1001A100E50A0460DCD50AD980877BFF7A0279B938
:1001B100D202809C791080027908C206C2088008A8
:1001C100D2D5790A8004790AC2D5E50A047002F50C
:1001D1000AE4FAFDFEFF120021FC7B082001131244
:1001E1000021FD7B1030000A120021FE120021FFC8
:1001F1007B20EC3382D592D55013C3E43000069FA7
:10020100FFE49EFEE42001039DFDE49CFCE4CBF8A9
:10021100C201EC700CCFCECDCCE824F8F870F3809D
:1002210017C3EF33FFEE33FEED33FDEC33FCEB335D
:10023100FB994002FB0FD8E9EB300105F8D0E0C48F
:1002410048B201C0E00AEC4D4E4F78207B0070C2ED
:10025100EAB50A0040BCC0E01202BFD0F0D0E020F5
:100261000104C4C0E0C4B201C0F012004DD0F0D509
:10027100F0EB02009E12054E013B5301B558010CF3
:100281004C01084201B94F01C14401C14901214357
:0802910001C75501AB4601ABAA
:100299004501AB4703675001102D01142E01372B7F
:1002A90001182301352003502A00D0480000012FEE
:1002B9003F3F3F00790AA2D5200314300509B91040
:1002C900020404B9080104A2D52006025001042041
:1002D90002689202B509005034C0E07F203003194A
:1002E9007F30A20272067205500F120316C202C2B3
:1002F90006C205C2087F30800F300503E9C0E0124D
:100309000064300503D0E0F9D0E0B509CC30051719
:100319007F30B9100C1200647F583004077F788051
:1003290003B908031200643002057F2D0200647FBF
:10033900202008F87F2B2006F322920280CF286E16
:10034900756C6C2900D2011200213001F8C20178C4
:100359000930D50108F60200D02D50434958120042
:10036900212403B405004001E4900362931200556F
:0D037900743A120055D2037509040201B553
:1004EF00BB010CE58229F582E5833AF583E02250C2
:1004FF0006E92582F8E622BBFE06E92582F8E2220C
:0D050F00E58229F582E5833AF583E4932225
:10051C00BB010689828A83F0225002F722BBFE01BE
:02052C00F322B8
:10052E00F8E0FBA3A3E0F925F0F0E5821582700256
:07053E001583E0FA38F022FA
:09054500EBF0A3EAF0A3E9F022B7
:10054E00D083D082F8E4937012740193700DA3A33C
:10055E0093F8740193F5828883E473740293686050
:06056E00EFA3A3A380DF50
:00000001FF
