:03000000020ADC15
:0C0ADC00787FE4F6D8FD758121020B2321
:0C000300000000000000000000000000F1
:0B000F00EF1FAC0670011E4C70F622C3
:100F0A00AB07AA06EB1BAE0270011A4E60097FAA54
:080F1A007E0512000F80ED229C
:10097B00907120E04480F07F057E0012000FE4FFB1
:10098B00FE120F0A75A75575AC589071327450F062
:10099B009071307403F0907136742FF07F18EF2440
:1009AB0066FDE434718D82F583E4F00FEFB433EE22
:1009BB00904011E4935407FF90711CE054F84FF0F2
:1009CB00904017E493547FFF90711DE054804FF0DB
:1009DB00904010E493FF5401C43333335480FE90A2
:1009EB007123E0547F4EF0EFC313543F4440FFA3F9
:1009FB00E054804FF0904012E493FF540FFE90713F
:100A0B0046E054F04EF0EFC4540FFF90714FE0549A
:100A1B00F04FF0904013E493543FFF907140E0543B
:100A2B00C04FF0904014E493907126F0904015E481
:0E0A3B0093907128F0904016E49390712AF089
:010A4900228A
:0B0FA2007379732072657365740A0098
:080B680045604D0102080A641A
:100CF00012097B75D95590715EE054FEF075D9BB31
:100D0000120696120DC6120EF1120C45120E367B0B
:100D1000FF7A0F79A21200B07FF87E07120F627F70
:100D2000F87E07120F727FF87E07120F827FF87E1F
:0C0D300007120F9275D9AA120C9C80F8D3
:100B700042603B000042603F000042603D00004296
:100B800060410000C10BC109C10CC10A41604300B2
:040B9000416044007C
:100DC60078C3E2440CF218E24403F278E2E2440CFF
:100DD600F278F2E24403F2907123E054D8F0E04452
:100DE6001DF09071227407F043AA04D2AF786AE22C
:0F0DF600447BF218E24458F27F017E00020F0A9C
:10002100EF14600D14600D14600D2403700BD20BDE
:0A00310022D20922D20C22D20A22A8
:100ED700EF14600D14600D14600D2403700BC20B2A
:0A0EE70022C20922C20C22C20A2214
:100EB300E4FEEF14600E14600F146010240370112D
:100EC300A20B800AA2098006A20C8002A20AE433C4
:030ED300FEAF0669
:010ED60022F9
:100E0500E4FDFCC2AFEF14600F14601114601324ED
:100E150003701790603B800D90603F800890603DA7
:100E25008003906041E0FCA3E0FDD2AFAE04AF05C6
:010E3500229A
:100F2200EF24FE600704700775990522E4F5992203
:100F3200EF24FE6007047007759A1122759A182231
:100A4A00906043E06004E0B4040D7F01120F22902D
:100A5A0060437401F08033906043E0B4010B78691D
:100A6A00E24401F27402F08021906043E0B4020A89
:100A7A007F02120F227403F08010906043E0B403E7
:100A8A00097869E24401F27404F0906044E0600479
:100A9A00E0B4040C7F01120F329060447401F0221A
:100AAA00906044E0B4010A7869E24402F27402F008
:100ABA0022906044E0B402097F02120F327403F0FC
:100ACA0022906044E0B403097869E24402F27404B3
:020ADA00F02208
:0300420002089E13
:10089E00C0E0C0F0C083C082C0D075D000C000C020
:0308AE0005C0077B
:1008B100906028E4F0A3F0786BE230E153AF93EF5E
:1008C10075F010A4FFE594C4540FFDEF4DFF906047
:1008D10028E5F0F0A3EFF0E24402F2906043E0B4C7
:1008E1000213906028E0FFA3E090603BCFF0A3EFFC
:1008F100F0E4FF8018906043E0B40414906028E0B5
:10090100FFA3E090603FCFF0A3EFF07F0112002141
:10091100786BE230E253AF95EF75F010A4FFE596E6
:10092100C4540FFDEF4DFF906028E5F0F0A3EFF008
:10093100E24404F2906044E0B40213906028E0FFC6
:10094100A3E090603DCFF0A3EFF07F0280189060AC
:1009510044E0B40414906028E0FFA3E0906041CF2C
:09096100F0A3EFF07F0312002166
:10096A00D007D005D000D0D0D082D083D0F0D0E04C
:01097A00324A
:080B94004560520102080A64E9
:100C450043A820D2AF75D101906052E0FBE4FAF9D8
:100C5500F87F807EBBFDFC1203FCEF24FFFFEE3422
:100C6500FFFEED34FFFDEC34FFFC780812048E78AE
:100C750095EFF2906052E0FBE4FAF9F87F807EBBD5
:100C8500FDFC1203FCEF24FFFF7894EFF2789174DA
:070C9500A0F21874E1F22245
:03001E00020D3C94
:100D3C00C0E0C0F0C083C082C0D075D000C000C07D
:100D4C0001C002C003C004C005C006C0077891E210
:100D5C0030E707E24480F2120BDAD007D006D00558
:100D6C00D004D003D002D001D000D0D0D082D08318
:050D7C00D0F0D0E032D0
:0B0B9C004860450000000064FF0A4AAA
:100C9C00E4906000F0F0906000E0FFC394015043DA
:100CAC00EF75F008A42445F582E43460F583E06028
:100CBC002A906000E075F008A42445F582E43460C5
:100CCC00F583E4F0EF75F008A4244AF582E434606F
:100CDC00F583A3E0FAA3E0F91204A1906000E0040C
:030CEC00F080B3E2
:010CEF0022E2
:100BDA00E4FFEF75F008A42446F582E43460F58357
:100BEA00E475F0011203AAEF75F008A42448F5820F
:100BFA00E43460F583E0FCA3E0FDEF75F008A4247B
:100C0A0046F582E43460F583E0FAA3E0C39DEA9CEA
:100C1A004023EF75F008A42446F582E43460F58396
:100C2A00E4F0A3F0EF75F008A42445F582E43460FB
:0A0C3A00F5837401F00FEFB4019888
:010C4400228D
:100BA70041603800426036000041603A00416031E0
:100BB70000426034000041602AFF41603900426012
:100BC70032000042602B000042602D000042602F7F
:020BD70000001C
:1007AF0078E2E254F3F2E24404F290718F740AF0AB
:1007BF007856E4F278277409F218745FF27833E40C
:1007CF00F218F27819E254FEF218E24401F27811AD
:1007DF00E24401F27817E24401F27812E24401F2A6
:1007EF007814E24401F278C3E254CFF2E24410F2FB
:1007FF009071847409F07857E4F278297409F2182B
:10080F00745FF27837E4F218F27819E254FDF218B7
:10081F00E24402F27811E24402F27817E24402F263
:10082F007812E24402F27814E24402F278E2E254DF
:10083F00CFF2E2F278C3E254F3F2E2F278F2E2544A
:10084F00F3F278F0E24402F278C3E254F3F2E244B6
:10085F000CF278E2E254CFF2E24430F2907123E0EE
:10086F0054D8F0E0441DF09071227407F07599058B
:10087F007869E24448F2759A12E24450F27F017EA1
:0F088F0000120F0A78B6741FF208F278B5F22241
:100F4200AC06EC7833F218EFF27817E24401F222A1
:100F5200AC06EC7837F218EFF27817E24402F2228C
:100D8100A2B1E433FB90602AE0FF6B6037EFF460BF
:100D910027EB60299060387401F0906036F0A374FD
:100DA1002CF0E4FFFE120F42120F5290603A7401D0
:100DB100F0E4906031F08005E4906038F0AF03908A
:040DC100602AEBF0C9
:010DC500220B
:100E61007869E24401F2786BE220E104E4FEFF22BA
:100E7100786B7402F2AF93EF75F010A4FFAEF0E55A
:080E810094C4540FFDEF4DFF76
:010E89002246
:100E8A007869E24402F2786BE220E204E4FEFF228F
:100E9A00786B7404F2AF95EF75F010A4FFAEF0E52D
:080EAA0096C4540FFDEF4DFF4B
:010EB200221D
:10054500D3906037E09400906036E09400400EA3AD
:10055500E024FFF0906036E034FFF0805890603A78
:10056500E06052E4F0906038E0B401207FF87E0747
:10057500120F42E4FFFE120F52E490602FF0A3F039
:10058500A304F0E4906034F0A3F08029906038E093
:10059500B40222E4FFFE120F427FF87E07120F52CB
:1005A500E490602FF0A3F0A304F0E4906034F0A38E
:1005B500F0906039F0120E6190602BEEF0A3EFF031
:1005C500120E8AA3EEF0A3EFF0906031E070030203
:1005D5000683D390602EE0947990602DE0940640D8
:1005E50036906035E004F07006906034E004F0D396
:1005F500906035E094C8906034E0940040199060B4
:10060500387402F090603614F0A3742CF0E4906016
:1006150031F090603A04F0D390602CE094799060CA
:100625002BE094064022906035E004F0700690605F
:1006350034E004F0D3906035E094C8906034E094E1
:10064500004005E4906038F0C3906030E094C490B9
:10065500602FE09409500EA3E004F0700690602F1F
:10066500E004F080199060387402F090603614F060
:10067500A3742CF0E4906031F090603A04F090603F
:1006850038E0700C906031F0FFFE120F42120F52ED
:010695002242
:1006960078D2E2543FF2E24440F2907189740AF053
:1006A60078C3E254CFF2E24410F29071847409F0F8
:1006B60078E3E2543FF2E24440F29071957408F018
:1006C60078C2E254F3F2E24404F290717F7407F0C8
:1006D6007856E4F278277409F218745FF27833E4F6
:1006E600F218F27819E254FEF218E24401F2781197
:1006F600E24401F27817E24401F27812E24401F290
:100706007814E24401F27857E4F278297409F21871
:10071600745FF27837E4F218F27819E254FDF218B1
:10072600E24402F27811E24402F27817E24402F25D
:100736007812E24402F27814E24402F27858E4F2C3
:10074600782B7409F218745FF2783BE4F218F278A9
:1007560019E254FBF218E24404F27811E24404F27E
:100766007817E24404F27812E24404F27814E24480
:1007760004F27859E4F2782D7409F218745FF2786D
:100786003FE4F218F27819E254F7F218E24408F25C
:100796007811E24408F27817E24408F27812E2444B
:0907A60008F27814E24408F22282
:100F6200AC06EC7833F218EFF27817E24401F22281
:100F7200AC06EC7837F218EFF27817E24402F2226C
:100F8200AC06EC783BF218EFF27817E24404F22256
:100F9200AC06EC783FF218EFF27817E24408F2223E
:100EF10078D3E254CFF278D0E24440F278D3E2548E
:090F01003FF278D0E24480F222B4
:01001A0022C3
:080FAD00E5D430E4FB8FD722EC
:100E360078E3E254CFF2E24410F29071947404F035
:100E460078D3E254FCF2907175740DF075D6017585
:0B0E5600D59F75D21143AA20D2AF2215
:100AE800020CF0E493A3F8E493A34003F68001F228
:100AF80008DFF48029E493A3F85407240CC8C3330F
:100B0800C4540F4420C8834004F456800146F6DFDD
:100B1800E4800B0102040810204080900B68E47EFA
:100B2800019360BCA3FF543F30E509541FFEE493D2
:100B3800A360010ECF54C025E060A840B8E493A399
:100B4800FAE493A3F8E493A3C8C582C8CAC583CAC4
:100B5800F0A3C8C582C8CAC583CADFE9DEE780BE7C
:010BD900001B
:1003AA00C5F0F8A3E028F0C5F0F8E58215827002DE
:0603BA001583E038F0227B
:1003C00075F008758200EF2FFFEE33FECD33CDCCF4
:1003D00033CCC58233C5829BED9AEC99E582984077
:1003E0000CF582EE9BFEED9AFDEC99FC0FD5F0D654
:1003F000E4CEFBE4CDFAE4CCF9A88222B800C1B97E
:100400000059BA002DEC8BF084CFCECDFCE5F0CBBB
:10041000F97818EF2FFFEE33FEED33FDEC33FCEBF4
:1004200033FB10D703994004EB99FB0FD8E5E4F9AF
:10043000FA227818EF2FFFEE33FEED33FDEC33FC9C
:10044000C933C910D7059BE99A4007EC9BFCE99A90
:10045000F90FD8E0E4C9FAE4CCFB2275F010EF2FD5
:10046000FFEE33FEED33FDCC33CCC833C810D707D5
:100470009BEC9AE899400AED9BFDEC9AFCE899F810
:0E0480000FD5F0DAE4CDFBE4CCFAE4C8F922A3
:10048E00E8600FECC313FCED13FDEE13FEEF13FF4C
:03049E00D8F12270
:0604A1008A838982E473E6
:10004500E5082403F582E43460F583E00508229091
:100055006000300703906003E475F0011204FF02AD
:1000650004A72000E97F2ED2008018EF540F2490BA
:10007500D43440D4FF30040BEF24BFB41A0050032E
:100085002461FFE50960021509050CE50C70020500
:100095000B30070E906000E475F0011204FFEF02CB
:1000A50004ED020FAD7403D2078003E4C207F5081F
:1000B500906000120516E4F509F50BF50CE50960ED
:1000C500077F2012008880F5750AFFC201C200C2B1
:1000D50002C203C205C206C208120054FF700D30E9
:1000E50007057F00120099AF0CAE0B22B4255FC245
:1000F500D5C204120054FF24D0B40A00501A75F07A
:100105000A780930D50508B6FF0106C6A426F620EB
:10011500D5047002D20380D924CFB41A00EF50045D
:10012500C2E5D20402029AD20180C6D20080C0D2B2
:100135000280BCD2D580BAD20580B47F2012008857
:100145002002077401B5090040F1120045FF1200B5
:10015500880200C2D208D2068095120045FB120023
:1001650045FA120045F94A4B7006796B7A037BFF15
:1001750020022EE509602A7E008E82758300120416
:10018500C060060EEE650A70F0C2D5EBC0E0EAC0AD
:10019500E0E9C0E0EE1202E1D0E0F9D0E0FAD0E00B
:1001A500FB1204A7FF60AAEBC0E0EAC0E0E9C0E0EB
:1001B500120088D0E02401F9D0E03400FAD0E0FB49
:1001C500E50A0460DCD50AD980877BFF7A0279DDF0
:1001D500D202809C791080027908C206C208800884
:1001E500D2D5790A8004790AC2D5E50A047002F5E8
:1001F5000AE4FAFDFEFF120045FC7B0820011312FC
:100205000045FD7B1030000A120045FE120045FF37
:100215007B20EC3382D592D55013C3E43000069F82
:10022500FFE49EFEE42001039DFDE49CFCE4CBF885
:10023500C201EC700CCFCECDCCE824F8F870F38079
:1002450017C3EF33FFEE33FEED33FDEC33FCEB3339
:10025500FB994002FB0FD8E9EB300105F8D0E0C46B
:1002650048B201C0E00AEC4D4E4F78207B0070C2C9
:10027500EAB50A0040BCC0E01202E3D0F0D0E020AD
:100285000104C4C0E0C4B201C0F0120071D0F0D5C1
:10029500F0EB0200C212051F015F5301D95801306E
:1002A5004C012C4201DD4F01E54401E5490145437F
:0802B50001EB5501CF4601CF1A
:1002BD004501CF47038B5001342D01382E015B2BA7
:1002CD00013C2301592003742A00F4480000015316
:1002DD003F3F3F00790AA2D5200314300509B9101C
:1002ED00020404B9080104A2D5200602500104201D
:1002FD0002689202B509005034C0E07F2030031926
:10030D007F30A20272067205500F12033AC202C26A
:10031D0006C205C2087F30800F300503E9C0E01228
:10032D000088300503D0E0F9D0E0B509CC300517D1
:10033D007F30B9100C1200887F583004077F788009
:10034D0003B908031200883002057F2D0200887F53
:10035D00202008F87F2B2006F322920280CF286EF2
:10036D00756C6C2900D2011200453001F8C201787C
:10037D000930D50108F60200F42D504349581200FA
:10038D00452403B405004001E490038693120079DF
:0D039D00743A120079D2037509040201D9E7
:1004A700BB010689828A83E0225002E722BBFE0253
:0904B700E32289828A83E4932286
:1004C000BB010CE58229F582E5833AF583E02250F1
:1004D00006E92582F8E622BBFE06E92582F8E2223B
:0D04E000E58229F582E5833AF583E4932255
:1004ED00BB010689828A83F0225002F722BBFE01EE
:0204FD00F322E8
:1004FF00F8E0FBA3A3E0F925F0F0E5821582700286
:07050F001583E0FA38F02229
:09051600EBF0A3EAF0A3E9F022E6
:10051F00D083D082F8E4937012740193700DA3A36B
:10052F0093F8740193F5828883E47374029368607F
:06053F00EFA3A3A380DF7F
:00000001FF
