:03000000020C25CA
:0C0C2500787FE4F6D8FD758120020C6C8D
:0C000300000000000000000000000000F1
:0B122B00EF1FAC0670011E4C70F62295
:10117E00AB07AA06EB1BAE0270011A4E60097FAADE
:08118E007E0512122B80ED22F8
:10093C00907120E04480F07F057E0012122BE4FFC2
:10094C00FE12117E75A75575AC589071327450F02B
:10095C009071307403F0907136742FF07F18EF247F
:10096C0066FDE434718D82F583E4F00FEFB433EE61
:10097C00904011E4935407FF90711CE054F84FF031
:10098C00904017E493547FFF90711DE054804FF01A
:10099C00904010E493FF5401C43333335480FE90E1
:1009AC007123E0547F4EF0EFC313543F4440FFA338
:1009BC00E054804FF0904012E493FF540FFE90717E
:1009CC0046E054F04EF0EFC4540FFF90714FE054DA
:1009DC00F04FF0904013E493543FFF907140E0547B
:1009EC00C04FF0904014E493907126F0904015E4C1
:0E09FC0093907128F0904016E49390712AF0C9
:010A0A0022C9
:080659004561170102080A6463
:100F9D0012093C75D95590715EE054FEF075D9BBC0
:100FAD00120FF7120542120EB7121165120021121F
:0D0FBD000D7F75D9AA120DD612076380F5BD
:100661004A6101000000000000000000004160FE3E
:100671000041610C0041610B004260FF00004160DC
:02068100FD007A
:1011960090610BE0600E906100E0240AF09060FF21
:0511A600E03400F0221E
:10076300E49060EBF0120045EF7016C3906100E077
:1007730094D09060FFE09407500302085EE40208FF
:100783005390610B7401F0E49060FFF0A3F012103A
:10079300B79060FDE014601F14603B240260030205
:1007A3000848EF64A56003020848906101EFF090E8
:1007B30060FE740102083B9060FEE0FE04F07401E9
:1007C3002EF582E43461F583EFF090610CF09060D4
:1007D300FD7402F0806F9060FEE0FE04F074012E61
:1007E300F582E43461F583EFF090610CE0FF9060F3
:1007F300FEE0C39F404FE4FF90610CE014FEEFC3A3
:100803009E501574012FF582E43461F583E0FE9068
:1008130060EBE02EF00F80E090610CE02400F582A5
:10082300E43461F583E0FF9060EBE06F6011E490E6
:1008330060FFF0A3F090610BF09060FDF0800690F4
:1008430060FD7403F09060FDE0B4030FE49060FF7B
:0B085300F0A3F090610BF09060FDF04E
:01085E002277
:1011AB000000000000000000000000000000000034
:0411BB000000000030
:080683004160D5004160D60082
:1010DA009060D5E024D7F582E43460F583EFF09090
:0E10EA0060D5E004F0E0C3940A4002E4F02276
:1010F8009060D6E024E1F582E43460F583EFF09067
:0E11080060D6E004F0E0C3940A4002E4F02256
:100A0B0078EE7C607D017BFF7A1179AB7E007F0AEB
:100A1B0012011EE49060F8F0A3F0A3F07B0AFAEA4F
:100A2B00C39B5056EBFF9060D5E02FFFE433CF24F0
:100A3B00FFCF34FFFEEAFDC3EF9DFFEE9400FEEB0C
:100A4B00FD7C001201BEAF0574D72FF582E4346034
:100A5B00F583E0F9C39405501EEAFFEBC39FFFE457
:100A6B009400FEAD01E925E024EEF582E43460F557
:100A7B0083EE8FF01202130A80A5E4FAEA25E02434
:100A8B00EEF582E43460F583E0FEA3E0FF9060F9BD
:100A9B00E0FCA3E0FDD3EF9DEE9C401DEA25E02496
:100AAB00EEF582E43460F583E0FFA3E09060F9CFCC
:100ABB00F0A3EFF09060F8EAF00AEAB405BE90609C
:030ACB00F8E0FF51
:010ACE002205
:100ACF0078EE7C607D017BFF7A1179B57E007F0A1D
:100ADF0012011EE49060F8F0A3F0A3F07B0AFAEA8B
:100AEF00C39B5056EBFF9060D6E02FFFE433CF242B
:100AFF00FFCF34FFFEEAFDC3EF9DFFEE9400FEEB48
:100B0F00FD7C001201BEAF0574E12FF582E4346065
:100B1F00F583E0F9C39405501EEAFFEBC39FFFE492
:100B2F009400FEAD01E925E024EEF582E43460F592
:100B3F0083EE8FF01202130A80A5E4FAEA25E0246F
:100B4F00EEF582E43460F583E0FEA3E0FF9060F9F8
:100B5F00E0FCA3E0FDD3EF9DEE9C401DEA25E024D1
:100B6F00EEF582E43460F583E0FFA3E09060F9CF07
:100B7F00F0A3EFF09060F8EAF00AEAB405BE9060D7
:030B8F00F8E0FF8C
:010B92002240
:10002100E4FF74D72FF582E43460F583E4F074E1E2
:0F0031002FF582E43460F583E4F00FEFB40AE3B7
:01004000229D
:01001C0022C1
:100D1C00120A0B9060EBEFF0120ACF9060ECEFF040
:100D2C00E4A3F09060EBE024AB9060EDF07FA512B3
:100D3C00000F7F0512000F7F0112000F9060EBE097
:100D4C00FF12000F9060EDE0FF12000F9060ECE0DE
:100D5C0024ACA3F07FA512000F7F0512000F7F02B9
:100D6C0012000F9060ECE0FF12000F9060EDE0FFBE
:030D7C0002000F63
:10068B0042610D0000426111000042610F00004207
:10069B0061130000C102C100C103C101416115001A
:0406AB004161160093
:100EB70078D2E24430F278C2E24403F278E2E244C4
:100EC7000CF278F2E24403F2907123E054D8F0E098
:100ED700441DF09071227407F043AA04D2AF786AD8
:100EE700E2447BF218E24458F27F017E0002117E51
:10113100EF14600D14600D14600D2403700BD202C6
:0A11410022D20022D20322D20122A2
:10114B00EF14600D14600D14600D2403700BC202BC
:0A115B0022C20022C20322C20122B8
:10106F00E4FEEF14600E14600F146010240370116F
:10107F00A202800AA2008006A2038002A201E4332A
:03108F00FEAF06AB
:01109200223B
:100F6C00E4FDFCC2AFEF14600F1460111460132485
:100F7C0003701790610D800D906111800890610FC6
:100F8C008003906113E0FCA3E0FDD2AFAE04AF058B
:010F9C002232
:1011BF00EF24FE600704700775990A22E4F599225F
:1011CF00EF24FE6007047007759A1122759A182292
:100B9300906115E06004E0B4040D7F011211BF9071
:100BA30061157401F08033906115E0B4010B78692D
:100BB300E24401F27402F08021906115E0B4020A6C
:100BC3007F021211BF7403F08010906115E0B4032B
:100BD300097869E24401F27404F0906116E060045C
:100BE300E0B4040C7F011211CF9061167401F0225E
:100BF300906116E0B4010A7869E24402F27402F0EB
:100C030022906116E0B402097F021211CF7403F03F
:100C130022906116E0B403097869E24402F2740495
:020C2300F022BD
:0300420002085F52
:10085F00C0E0C0F0C083C082C0D075D000C000C05F
:03086F0005C007BA
:100872009060FBE4F0A3F0786BE230E153AF93EFCA
:1008820075F010A4FFE594C4540FFDEF4DFF906086
:10089200FBE5F0F0A3EFF0E24402F2906115E0B460
:1008A20002139060FBE0FFA3E090610DCFF0A3EF95
:1008B200F0E4FF8018906115E0B404149060FBE04E
:1008C200FFA3E0906111CFF0A3EFF07F011211318D
:1008D200786BE230E253AF95EF75F010A4FFE59626
:1008E200C4540FFDEF4DFF9060FBE5F0F0A3EFF075
:1008F200E24404F2906116E0B402139060FBE0FF60
:10090200A3E090610FCFF0A3EFF07F028018906117
:1009120016E0B404149060FBE0FFA3E0906113CFF3
:09092200F0A3EFF07F0312113184
:10092B00D007D005D000D0D0D082D083D0F0D0E08B
:01093B003289
:0806AF0045611C0102080A6408
:100D7F0043A820D2AF75D10190611CE0FBE4FAF9D2
:100D8F00F87F807EBBFDFC120317EF24FFFFEE34CC
:100D9F00FFFEED34FFFDEC34FFFC78081203A97859
:100DAF0095EFF290611CE0FBE4FAF9F87F807EBBCF
:100DBF00FDFC120317EF24FFFF7894EFF278917484
:070DCF00A0F21874E1F2220A
:03001E00020E2AA5
:100E2A00C0E0C0F0C083C082C0D075D000C000C08E
:100E3A0001C002C003C004C005C006C0077891E221
:100E4A0030E70DE24480F2120CB1120B93121196A4
:100E5A00D007D006D005D004D003D002D001D000EC
:0B0E6A00D0D0D082D083D0F0D0E03296
:1006B700602060B50000000005FF001D000000007D
:1006C70005FF0041000000000AFF001C00000000B9
:0406D70064FF0D1C93
:100DD600E49060EBF0F09060EBE0FFC394045043C6
:100DE600EF75F008A424B5F582E43460F583E0607D
:100DF6002A9060EBE075F008A424B5F582E434602F
:100E0600F583E4F0EF75F008A424BAF582E43460C3
:100E1600F583A3E0FAA3E0F91203EC9060EBE0049B
:030E2600F080B3A6
:010E290022A6
:100CB100E4FFEF75F008A424B6F582E43460F5830F
:100CC100E475F001120213EF75F008A424B8F5825F
:100CD100E43460F583E0FCA3E0FDEF75F008A424A3
:100CE100B6F582E43460F583E0FAA3E0C39DEA9CA3
:100CF1004023EF75F008A424B6F582E43460F5834F
:100D0100E4F0A3F0EF75F008A424B5F582E43460B3
:0A0D1100F5837401F00FEFB40498AD
:010D1B0022B5
:1005420078D2E2543FF2E24440F2907189740AF0A8
:10055200E254F3F2E24404F29071877409F078E312
:10056200E2543FF2E24440F29071957408F078C28E
:10057200E2543FF2E24440F29071817407F07856FF
:10058200E4F278277409F218745FF27833E4F2180F
:10059200F27819E254FEF218E24401F27811E244D0
:1005A20001F27817E24401F27812E24401F278147F
:1005B200E24401F27857E4F278297409F218745F80
:1005C200F27837E4F218F27819E254FDF218E244B4
:1005D20002F27811E24402F27817E24402F278124F
:1005E200E24402F27814E24402F27858E4F2782B00
:1005F2007409F218745FF2783BE4F218F27819E2A7
:1006020054FBF218E24404F27811E24404F278173F
:10061200E24404F27812E24404F27814E24404F26E
:100622007859E4F2782D7409F218745FF2783FE495
:10063200F218F27819E254F7F218E24408F278114B
:10064200E24408F27817E24408F27812E24408F22F
:070652007814E24408F222D3
:1011DF00AC06EC7833F218EFF27817E24401F22202
:1011EF00AC06EC7837F218EFF27817E24402F222ED
:1011FF00AC06EC783BF218EFF27817E24404F222D7
:10120F00AC06EC783FF218EFF27817E24408F222BE
:1011650078D0E24440F278D3E254CFF278C0E2443A
:0911750004F278C2E254CFF22228
:01001D0022C0
:01004100229C
:1006DB0060836000000000000000000000000000CC
:1006EB0000000000000000000000000000000000FF
:1006FB0000000000000000000000000000000000EF
:10070B0000000000000000000000000000000000DE
:10071B0000000000000000000000000000000000CE
:10072B0000000000000000000000000000000000BE
:10073B0000000000000000000000000000000000AE
:10074B00000000000000000000000000000000009E
:07075B000000000000000097
:100FF70078D3E254F3F2E24404F290718B7404F074
:10100700E254FCF2907175740DF075D60175D59F99
:0910170075D21143AA20D2AF22C8
:0D000F00E5D430E4FB8FD7E5D430E4FB22CC
:0B0FCA00906121EBF0A3EAF0A3E9F036
:100FD500E4FEEEC39D501A906121E0FBA3E0FAA365
:100FE500E0F98E8275830012015DFF12000F0E80FD
:010FF500E11A
:010FF60022D8
:06004500906082E0FF2242
:1010B700906082E07002FF22906081E004547FF02C
:1010C700E02400F582E43460F583E0FF906082E07D
:0210D70014F013
:0110D90022F4
:10109300906080E004547FF0E02400F582E4346043
:1010A300F583EFF0906082E004F0E0D39480400396
:0410B3007480F02233
:03004B0002104957
:10104900C0E0C083C082C0D075D000C005C007E52C
:10105900D430E505AFD7121093D007D005D0D0D042
:0610690082D083D0E032CA
:0C121F00E4FFFE1211DFE4FFFE0211EFFD
:071236007FF87E070211DFC3
:07123D007FF87E070211EFAC
:100F3700E4FF12106FEF6012E4FF12114BE4FF128F
:100F47000F6C90608AEEF0A3EFF07F0112106FEF45
:100F570060127F0112114B7F01120F6C90608CEEB3
:050F6700F0A3EFF022F1
:100E7500E4906083F0A3F0A3F090609374FFF0A377
:100E85007412F0A37436F090609674FFF0A3741298
:100E9500F0A3743DF090609974FFF0A37412F0A371
:100EA500741FF090609074FFF0A3740FF0A3743773
:020EB500F02229
:08111600E0FBA3E0FAA3E0F9FD
:10111E00900003740175F02C1202AE90000274015F
:03112E0002019C1F
:0B0EF700906124EBF0A3EAF0A3E9F007
:100F0200120144B401047F0280027F01906124E057
:100F1200FBA3E0FAA3E0F9EF12018A906124121117
:100F220016906124E0FBA3E0FAA3E0F99000161208
:050F320003BC0203EC0A
:10102000906127EBF0A3EAF0A3E9F0ED12018A90BA
:101030006127121116906127E0FBA3E0FAA3E0F903
:091040009000161203BC0203EC3F
:1004190090612AEBF0A3EAF0A3E9F090612AE0FBEE
:10042900A3E0FAA3E0F990000212015D60199000BF
:1004390003120229D39400E5F09400400A900003C6
:1004490074FFF5F012026190000212015D6047909D
:10045900000312022945F0703D90000212019C121E
:10046900014490612AB40115E0FBA3E0FAA3E0F985
:10047900900001740112019C9000108013E0FBA30D
:10048900E0FAA3E0F9900001740212019C900013B4
:100499001203BC1203EC90612AE0FBA3E0FAA3E08B
:1004A900F990000D1203BC1203EC90612AE0FBA342
:1004B900E0FAA3E0F990000112015DFFB401159083
:1004C9000007120229D39479E5F09406900005E417
:1004D90040218017EFB40220900009120229D39419
:1004E90079E5F09406900005E4400875F0011202E0
:1004F900618005F5F01202AE90000112015D600AFB
:1005090090000BE475F001120261D3906089E094C8
:10051900C8906088E09400500E90608FE094C49079
:10052900608EE094094011E4906084F0906099A392
:09053900E0FAA3E0F91203EC2240
:100C3100020F9DE493A3F8E493A34003F68001F22D
:100C410008DFF48029E493A3F85407240CC8C333C4
:100C5100C4540F4420C8834004F456800146F6DF93
:100C6100E4800B0102040810204080900659E47EC4
:100C7100019360BCA3FF543F30E509541FFEE49388
:100C8100A360010ECF54C025E060A840B8E493A34F
:100C9100FAE493A3F8E493A3C8C582C8CAC583CA7A
:100CA100F0A3C8C582C8CAC583CADFE9DEE780BE32
:010762000096
:10004E00E709F608DFFA8046E709F208DFFA803E94
:10005E0088828C83E709F0A3DFFA8032E309F60881
:10006E00DFFA8078E309F208DFFA807088828C83E9
:10007E00E309F0A3DFFA806489828A83E0A3F6089D
:10008E00DFFA805889828A83E0A3F208DFFA804C77
:10009E0080D280FA80C680D4806980F2803380104E
:1000AE0080A680EA809A80A880DA80E280CA8033B7
:1000BE0089828A83ECFAE493A3C8C582C8CCC5832F
:1000CE00CCF0A3C8C582C8CCC583CCDFE9DEE780FF
:1000DE000D89828A83E493A3F608DFF9ECFAA9F07E
:1000EE00EDFB2289828A83ECFAE0A3C8C582C8CCD4
:1000FE00C583CCF0A3C8C582C8CCC583CCDFEADEED
:10010E00E880DB89828A83E493A3F208DFF980CC4E
:10011E0088F0EF60010E4E60C388F0ED2402B40447
:10012E000050B9F582EB2402B4040050AF232345EE
:06013E00822390009E7375
:10014400BB010689828A83E0225002E722BBFE02B9
:09015400E32289828A83E49322EC
:10015D00BB010CE58229F582E5833AF583E0225057
:10016D0006E92582F8E622BBFE06E92582F8E222A1
:0D017D00E58229F582E5833AF583E49322BB
:10018A00BB010689828A83F0225002F722BBFE0154
:02019A00F3224E
:10019C00F8BB010DE58229F582E5833AF583E8F099
:1001AC00225006E92582C8F622BBFE05E92582C845
:0201BC00F2222D
:1001BE00BC000BBE0029EF8DF084FFADF022E4CC25
:1001CE00F875F008EF2FFFEE33FEEC33FCEE9DECEE
:1001DE00984005FCEE9DFE0FD5F0E9E4CEFD22ED34
:1001EE00F8F5F0EE8420D21CFEADF075F008EF2F7E
:1001FE00FFED33FD4007985006D5F0F222C398FD6F
:05020E000FD5F0EA220B
:10021300C5F0F8A3E028F0C5F0F8E5821582700276
:060223001583E038F02213
:10022900BB0110E58229F582E5833AF583E0F5F013
:10023900A3E0225009E92582F886F008E622BBFEF0
:100249000AE92582F8E2F5F008E222E5832AF58336
:08025900E993F5F0A3E99322FB
:10026100BB010DC58229C582C5833AC5830202132C
:100271005011C58229F808E5F026F618F5F0E58257
:1002810036F622BBFE11C58229F808E225F0F5F009
:10029100F218E23582F222F8E58229F582E5832A15
:0D02A100F58374019325F0F5F0E493382205
:1002AE00F8BB0111E58229F582E5833AF583E8F082
:1002BE00E5F0A3F0225009E92582C8F608A6F0223F
:0D02CE00BBFE09E92582C8F2E5F008F22226
:1002DB0075F008758200EF2FFFEE33FECD33CDCCDA
:1002EB0033CCC58233C5829BED9AEC99E58298405D
:1002FB000CF582EE9BFEED9AFDEC99FC0FD5F0D63A
:10030B00E4CEFBE4CDFAE4CCF9A88222B800C1B963
:10031B000059BA002DEC8BF084CFCECDFCE5F0CBA1
:10032B00F97818EF2FFFEE33FEED33FDEC33FCEBDA
:10033B0033FB10D703994004EB99FB0FD8E5E4F995
:10034B00FA227818EF2FFFEE33FEED33FDEC33FC82
:10035B00C933C910D7059BE99A4007EC9BFCE99A76
:10036B00F90FD8E0E4C9FAE4CCFB2275F010EF2FBB
:10037B00FFEE33FEED33FDCC33CCC833C810D707BB
:10038B009BEC9AE899400AED9BFDEC9AFCE899F8F6
:0E039B000FD5F0DAE4CDFBE4CCFAE4C8F92289
:1003A900E8600FECC313FCED13FDEE13FEEF13FF32
:0303B900D8F12256
:1003BC00BB010DE58229F582E5833AF5830203FB47
:1003CC005007E92582F80203F2BBFE07E92582F803
:1003DC00020404E58229F582E5833AF58302040DD3
:0603EC008A838982E4739C
:0903F200E6FB08E6FA08E6F92230
:0903FB00E0FBA3E0FAA3E0F92203
:09040400E2FB08E2FA08E2F92229
:0C040D00E493FB740193FA740293F9224B
:00000001FF
