:0300000002096A88
:0C096A00787FE4F6D8FD7581210209B108
:0C000300000000000000000000000000F1
:0809F6004560530102080A6488
:0B0D9800EF1FAC0670011E4C70F6222D
:100D0800AB07AA06EB1BAE0270011A4E60097FAA58
:080D18007E05120D9880ED220A
:10088E00907120E04480F07F057E00120D98E4FF09
:10089E00FE120D0875A75575AC589071327450F054
:1008AE009071307403F0907136742FF07F18EF242E
:1008BE0066FDE434718D82F583E4F00FEFB433EE10
:1008CE00904011E4935407FF90711CE054F84FF0E0
:1008DE00904017E493547FFF90711DE054804FF0C9
:1008EE00904010E493FF5401C43333335480FE9090
:1008FE007123E0547F4EF0EFC313543F4440FFA3E7
:10090E00E054804FF0904012E493FF540FFE90712C
:10091E0046E054F04EF0EFC4540FFF90714FE05488
:10092E00F04FF0904013E493543FFF907140E05429
:10093E00C04FF0904014E493907126F0904015E46F
:10094E0093907128F0904016E49390712AF075D927
:0B095E005590715EE054FEF0E4F5D906
:01096900226B
:0A0DA30073797320696E69740A0009
:0809FE004560580102080A647B
:100B920012088E12068A120CE978D3E254FCF2E2B1
:100BA2004401F290718AE4F07BFF7A0D79A312007E
:100BB2008C120AE77FF87E07120D587FF87E071223
:100BC2000D687FF87E07120D787FF87E07120D8878
:080BD20075D9AA120B3E80F850
:080A060045605D0102080A646D
:080DAD00E5F430E4FB8FF722AE
:0D000F00E5F430E4FB8FF7E5F430E4FB226C
:100CE900E4906000F078E3E2543FF2E24440F2908D
:0E0CF90071957403F075F60175F59F75F21094
:010D070022C9
:100C6400906071EBF0A3EAF0A3E9F0906071E0FB0F
:100C7400A3E0FAA3E0F91203866017906071A3E47D
:100C840075F0011203B5A9F0FA120386FF12000FE2
:030C940080D922E2
:080A0E004560620102080A6460
:100D2000907123E054D8F0E0441DF09071227407D4
:080D3000F07F017E00020D08B6
:01001C0022C1
:080A16004560670102080A6453
:100AE70043A820D2AF75D101906067E0FBE4FAF923
:100AF700F87F807EBBFDFC120407EF24FFFFEE3476
:100B0700FFFEED34FFFDEC34FFFC78081204997802
:100B170095EFF2906067E0FBE4FAF9F87F807EBB1F
:100B2700FDFC120407EF24FFFF7894EFF27891742D
:070B3700A0F21874E1F222A4
:03001E00020BDAF8
:100BDA00C0E0C0F0C083C082C0D075D000C000C0E1
:100BEA0001C002C003C004C005C006C0077891E274
:100BFA0030E707E24480F2120A7CD007D006D0051B
:100C0A00D004D003D002D001D000D0D0D082D0837B
:050C1A00D0F0D0E03233
:100A1E0045604E0102080A6450603E00000100016C
:0B0A2E00FF05370000050005FF0C1F4E
:100B3E00E4906000F0F0906000E0FFC39402504338
:100B4E00EF75F008A4243EF582E43460F583E0608E
:100B5E002A906000E075F008A4243EF582E434602B
:100B6E00F583E4F0EF75F008A42443F582E43460D5
:100B7E00F583A3E0FAA3E0F91204AC906000E00460
:030B8E00F080B341
:010B91002241
:100A7C00E4FFEF75F008A4243FF582E43460F583BD
:100A8C00E475F00112039FEF75F008A42441F58280
:100A9C00E43460F583E0FCA3E0FDEF75F008A424DA
:100AAC003FF582E43460F583E0FAA3E0C39DEA9C51
:100ABC004023EF75F008A4243FF582E43460F583FD
:100ACC00E4F0A3F0EF75F008A4243EF582E4346062
:0A0ADC00F5837401F00FEFB40298E7
:010AE60022ED
:100A39004560370102080A644160360042603400AB
:100A49000041603D0041602F00426032000041607A
:100A590028FF41603C0042603000004260290000EC
:0A0A690042602B000042602D0000E7
:10079F0078E2E254F3F2E24404F290718F740AF0BB
:1007AF007856E4F278277409F218745FF27833E41C
:1007BF00F218F27819E254FEF218E24401F27811BD
:1007CF00E24401F27817E24401F27812E24401F2B6
:1007DF007814E24401F278C3E254CFF2E24410F20B
:1007EF009071847409F07857E4F278297409F2183B
:1007FF00745FF27837E4F218F27819E254FDF218C8
:10080F00E24402F27811E24402F27817E24402F273
:10081F007812E24402F27814E24402F278E2E254EF
:10082F00CFF2E2F278C3E254F3F2E2F278F2E2545A
:10083F00F3F278F0E24402F278C3E254F3F2E244C6
:10084F000CF278E2E254CFF2E24430F2907123E0FE
:10085F0054D8F0E0441DF09071227407F07599059B
:10086F007869E24448F2759A12E24450F27F017EB1
:0F087F0000120D0878B6741FF208F278B5F22255
:100D3800AC06EC7833F218EFF27817E24401F222AD
:100D4800AC06EC7837F218EFF27817E24402F22298
:100C1F00A2B1E433FB906028E0FF6B6037EFF46024
:100C2F0027EB60299060367401F0906034F0A37464
:100C3F002CF0E4FFFE120D38120D4890603D740148
:100C4F00F0E490602FF08005E4906036F0AF0390F1
:040C5F006028EBF02E
:010C6300226E
:100C97007869E24401F2786BE220E104E4FEFF2286
:100CA700786B7402F2AF93EF75F010A4FFAEF0E526
:080CB70094C4540FFDEF4DFF42
:010CBF002212
:100CC0007869E24402F2786BE220E204E4FEFF225B
:100CD000786B7404F2AF95EF75F010A4FFAEF0E5F9
:080CE00096C4540FFDEF4DFF17
:010CE80022E9
:10053700B294D3906035E09400906034E09400402A
:100547000EA3E024FFF0906034E034FFF080589071
:10055700603DE06052E4F0906036E0B401207FF83F
:100567007E07120D38E4FFFE120D48E490602DF06F
:10057700A3F0A304F0E4906032F0A3F08029906028
:1005870036E0B40222E4FFFE120D387FF87E071230
:100597000D48E490602DF0A3F0A304F0E4906032DE
:1005A700F0A3F090603CF0120C97906029EEF0A356
:1005B700EFF0120CC0A3EEF0A3EFF090602FE07005
:1005C70003020677D390602CE0947990602BE09437
:1005D700064036906033E004F07006906032E00425
:1005E700F0D3906033E094C8906032E094004019F3
:1005F7009060367402F090603414F0A3742CF0E429
:1006070090602FF090603D04F0D390602AE09479D9
:10061700906029E094064022906033E004F0700671
:10062700906032E004F0D3906033E094C890603279
:10063700E094004005E4906036F0C390602EE094AB
:10064700C490602DE09409500EA3E004F07006906A
:10065700602DE004F080199060367402F0906034E9
:1006670014F0A3742CF0E490602FF090603D04F038
:10067700906036E0700C90602FF0FFFE120D38127C
:020687000D481C
:01068900224E
:080A730045606C0102080A64F1
:10068A0078F2E254FCF2E24401F2907196740AF0B4
:10069A0078C2E254CFF2E24410F29071807409F009
:1006AA00E254F3F2E24404F290717F7408F0E254E7
:1006BA00FCF2E24401F290717E7407F07856E4F29B
:1006CA0078277409F218745FF27833E4F218F27832
:1006DA0019E254FEF218E24401F27811E24401F2FE
:1006EA007817E24401F27812E24401F27814E24403
:1006FA0001F27857E4F278297409F218745FF278F3
:10070A0037E4F218F27819E254FDF218E24402F2E0
:10071A007811E24402F27817E24402F27812E244D3
:10072A0002F27814E24402F27858E4F2782B74095F
:10073A00F218745FF2783BE4F218F27819E254FB8B
:10074A00F218E24404F27811E24404F27817E2441F
:10075A0004F27812E24404F27814E24404F278597A
:10076A00E4F2782D7409F218745FF2783FE4F21813
:10077A00F27819E254F7F218E24408F27811E244E6
:10078A0008F27817E24408F27812E24408F2781480
:05079A00E24408F22218
:100D5800AC06EC7833F218EFF27817E24401F2228D
:100D6800AC06EC7837F218EFF27817E24402F22278
:100D7800AC06EC783BF218EFF27817E24404F22262
:100D8800AC06EC783FF218EFF27817E24408F2224A
:10097600020B92E493A3F8E493A34003F68001F2FA
:1009860008DFF48029E493A3F85407240CC8C33382
:10099600C4540F4420C8834004F456800146F6DF51
:1009A600E4800B01020408102040809009F6E47EE2
:1009B600019360BCA3FF543F30E509541FFEE49346
:1009C600A360010ECF54C025E060A840B8E493A30D
:1009D600FAE493A3F8E493A3C8C582C8CAC583CA38
:1009E600F0A3C8C582C8CAC583CADFE9DEE780BEF0
:010A7B00007A
:10038600BB010689828A83E0225002E722BBFE0275
:09039600E32289828A83E49322A8
:10039F00C5F0F8A3E028F0C5F0F8E58215827002E9
:0603AF001583E038F02286
:1003B500A3F8E0C5F025F0F0E582158270021583FB
:0603C500E0C838F0E82258
:1003CB0075F008758200EF2FFFEE33FECD33CDCCE9
:1003DB0033CCC58233C5829BED9AEC99E58298406C
:1003EB000CF582EE9BFEED9AFDEC99FC0FD5F0D649
:1003FB00E4CEFBE4CDFAE4CCF9A88222B800C1B973
:10040B000059BA002DEC8BF084CFCECDFCE5F0CBB0
:10041B00F97818EF2FFFEE33FEED33FDEC33FCEBE9
:10042B0033FB10D703994004EB99FB0FD8E5E4F9A4
:10043B00FA227818EF2FFFEE33FEED33FDEC33FC91
:10044B00C933C910D7059BE99A4007EC9BFCE99A85
:10045B00F90FD8E0E4C9FAE4CCFB2275F010EF2FCA
:10046B00FFEE33FEED33FDCC33CCC833C810D707CA
:10047B009BEC9AE899400AED9BFDEC9AFCE899F805
:0E048B000FD5F0DAE4CDFBE4CCFAE4C8F92298
:10049900E8600FECC313FCED13FDEE13FEEF13FF41
:0304A900D8F12265
:0604AC008A838982E473DB
:10002100E5082403F582E43460F583E005082290B5
:100031006000300703906003E475F0011204F102DF
:1000410003862000E97F2ED2008018EF540F249000
:10005100D43440D4FF30040BEF24BFB41A00500352
:100061002461FFE50960021509050CE50C70020524
:100071000B30070E906000E475F0011204F1EF02FD
:1000810004DF020DAD7403D2078003E4C207F50853
:10009100906000120508E4F509F50BF50CE509601F
:1000A100077F2012006480F5750AFFC201C200C2F9
:1000B10002C203C205C206C208120030FF700D3031
:1000C10007057F00120075AF0CAE0B22B4255FC28D
:1000D100D5C204120030FF24D0B40A00501A75F0C2
:1000E1000A780930D50508B6FF0106C6A426F62010
:1000F100D5047002D20380D924CFB41A00EF500482
:10010100C2E5D204020276D20180C6D20080C0D2FA
:100111000280BCD2D580BAD20580B47F201200649F
:100121002002077401B5090040F1120021FF1200FD
:100131006402009ED208D2068095120021FB1200B3
:1001410021FA120021F94A4B700679477A037BFFA5
:1001510020022EE509602A7E008E8275830012043A
:10016100B260060EEE650A70F0C2D5EBC0E0EAC0DF
:10017100E0E9C0E0EE1202BDD0E0F9D0E0FAD0E053
:10018100FB120386FF60AAEBC0E0EAC0E0E9C0E031
:10019100120064D0E02401F9D0E03400FAD0E0FB91
:1001A100E50A0460DCD50AD980877BFF7A0279B938
:1001B100D202809C791080027908C206C2088008A8
:1001C100D2D5790A8004790AC2D5E50A047002F50C
:1001D1000AE4FAFDFEFF120021FC7B082001131244
:1001E1000021FD7B1030000A120021FE120021FFC8
:1001F1007B20EC3382D592D55013C3E43000069FA7
:10020100FFE49EFEE42001039DFDE49CFCE4CBF8A9
:10021100C201EC700CCFCECDCCE824F8F870F3809D
:1002210017C3EF33FFEE33FEED33FDEC33FCEB335D
:10023100FB994002FB0FD8E9EB300105F8D0E0C48F
:1002410048B201C0E00AEC4D4E4F78207B0070C2ED
:10025100EAB50A0040BCC0E01202BFD0F0D0E020F5
:100261000104C4C0E0C4B201C0F012004DD0F0D509
:10027100F0EB02009E120511013B5301B558010C30
:100281004C01084201B94F01C14401C14901214357
:0802910001C75501AB4601ABAA
:100299004501AB4703675001102D01142E01372B7F
:1002A90001182301352003502A00D0480000012FEE
:1002B9003F3F3F00790AA2D5200314300509B91040
:1002C900020404B9080104A2D52006025001042041
:1002D90002689202B509005034C0E07F203003194A
:1002E9007F30A20272067205500F120316C202C2B3
:1002F90006C205C2087F30800F300503E9C0E0124D
:100309000064300503D0E0F9D0E0B509CC30051719
:100319007F30B9100C1200647F583004077F788051
:1003290003B908031200643002057F2D0200647FBF
:10033900202008F87F2B2006F322920280CF286E16
:10034900756C6C2900D2011200213001F8C20178C4
:100359000930D50108F60200D02D50434958120042
:10036900212403B405004001E4900362931200556F
:0D037900743A120055D2037509040201B553
:1004B200BB010CE58229F582E5833AF583E02250FF
:1004C20006E92582F8E622BBFE06E92582F8E22249
:0D04D200E58229F582E5833AF583E4932263
:1004DF00BB010689828A83F0225002F722BBFE01FC
:0204EF00F322F6
:1004F100F8E0FBA3A3E0F925F0F0E5821582700294
:070501001583E0FA38F02237
:09050800EBF0A3EAF0A3E9F022F4
:10051100D083D082F8E4937012740193700DA3A379
:1005210093F8740193F5828883E47374029368608D
:06053100EFA3A3A380DF8D
:00000001FF
