:03000000020F6983
:0C0F6900787FE4F6D8FD758121020FB0FE
:0C000300000000000000000000000000F1
:0B14B200EF1FAC0670011E4C70F6220C
:10141800AB07AA06EB1BAE0270011A4E60097FAA41
:081428007E051214B280ED22D2
:100D5D00907120E04480F07F057E001214B2E4FF14
:100D6D00FE12141875A75575AC589071327450F069
:100D7D009071307403F0907136742FF07F18EF245A
:100D8D0066FDE434718D82F583E4F00FEFB433EE3C
:100D9D00904011E4935407FF90711CE054F84FF00C
:100DAD00904017E493547FFF90711DE054804FF0F5
:100DBD00904010E493FF5401C43333335480FE90BC
:100DCD007123E0547F4EF0EFC313543F4440FFA313
:100DDD00E054804FF0904012E493FF540FFE907159
:100DED0046E054F04EF0EFC4540FFF90714FE054B5
:100DFD00F04FF0904013E493543FFF907140E05456
:100E0D00C04FF0904014E493907126F0904015E49B
:0E0E1D0093907128F0904016E49390712AF0A3
:010E2B0022A4
:0B14BD007379732072657365740A0078
:080747004561130102080A6478
:10123E00120D5D75D95590715EE054FEF075D9BBF7
:10124E00121329120B671211FF1213FF1210607B7B
:10125E00FF7A1479BD1200B975D9AA12116312035F
:03126E00B380F555
:100E2C003D3D3D3D3D3D3D3D3D3D3D3D3D3D3D3DE6
:100E3C003D3D3D3D3D3D3D3D3D3D3D3D3D3D3D3DD6
:100E4C003D3E0A0075617274207265637620746988
:100E5C006D656F75740A0025303278003D3D3D3D5F
:100E6C003D3D3D3D3D3D3D3D3D3D3D3D3D3D3D3DA6
:100E7C003D3D3D3D3D3D3D3D3D3D3D3D3D5E0A00E5
:100E8C00636865636B2073756D206572726F720A8F
:100E9C0000636865636B2073756D206F6B0A00309F
:100EAC00782530327820000A006D6F746F72203014
:100EBC0020666F72776172640A006D6F746F7220B6
:0B0ECC003020726576657273650A00C5
:10074F004A60FD000000000000000000004160FA58
:10075F000041610800416107004260FB00004160F9
:02076F00F9008F
:10143000906107E0600E9060FCE0240AF09060FB91
:05144000E03400F02281
:1003B300E49060B3F012003BEF706DC39060FCE01B
:1003C30094D09060FBE0940750030205ABE4F0A3E4
:1003D300F0906107F09060F9F07BFF7A0E792C12B0
:1003E30000B97BFF7A0E79501200B9E49060B4F043
:1003F3009060B4E0FFC3940A50257BFF7A0E7963C3
:1004030074FD2FF582E43460F583E0FF9060B8E477
:10041300F0A3EFF01200B99060B4E004F080D17B58
:10042300FF7A0E79680200B99061077401F0E490D5
:1004330060FBF0A3F01213C29060F9E014601F1484
:10044300603C2402600302050AEF64A56003020511
:100453000A9060FDEFF09060FA74010204F6906078
:10046300FAE0FE04F074FD2EF582E43460F583EFC8
:10047300F0906108F09060F97402F002050A906050
:10048300FAE0FE04F074FD2EF582E43460F583EFA8
:10049300F0906108E0FF9060FAE0C39F4069E49048
:1004A30060B4F0906108E014FF9060B4E0FEC39F75
:1004B300501874FD2EF582E43460F583E0FF9060FC
:1004C300B3E02FF0A3E004F080D9906108E024FCAE
:1004D300F582E43460F583E0FF9060B3E06F7BFF67
:1004E30060187A0E798C1200B9E49060FBF0A3F0E7
:1004F300906107F09060F9F0800D7A0E799D1200FB
:10050300B99060F97403F09060F9E064036003024A
:1005130005AB9060B4F0906108E0FF9060B4E0FE3A
:10052300C39F50257BFF7A0E79AB74FD2EF582E4D1
:100533003460F583E0FF9060B8E4F0A3EFF01200BD
:10054300B99060B4E004F080CD7BFF7A0E79B312EA
:1005530000B99060FFE024FE602B04703C906100C2
:10056300E024FE60100470317F011212CF7BFF7A0A
:100573000E79B5800B7F021212CF7BFF7A0E79C6FC
:100583001200B98014906100E024FE600704700932
:100593007F0180027F021212FCE49060FBF0A3F063
:0805A300906107F09060F9F08F
:0105AB00222D
:10077100426109000042610D000042610B0000422C
:10078100610F0000C10BC109C10CC10A4161110017
:0407910041611200B0
:1011FF0078C3E2440CF218E24403F278E2E2440CC2
:10120F00F278F2E24403F2907123E054D8F0E04414
:10121F001DF09071227407F043AA04D2AF786AE2EE
:0F122F00447BF218E24458F27F017E000214184B
:10002100EF14600D14600D14600D2403700BD20BDE
:0A00310022D20922D20C22D20A22A8
:1013E500EF14600D14600D14600D2403700BC20B17
:0A13F50022C20922C20C22C20A2201
:10137A00E4FEEF14600E14600F1460102403701161
:10138A00A20B800AA2098006A20C8002A20AE433F8
:03139A00FEAF069D
:01139D00222D
:10127100E4FDFCC2AFEF14600F146011146013247D
:10128100037017906109800D90610D800890610BCA
:10129100800390610FE0FCA3E0FDD2AFAE04AF0587
:0112A100222A
:10144500EF24FE600704700775990522E4F59922DB
:10145500EF24FE6007047007759A1122759A182209
:100ED700906111E06004E0B4040D7F0112144590A5
:100EE70061117401F08033906111E0B4010B7869EE
:100EF700E24401F27402F08021906111E0B4020A29
:100F07007F021214457403F08010906111E0B4035E
:100F1700097869E24401F27404F0906112E0600418
:100F2700E0B4040C7F011214559061127401F02291
:100F3700906112E0B4010A7869E24402F27402F0A7
:100F470022906112E0B402097F021214557403F073
:100F570022906112E0B403097869E24402F2740452
:020F6700F02276
:03004200020C802D
:100C8000C0E0C0F0C083C082C0D075D000C000C03A
:030C900005C00795
:100C93009060DDE4F0A3F0786BE230E153AF93EFC3
:100CA30075F010A4FFE594C4540FFDEF4DFF906061
:100CB300DDE5F0F0A3EFF0E24402F2906111E0B45D
:100CC30002139060DDE0FFA3E0906109CFF0A3EF92
:100CD300F0E4FF8018906111E0B404149060DDE04B
:100CE300FFA3E090610DCFF0A3EFF07F011200218D
:100CF300786BE230E253AF95EF75F010A4FFE59601
:100D0300C4540FFDEF4DFF9060DDE5F0F0A3EFF06D
:100D1300E24404F2906112E0B402139060DDE0FF5C
:100D2300A3E090610BCFF0A3EFF07F0280189061F6
:100D330012E0B404149060DDE0FFA3E090610FCFF4
:090D4300F0A3EFF07F0312002180
:100D4C00D007D005D000D0D0D082D083D0F0D0E066
:010D5C003264
:080795004561180102080A6425
:1010600043A820D2AF75D101906118E0FBE4FAF9F2
:10107000F87F807EBBFDFC12062BEF24FFFFEE34D1
:10108000FFFEED34FFFDEC34FFFC78081206BD785E
:1010900095EFF2906118E0FBE4FAF9F87F807EBBEF
:1010A000FDFC12062BEF24FFFF7894EFF278917489
:0710B000A0F21874E1F22226
:03001E000211B715
:1011B700C0E0C0F0C083C082C0D075D000C000C0FE
:1011C70001C002C003C004C005C006C0077891E291
:1011D70030E70AE24480F2120FF5121430D007D03C
:1011E70006D005D004D003D002D001D000D0D0D093
:0811F70082D083D0F0D0E03279
:10079D00603060830000000001FF08AB0000000026
:1007AD0001FF0A090000000005FF10B7000000005E
:1007BD0005FF110D0000000001FF0ED70000000025
:0407CD0064FF004184
:10116300E49060B3F0F09060B3E0FFC394065043A3
:10117300EF75F008A42483F582E43460F583E0601E
:101183002A9060B3E075F008A42483F582E4346008
:10119300F583E4F0EF75F008A42488F582E4346065
:1011A300F583A3E0FAA3E0F91206D09060B3E0045C
:0311B300F080B316
:0111B6002216
:100FF500E4FFEF75F008A42484F582E43460F583FA
:10100500E475F0011205D9EF75F008A42486F58280
:10101500E43460F583E0FCA3E0FDEF75F008A4245B
:1010250084F582E43460F583E0FAA3E0C39DEA9C8D
:101035004023EF75F008A42484F582E43460F58339
:10104500E4F0A3F0EF75F008A42483F582E434609E
:0A105500F5837401F00FEFB4069864
:01105F00226E
:01004100229C
:100B670078D2E2543FF2E24440F2907189740AF07D
:100B770078C3E254CFF2E24410F29071847409F022
:100B870078E3E2543FF2E24440F29071957408F042
:100B970078C2E254F3F2E24404F290717F7407F0F2
:100BA7007856E4F278277409F218745FF27833E420
:100BB700F218F27819E254FEF218E24401F27811C1
:100BC700E24401F27817E24401F27812E24401F2BA
:100BD7007814E24401F27857E4F278297409F2189C
:100BE700745FF27837E4F218F27819E254FDF218DC
:100BF700E24402F27811E24402F27817E24402F288
:100C07007812E24402F27814E24402F27858E4F2ED
:100C1700782B7409F218745FF2783BE4F218F278D3
:100C270019E254FBF218E24404F27811E24404F2A8
:100C37007817E24404F27812E24404F27814E244AA
:100C470004F27859E4F2782D7409F218745FF27897
:100C57003FE4F218F27819E254F7F218E24408F286
:100C67007811E24408F27817E24408F27812E24475
:090C770008F27814E24408F222AC
:10146500AC06EC7833F218EFF27817E24401F22279
:10147500AC06EC7837F218EFF27817E24402F22264
:10148500AC06EC783BF218EFF27817E24404F2224E
:10149500AC06EC783FF218EFF27817E24408F22236
:0807D100416120FF416121FF9D
:1013FF0078D0E24440F278D3E254CFF278C0E2449E
:09140F0004F278C2E254CFF2228B
:1010B700A296E4339060B3F0906120E0FF9060B3B4
:1010C700E06F6041906120E0F4602D9060B3E060D4
:1010D7002C9060EF7401F09060F1F0A3742CF0E4B1
:1010E700FFFE121465E4FFFE1214759060F7740199
:1010F700F0E49060F5F08005E49060EFF09060B365
:05110700E0906120F002
:01110C0022C0
:10110D00A282E4339060B3F0906121E0FF9060B370
:10111D00E06F6041906121E0F4602D9060B3E0607C
:10112D002C9060F07401F09060F3F0A3742CF0E457
:10113D00FFFE121485E4FFFE1214959060F8740101
:10114D00F0E49060F6F08005E49060F0F09060B30C
:05115D00E0906121F0AB
:01116200226A
:1007D90060836000000000000000000000000000CD
:1007E9000000000000000000000000000000000000
:1007F90000000000000000000000000000000000F0
:1008090000000000000000000000000000000000DF
:1008190000000000000000000000000000000000CF
:1008290000000000000000000000000000000000BF
:1008390000000000000000000000000000000000AF
:10084900000000000000000000000000000000009F
:070859000000000000000098
:0814C800E5D430E4FB8FD722CC
:1013290078E3E254CFF2E24410F29071947404F03D
:1013390078D3E254FCF2907175740DF075D601758D
:0B134900D59F75D21143AA20D2AF221D
:0D14A500E5D430E4FB8FD7E5D430E4FB2222
:0B12A20090611DEBF0A3EAF0A3E9F05F
:1012AD00E4FEEEC39D501A90611DE0FBA3E0FAA38E
:1012BD00E0F98E827583001205ACFF1214A50E8025
:0112CD00E13F
:0112CE0022FD
:06003B00906082E0FF224C
:1013C200906082E07002FF22906081E004547FF01E
:1013D200E02400F582E43460F583E0FF906082E06F
:0213E20014F005
:0113E40022E6
:10139E00906080E004547FF0E02400F582E4346035
:1013AE00F583EFF0906082E004F0E0D39480400388
:0413BE007480F02225
:0E000F0012003BEF60081213C2906122EFF066
:01001D0022C0
:03004B0002135449
:10135400C0E0C083C082C0D075D000C005C007E51E
:10136400D430E505AFD712139ED007D005D0D0D026
:0613740082D083D0E032BC
:100860004160EF004160F0004260F100004260F33F
:1008700000004160F7004160F8004160F500416010
:10088000F6004260DF00004260E100004260E300E9
:10089000004260E500004260E700004260E90000BD
:0A08A0004260EB00004260ED000032
:1012CF00EF64016004EFB402239060EFEFF0E4905D
:1012DF0060F5F09060F704F09060F1F0A3742CF0DB
:0D12EF00E4FFFE121465E4FFFE12147522E8
:1012FC00EF64016004EFB402239060F0EFF0E4902F
:10130C0060F6F09060F804F09060F3F0A3742CF0A9
:0D131C00E4FFFE121485E4FFFE121495227A
:1008AB00D39060F2E094009060F1E09400400EA3CE
:1008BB00E024FFF09060F1E034FFF080429060F7AD
:1008CB00E0603CE4F09060EFE0B4010C7FF87E0751
:1008DB00121465E4FFFE80119060EFE0B40220E497
:1008EB00FFFE1214657FF87E07121475E49060DF2B
:1008FB00F0A3F09060F504F0E49060E1F0A3F0E475
:10090B00FF12137AEF6012E4FF1213E5E4FF1212E9
:10091B00719060E5EEF0A3EFF07F0112137AEF60B8
:10092B00127F011213E57F011212719060E3EEF05A
:10093B00A3EFF09060F5E070030209F3D39060E64B
:10094B00E094799060E5E0940640369060E2E00434
:10095B00F070069060E1E004F0D39060E2E094C8A0
:10096B009060E1E0940040199060EF7402F09060A9
:10097B00F114F0A3742CF0E49060F5F09060F704A0
:10098B00F0D39060E4E094799060E3E09406402229
:10099B009060E2E004F070069060E1E004F0D39028
:1009AB0060E2E094C89060E1E094004005E4906060
:1009BB00EFF0C39060E0E094C49060DFE0940950E6
:1009CB000EA3E004F070219060DFE004F08019903A
:1009DB0060EF7402F09060F114F0A3742CF0E490CB
:1009EB0060F5F09060F704F09060EFE0700F9060AE
:0D09FB00F5F0FFFE121465E4FFFE12147506
:010A080022CB
:100A0900D39060F4E094009060F3E09400400EA36A
:100A1900E024FFF09060F3E034FFF080429060F84A
:100A2900E0603CE4F09060F0E0B4010C7FF87E07F0
:100A3900121485E4FFFE80119060F0E0B40220E416
:100A4900FFFE1214857FF87E07121495E49060EB7F
:100A5900F0A3F09060F604F0E49060EDF0A3F07F6D
:100A69000212137AEF60127F021213E57F0212124B
:100A7900719060E9EEF0A3EFF07F0312137AEF6053
:100A8900127F031213E57F031212719060E7EEF0F3
:100A9900A3EFF09060F6E07003020B51D39060EA87
:100AA900E094799060E9E0940640369060EEE004C5
:100AB900F070069060EDE004F0D39060EEE094C829
:100AC9009060EDE0940040199060F07402F090603D
:100AD900F314F0A3742CF0E49060F6F09060F8043D
:100AE900F0D39060E8E094799060E7E094064022C2
:100AF9009060EEE004F070069060EDE004F0D390B1
:100B090060EEE094C89060EDE094004005E49060E8
:100B1900F0F0C39060ECE094C49060EBE09409506D
:100B29000EA3E004F070219060EBE004F0801990CE
:100B390060F07402F09060F314F0A3742CF0E49068
:100B490060F6F09060F804F09060F0E0700F90604B
:0D0B5900F6F0FFFE121485E4FFFE12149565
:010B6600226C
:100F750002123EE493A3F8E493A34003F68001F242
:100F850008DFF48029E493A3F85407240CC8C3337D
:100F9500C4540F4420C8834004F456800146F6DF4C
:100FA500E4800B0102040810204080900747E47E8E
:100FB500019360BCA3FF543F30E509541FFEE49341
:100FC500A360010ECF54C025E060A840B8E493A308
:100FD500FAE493A3F8E493A3C8C582C8CAC583CA33
:100FE500F0A3C8C582C8CAC583CADFE9DEE780BEEB
:0108AA00004D
:1005AC00BB010CE58229F582E5833AF583E0225004
:1005BC0006E92582F8E622BBFE06E92582F8E2224E
:0D05CC00E58229F582E5833AF583E4932268
:1005D900C5F0F8A3E028F0C5F0F8E58215827002AD
:0605E9001583E038F0224A
:1005EF0075F008758200EF2FFFEE33FECD33CDCCC3
:1005FF0033CCC58233C5829BED9AEC99E582984046
:10060F000CF582EE9BFEED9AFDEC99FC0FD5F0D622
:10061F00E4CEFBE4CDFAE4CCF9A88222B800C1B94C
:10062F000059BA002DEC8BF084CFCECDFCE5F0CB8A
:10063F00F97818EF2FFFEE33FEED33FDEC33FCEBC3
:10064F0033FB10D703994004EB99FB0FD8E5E4F97E
:10065F00FA227818EF2FFFEE33FEED33FDEC33FC6B
:10066F00C933C910D7059BE99A4007EC9BFCE99A5F
:10067F00F90FD8E0E4C9FAE4CCFB2275F010EF2FA4
:10068F00FFEE33FEED33FDCC33CCC833C810D707A4
:10069F009BEC9AE899400AED9BFDEC9AFCE899F8DF
:0E06AF000FD5F0DAE4CDFBE4CCFAE4C8F92272
:1006BD00E8600FECC313FCED13FDEE13FEEF13FF1B
:0306CD00D8F1223F
:0606D0008A838982E473B5
:10004E00E50824B8F582E43460F583E005082290D3
:10005E0060B53007039060B8E475F0011207010235
:10006E0006D62000E97F2ED2008018EF540F249080
:10007E00D43440D4FF30040BEF24BFB41A00500325
:10008E002461FFE50960021509050CE50C700205F7
:10009E000B30070E9060B5E475F001120701EF0208
:1000AE0006EF0214C87403D2078003E4C207F508F2
:1000BE009060B5120718E4F509F50BF50CE509602B
:1000CE00077F2012009180F5750AFFC201C200C29F
:1000DE0002C203C205C206C20812005DFF700D30D7
:1000EE0007057F001200A2AF0CAE0B22B4255FC233
:1000FE00D5C20412005DFF24D0B40A00501A75F068
:10010E000A780930D50508B6FF0106C6A426F620E2
:10011E00D5047002D20380D924CFB41A00EF500454
:10012E00C2E5D2040202A3D20180C6D20080C0D2A0
:10013E000280BCD2D580BAD20580B47F2012009145
:10014E002002077401B5090040F112004EFF1200A3
:10015E00910200CBD208D206809512004EFB1200FF
:10016E004EFA12004EF94A4B700679747A037BFFF1
:10017E0020022EE509602A7E008E8275830012050C
:10018E00AC60060EEE650A70F0C2D5EBC0E0EAC0B8
:10019E00E0E9C0E0EE1202EAD0E0F9D0E0FAD0E0F9
:1001AE00FB1206D6FF60AAEBC0E0EAC0E0E9C0E0B1
:1001BE00120091D0E02401F9D0E03400FAD0E0FB37
:1001CE00E50A0460DCD50AD980877BFF7A0279E6DE
:1001DE00D202809C791080027908C206C20880087B
:1001EE00D2D5790A8004790AC2D5E50A047002F5DF
:1001FE000AE4FAFDFEFF12004EFC7B0820011312EA
:10020E00004EFD7B1030000A12004EFE12004EFF13
:10021E007B20EC3382D592D55013C3E43000069F79
:10022E00FFE49EFEE42001039DFDE49CFCE4CBF87C
:10023E00C201EC700CCFCECDCCE824F8F870F38070
:10024E0017C3EF33FFEE33FEED33FDEC33FCEB3330
:10025E00FB994002FB0FD8E9EB300105F8D0E0C462
:10026E0048B201C0E00AEC4D4E4F78207B0070C2C0
:10027E00EAB50A0040BCC0E01202ECD0F0D0E0209B
:10028E000104C4C0E0C4B201C0F012007AD0F0D5AF
:10029E00F0EB0200CB12072101685301E25801393D
:1002AE004C01354201E64F01EE4401EE49014E4349
:0802BE0001F45501D84601D8F6
:1002C6004501D847039450013D2D01412E01642B71
:1002D600014523016220037D2A00FD480000015CE0
:1002E6003F3F3F00790AA2D5200314300509B91013
:1002F600020404B9080104A2D52006025001042014
:1003060002689202B509005034C0E07F203003191C
:100316007F30A20272067205500F120343C202C258
:1003260006C205C2087F30800F300503E9C0E0121F
:100336000091300503D0E0F9D0E0B509CC300517BF
:100346007F30B9100C1200917F583004077F7880F7
:1003560003B908031200913002057F2D0200917F38
:10036600202008F87F2B2006F322920280CF286EE9
:10037600756C6C2900D20112004E3001F8C201786A
:100386000930D50108F60200FD2D504349581200E8
:100396004E2403B405004001E490038F93120082BB
:0D03A600743A120082D2037509040201E2CC
:1006D600BB010689828A83E0225002E722BBFE0222
:0906E600E32289828A83E4932255
:1006EF00BB010689828A83F0225002F722BBFE01EA
:0206FF00F322E4
:10070100F8E0FBA3A3E0F925F0F0E5821582700281
:070711001583E0FA38F02225
:09071800EBF0A3EAF0A3E9F022E2
:10072100D083D082F8E4937012740193700DA3A367
:1007310093F8740193F5828883E47374029368607B
:06074100EFA3A3A380DF7B
:00000001FF
