:03000000020B43AD
:0C0B4300787FE4F6D8FD758122020B8A51
:0C000300000000000000000000000000F1
:0B0F7A00EF1FAC0670011E4C70F62249
:100F0200AB07AA06EB1BAE0270011A4E60097FAA5C
:080F12007E05120F7A80ED222A
:1009D500907120E04480F07F057E00120F7AE4FFDD
:1009E500FE120F0275A75575AC589071327450F010
:1009F5009071307403F0907136742FF07F18EF24E6
:100A050066FDE434718D82F583E4F00FEFB433EEC7
:100A1500904011E4935407FF90711CE054F84FF097
:100A2500904017E493547FFF90711DE054804FF080
:100A3500904010E493FF5401C43333335480FE9047
:100A45007123E0547F4EF0EFC313543F4440FFA39E
:100A5500E054804FF0904012E493FF540FFE9071E4
:100A650046E054F04EF0EFC4540FFF90714FE05440
:100A7500F04FF0904013E493543FFF907140E054E1
:100A8500C04FF0904014E493907126F0904015E427
:100A950093907128F0904016E49390712AF075D9DF
:0B0AA5005590715EE054FEF0E4F5D9BE
:010AB0002223
:0A0F850073797320696E69740A0025
:080C910045607D0102080A64C0
:100D3B001209D51207D112002178D3E254FCF2E24A
:100D4B004401F290718AE4F07BFF7A0F79851200EF
:100D5B00B0120C3A7FF87E07120F3A7FF87E07121B
:100D6B000F4A7FF87E07120F5A7FF87E07120F6A21
:080D7B0075D9AA120CE780F8FB
:080F8F00E5F430E4FB8FF722CA
:0D000F00E5F430E4FB8FF7E5F430E4FB226C
:10002100E4906000F078E3E2543FF2E24440F29061
:0E00310071957403F075F60175F59F75F21068
:01003F00229E
:100E5500906087EBF0A3EAF0A3E9F0906087E0FBF0
:100E6500A3E0FAA3E0F91203AA6017906087A3E450
:100E750075F0011203D9A9F0FA1203AAFF12000FA7
:030E850080D922EF
:100D83006164633020666F72776172643A202575FF
:100D93000A006164633020726576657273653A2078
:100DA30025750A006164633120666F72776172642E
:100DB3003A2025750A006164633120726576657295
:080DC30073653A2025750A0052
:100EDA00907123E054D8F0E0441DF0907122740719
:100EEA00F043AA04D2AF786AE2447BF218E244588B
:080EFA00F27F017E00020F02ED
:01001C0022C1
:01001D0022C0
:100AB10090607BE06004E0B4040D7F0112001C90A3
:100AC100607B7401F0803390607BE0B4010B786946
:100AD100E24401F27402F0802190607BE0B4020AEA
:100AE1007F0212001C7403F0801090607BE0B4035D
:100AF100097869E24401F27404F090607CE06004DA
:100B0100E0B4040C7F0112001D90607C7401F0229E
:100B110090607CE0B4010A7869E24402F27402F068
:100B21002290607CE0B402097F0212001D7403F080
:100B31002290607CE0B403097869E24402F2740413
:020B4100F022A0
:030042000206AC07
:1006AC00C0E0C0F0C083C082C0D075D000C000C014
:0D06BC0001C002C003C004C005C006C00795
:1006C900906028E4F0A3F0786BE230E16DAF93EF2E
:1006D90075F010A4FFE594C4540FFDEF4DFF906031
:1006E90028E5F0F0A3EFF0E24402F290607BE0B479
:1006F900021A906028E0FFA3E0906073CFF0A3EFA7
:10070900F07BFF7A0D7983906073801F90607BE0A6
:10071900B40427906028E0FFA3E0906077CFF0A3AE
:10072900EFF07BFF7A0D7995906077E0FFA3E09079
:10073900602DCFF0A3EFF01200B0786BE230E26DDC
:10074900AF95EF75F010A4FFE596C4540FFDEF4D7A
:10075900FF906028E5F0F0A3EFF0E24404F2906026
:100769007CE0B4021A906028E0FFA3E0906075CFA6
:10077900F0A3EFF07BFF7A0D79A7906075801F9049
:10078900607CE0B40427906028E0FFA3E0906079E2
:10079900CFF0A3EFF07BFF7A0D79B9906079E0FF94
:0D07A900A3E090602DCFF0A3EFF01200B0A0
:1007B600D007D006D005D004D003D002D001D00097
:0B07C600D0D0D082D083D0F0D0E03241
:080C99004560820102080A64B3
:100C3A0043A820D2AF75D101906082E0FBE4FAF9B3
:100C4A00F87F807EBBFDFC12042BEF24FFFFEE34FD
:100C5A00FFFEED34FFFDEC34FFFC78081204BD788A
:100C6A0095EFF2906082E0FBE4FAF9F87F807EBBB0
:100C7A00FDFC12042BEF24FFFF7894EFF2789174B5
:070C8A00A0F21874E1F22250
:03001E00020DCB05
:100DCB00C0E0C0F0C083C082C0D075D000C000C0EE
:100DDB0001C002C003C004C005C006C0077891E281
:100DEB0030E707E24480F2120BCFD007D006D005D4
:100DFB00D004D003D002D001D000D0D0D082D08389
:050E0B00D0F0D0E03240
:100CA1005060630000010001FF055B0000050005C5
:030CB100FF0E1023
:100CE700E4906000F0F0906000E0FFC3940250438E
:100CF700EF75F008A42463F582E43460F583E060BF
:100D07002A906000E075F008A42463F582E434605B
:100D1700F583E4F0EF75F008A42468F582E4346005
:100D2700F583A3E0FAA3E0F91204D0906000E00491
:030D3700F080B396
:010D3A002296
:100BCF00E4FFEF75F008A42464F582E43460F58344
:100BDF00E475F0011203C3EF75F008A42466F582E3
:100BEF00E43460F583E0FCA3E0FDEF75F008A42486
:100BFF0064F582E43460F583E0FAA3E0C39DEA9CD8
:100C0F004023EF75F008A42464F582E43460F58383
:100C1F00E4F0A3F0EF75F008A42463F582E43460E8
:0A0C2F00F5837401F00FEFB4029892
:010C39002298
:100CB4004160600042605E00004160620041605932
:100CC4000042605C0000416052FF4160610042608C
:100CD4005A000042605300004260550000426057D1
:020CE40000000E
:1008E60078E2E254F3F2E24404F290718F740AF073
:1008F6007856E4F278277409F218745FF27833E4D4
:10090600F218F27819E254FEF218E24401F2781174
:10091600E24401F27817E24401F27812E24401F26D
:100926007814E24401F278C3E254CFF2E24410F2C2
:100936009071847409F07857E4F278297409F218F2
:10094600745FF27837E4F218F27819E254FDF2187F
:10095600E24402F27811E24402F27817E24402F22B
:100966007812E24402F27814E24402F278E2E254A7
:10097600CFF2E2F278C3E254F3F2E2F278F2E25412
:10098600F3F278F0E24402F278C3E254F3F2E2447E
:100996000CF278E2E254CFF2E24430F2907123E0B6
:1009A60054D8F0E0441DF09071227407F075990553
:1009B6007869E24448F2759A12E24450F27F017E69
:0F09C60000120F0278B6741FF208F278B5F22211
:100F1A00AC06EC7833F218EFF27817E24401F222C9
:100F2A00AC06EC7837F218EFF27817E24402F222B4
:100E1000A2B1E433FB906052E0FF6B6037EFF46007
:100E200027EB60299060607401F090605EF0A3741D
:100E30002CF0E4FFFE120F1A120F2A906062740168
:100E4000F0E4906059F08005E4906060F0AF0390AA
:040E50006052EBF011
:010E5400227B
:100E88007869E24401F2786BE220E104E4FEFF2293
:100E9800786B7402F2AF93EF75F010A4FFAEF0E533
:080EA80094C4540FFDEF4DFF4F
:010EB000221F
:100EB1007869E24402F2786BE220E204E4FEFF2268
:100EC100786B7404F2AF95EF75F010A4FFAEF0E506
:080ED10096C4540FFDEF4DFF24
:010ED90022F6
:10055B00D390605FE0940090605EE09400400EA347
:10056B00E024FFF090605EE034FFF0805890606212
:10057B00E06052E4F0906060E0B401207FF87E0709
:10058B00120F1AE4FFFE120F2AE4906057F0A3F04B
:10059B00A304F0E490605CF0A3F08029906060E02D
:1005AB00B40222E4FFFE120F1A7FF87E07120F2A05
:1005BB00E4906057F0A3F0A304F0E490605CF0A328
:1005CB00F0906061F0120E88906053EEF0A3EFF0A4
:1005DB00120EB1A3EEF0A3EFF0906059E07003029E
:1005EB000699D3906056E09479906055E09406405C
:1005FB003690605DE004F0700690605CE004F0D330
:10060B0090605DE094C890605CE09400401990604D
:10061B00607402F090605E14F0A3742CF0E49060B0
:10062B0059F090606204F0D3906054E0947990603C
:10063B0053E09406402290605DE004F070069060F9
:10064B005CE004F0D390605DE094C890605CE09453
:10065B00004005E4906060F0C3906058E094C49053
:10066B006057E09409500EA3E004F07006906057B9
:10067B00E004F080199060607402F090605E14F0FA
:10068B00A3742CF0E4906059F090606204F09060D9
:10069B0060E0700C906059F0FFFE120F1A120F2AD7
:0106AB00222C
:1007D10078F2E254FCF2E24401F2907196740AF06C
:1007E10078C2E254CFF2E24410F29071807409F0C1
:1007F100E254F3F2E24404F290717F7408F0E2549F
:10080100FCF2E24401F290717E7407F07856E4F252
:1008110078277409F218745FF27833E4F218F278E9
:1008210019E254FEF218E24401F27811E24401F2B5
:100831007817E24401F27812E24401F27814E244BA
:1008410001F27857E4F278297409F218745FF278AA
:1008510037E4F218F27819E254FDF218E24402F298
:100861007811E24402F27817E24402F27812E2448B
:1008710002F27814E24402F27858E4F2782B740917
:10088100F218745FF2783BE4F218F27819E254FB43
:10089100F218E24404F27811E24404F27817E244D7
:1008A10004F27812E24404F27814E24404F2785932
:1008B100E4F2782D7409F218745FF2783FE4F218CB
:1008C100F27819E254F7F218E24408F27811E2449E
:1008D10008F27817E24408F27812E24408F2781438
:0508E100E24408F222D0
:100F3A00AC06EC7833F218EFF27817E24401F222A9
:100F4A00AC06EC7837F218EFF27817E24402F22294
:100F5A00AC06EC783BF218EFF27817E24404F2227E
:100F6A00AC06EC783FF218EFF27817E24408F22266
:100B4F00020D3BE493A3F8E493A34003F68001F274
:100B5F0008DFF48029E493A3F85407240CC8C333A7
:100B6F00C4540F4420C8834004F456800146F6DF76
:100B7F00E4800B0102040810204080900C91E47E69
:100B8F00019360BCA3FF543F30E509541FFEE4936B
:100B9F00A360010ECF54C025E060A840B8E493A332
:100BAF00FAE493A3F8E493A3C8C582C8CAC583CA5D
:100BBF00F0A3C8C582C8CAC583CADFE9DEE780BE15
:010CE600000D
:1003AA00BB010689828A83E0225002E722BBFE0251
:0903BA00E32289828A83E4932284
:1003C300C5F0F8A3E028F0C5F0F8E58215827002C5
:0603D3001583E038F02262
:1003D900A3F8E0C5F025F0F0E582158270021583D7
:0603E900E0C838F0E82234
:1003EF0075F008758200EF2FFFEE33FECD33CDCCC5
:1003FF0033CCC58233C5829BED9AEC99E582984048
:10040F000CF582EE9BFEED9AFDEC99FC0FD5F0D624
:10041F00E4CEFBE4CDFAE4CCF9A88222B800C1B94E
:10042F000059BA002DEC8BF084CFCECDFCE5F0CB8C
:10043F00F97818EF2FFFEE33FEED33FDEC33FCEBC5
:10044F0033FB10D703994004EB99FB0FD8E5E4F980
:10045F00FA227818EF2FFFEE33FEED33FDEC33FC6D
:10046F00C933C910D7059BE99A4007EC9BFCE99A61
:10047F00F90FD8E0E4C9FAE4CCFB2275F010EF2FA6
:10048F00FFEE33FEED33FDCC33CCC833C810D707A6
:10049F009BEC9AE899400AED9BFDEC9AFCE899F8E1
:0E04AF000FD5F0DAE4CDFBE4CCFAE4C8F92274
:1004BD00E8600FECC313FCED13FDEE13FEEF13FF1D
:0304CD00D8F12241
:0604D0008A838982E473B7
:10004500E50D242DF582E43460F583E0050D22905D
:10005500602A30100390602DE475F0011205150239
:1000650003AA2009E97F2ED2098018EF540F2490A6
:10007500D43440D4FF300D0BEF24BFB41A00500325
:100085002461FFE50E6002150E0511E511700205EC
:100095001030100E90602AE475F001120515EF027C
:1000A5000503020F8F7403D2108003E4C210F50D0F
:1000B50090602A12052CE4F50EF510F511E50E6099
:1000C500077F2012008880F5750FFFC20AC209C29A
:1000D5000BC20CC20EC20FC211120054FF700D30BC
:1000E50010057F00120099AF11AE1022B4255FC232
:1000F500D5C20D120054FF24D0B40A00501A75F071
:100105000A780E30D50508B6FF0106C6A426F620E6
:10011500D5047002D20C80D924CFB41A00EF500454
:10012500C2E5D20D02029AD20A80C6D20980C0D297
:100135000B80BCD2D580BAD20E80B47F2012008845
:10014500200B077401B50E0040F1120045FF1200A7
:10015500880200C2D211D20F8095120045FB120011
:1001650045FA120045F94A4B7006796B7A037BFF15
:10017500200B2EE50E602A7E008E82758300120408
:10018500D660060EEE650F70F0C2D5EBC0E0EAC092
:10019500E0E9C0E0EE1202E1D0E0F9D0E0FAD0E00B
:1001A500FB1203AAFF60AAEBC0E0EAC0E0E9C0E0E9
:1001B500120088D0E02401F9D0E03400FAD0E0FB49
:1001C500E50F0460DCD50FD980877BFF7A0279DDE6
:1001D500D20B809C791080027908C20FC211800869
:1001E500D2D5790A8004790AC2D5E50F047002F5E3
:1001F5000FE4FAFDFEFF120045FC7B08200A1312EE
:100205000045FD7B1030090A120045FE120045FF2E
:100215007B20EC3382D592D55013C3E43009069F79
:10022500FFE49EFEE4200A039DFDE49CFCE4CBF87C
:10023500C20AEC700CCFCECDCCE824F8F870F38070
:1002450017C3EF33FFEE33FEED33FDEC33FCEB3339
:10025500FB994002FB0FD8E9EB300A05F8D0E0C462
:1002650048B20AC0E00AEC4D4E4F78207B0070C2C0
:10027500EAB50F0040BCC0E01202E3D0F0D0E020A8
:100285000A04C4C0E0C4B20AC0F0120071D0F0D5AF
:10029500F0EB0200C2120535015F5301D958013058
:1002A5004C012C4201DD4F01E54401E5490145437F
:0802B50001EB5501CF4601CF1A
:1002BD004501CF47038B5001342D01382E015B2BA7
:1002CD00013C2301592003742A00F4480000015316
:1002DD003F3F3F00790AA2D5200C14300E09B9100A
:1002ED00020404B9080104A2D5200F025001042014
:1002FD000B68920BB50E005034C0E07F20300C1906
:10030D007F30A20B720F720E500F12033AC20BC246
:10031D000FC20EC2117F30800F300E03E9C0E01204
:10032D000088300E03D0E0F9D0E0B50ECC300E17BA
:10033D007F30B9100C1200887F58300D077F788000
:10034D0003B90803120088300B057F2D0200887F4A
:10035D00202011F87F2B200FF322920B80CF286ED7
:10036D00756C6C2900D20A120045300AF8C20A7861
:10037D000E30D50108F60200F42D504349581200F5
:10038D00452403B405004001E490038693120079DF
:0D039D00743A120079D20C750E040201D9D9
:1004D600BB010CE58229F582E5833AF583E02250DB
:1004E60006E92582F8E622BBFE06E92582F8E22225
:0D04F600E58229F582E5833AF583E493223F
:10050300BB010689828A83F0225002F722BBFE01D7
:02051300F322D1
:10051500F8E0FBA3A3E0F925F0F0E582158270026F
:070525001583E0FA38F02213
:09052C00EBF0A3EAF0A3E9F022D0
:10053500D083D082F8E4937012740193700DA3A355
:1005450093F8740193F5828883E473740293686069
:06055500EFA3A3A380DF69
:00000001FF
