:03000000020CFAF5
:0C0CFA00787FE4F6D8FD758120020D41E2
:0C000300000000000000000000000000F1
:0B130700EF1FAC0670011E4C70F622B8
:10125E00AB07AA06EB1BAE0270011A4E60097FAAFD
:08126E007E0512130780ED223A
:100A1100907120E04480F07F057E00121307E4FF0F
:100A2100FE12125E75A75575AC589071327450F074
:100A31009071307403F0907136742FF07F18EF24A9
:100A410066FDE434718D82F583E4F00FEFB433EE8B
:100A5100904011E4935407FF90711CE054F84FF05B
:100A6100904017E493547FFF90711DE054804FF044
:100A7100904010E493FF5401C43333335480FE900B
:100A81007123E0547F4EF0EFC313543F4440FFA362
:100A9100E054804FF0904012E493FF540FFE9071A8
:100AA10046E054F04EF0EFC4540FFF90714FE05404
:100AB100F04FF0904013E493543FFF907140E054A5
:100AC100C04FF0904014E493907126F0904015E4EB
:0E0AD10093907128F0904016E49390712AF0F3
:010ADF0022F4
:0802C30045610B0102080A6409
:10106700120A1175D95590715EE054FEF075D9BB1F
:1010770012111B12081D120FF6121245120021122F
:0D1087000E5475D9AA120F571206EB80F512
:1002CB004A60E7000000000000000000004160E40D
:1002DB00004160F2004160F1004260E500004160C6
:0202EB00E3002E
:101276009060F1E0600E9060E6E0240AF09060E590
:05128600E03400F0223D
:1006EB00E49060F3F0120045EF7016C39060E6E003
:1006FB0094D09060E5E09407500302081CE40208D4
:10070B00119060F17401F0E49060E5F0A3F0121128
:10071B00B29060E3E014601F14603B24026003029C
:10072B0007D0EF64A560030207D09060E7EFF0906D
:10073B0060E474010207C39060E4E0FE04F074E728
:10074B002EF582E43460F583EFF09060F2F0906068
:10075B00E37402F0806F9060E4E0FE04F074E72E27
:10076B00F582E43460F583EFF09060F2E0FF906087
:10077B00E4E0C39F404FE4FF9060F2E014FEEFC350
:10078B009E501574E72FF582E43460F583E0FE90FC
:10079B0060F3E02EF00F80E09060F2E024E6F5824B
:1007AB00E43460F583E0FF9060F3E06F6011E49058
:1007BB0060E5F0A3F09060F1F09060E3F0800690BC
:1007CB0060E37403F09060E3E0640370449060E9CD
:1007DB00E024FE601904702A9060EAE024FE6007B2
:1007EB0004701F7F0180027F021210C18014906081
:1007FB00EAE024FE60070470097F0180027F021289
:10080B0010EEE49060E5F0A3F09060F1F09060E3FF
:01081B00F0EC
:01081C0022B9
:0C12FB00000000000000000000000000E7
:0802ED004160CD004160CE002C
:1011D5009060CDE024CFF582E43460F583EFF090A4
:0E11E50060CDE004F0E0C3940A4002E4F02282
:1011F3009060CEE024D9F582E43460F583EFF0907B
:0E12030060CEE004F0E0C3940A4002E4F02262
:100AE00078F67C607D017BFF7A1279FB7E007F06C1
:100AF00012011EE49060FCF0A3F0A3F07B0AFAEA76
:100B0000C39B5056EBFF9060CDE02FFFE433CF2422
:100B1000FFCF34FFFEEAFDC3EF9DFFEE9400FEEB36
:100B2000FD7C00120171AF0574CF2FF582E43460B3
:100B3000F583E0F9C39403501EEAFFEBC39FFFE483
:100B40009400FEAD01E925E024F6F582E43460F579
:100B500083EE8FF01201C60A80A5E4FAEA25E024AC
:100B6000F6F582E43460F583E0FEA3E0FF9060FDDB
:100B7000E0FCA3E0FDD3EF9DEE9C401DEA25E024C0
:100B8000F6F582E43460F583E0FFA3E09060FDCFEA
:100B9000F0A3EFF09060FCEAF00AEAB403BE9060C4
:030BA000FCE0FF77
:010BA300222F
:100BA40078F67C607D017BFF7A1379017E007F06F5
:100BB40012011EE49060FCF0A3F0A3F07B0AFAEAB1
:100BC400C39B5056EBFF9060CEE02FFFE433CF245D
:100BD400FFCF34FFFEEAFDC3EF9DFFEE9400FEEB72
:100BE400FD7C00120171AF0574D92FF582E43460E5
:100BF400F583E0F9C39403501EEAFFEBC39FFFE4BF
:100C04009400FEAD01E925E024F6F582E43460F5B4
:100C140083EE8FF01201C60A80A5E4FAEA25E024E7
:100C2400F6F582E43460F583E0FEA3E0FF9060FD16
:100C3400E0FCA3E0FDD3EF9DEE9C401DEA25E024FB
:100C4400F6F582E43460F583E0FFA3E09060FDCF25
:100C5400F0A3EFF09060FCEAF00AEAB403BE9060FF
:030C6400FCE0FFB2
:010C6700226A
:10002100E4FF74CF2FF582E43460F583E4F074D9F2
:0F0031002FF582E43460F583E4F00FEFB40AE3B7
:01004000229D
:10128B009060C3E0FF1211D59060C4E0FF0211F330
:100DF100120AE09060F3EFF0120BA49060F4EFF0B0
:100E0100E4A3F09060F3E024AB9060F5F07FA512CD
:100E1100000F7F0512000F7F0112000F9060F3E0B9
:100E2100FF12000F9060F5E0FF12000F9060F4E0F8
:100E310024ACA3F07FA512000F7F0512000F7F02E3
:100E410012000F9060F4E0FF12000F9060F5E0FFD8
:030E510002000F8D
:1002F50042610100004261050000426103000042C5
:1003050061070000C102C100C103C10141610900CB
:0403150041610A0038
:100FF60078D2E24430F278C2E24403F278E2E24484
:101006000CF278F2E24403F2907123E054D8F0E057
:10101600441DF09071227407F043AA04D2AF786A97
:10102600E2447BF218E24458F27F017E0002125E2F
:10121100EF14600D14600D14600D2403700BD202E5
:0A12210022D20022D20322D20122C1
:10122B00EF14600D14600D14600D2403700BC202DB
:0A123B0022C20022C20322C20122D7
:10116A00E4FEEF14600E14600F1460102403701173
:10117A00A202800AA2008006A2038002A201E4332E
:03118A00FEAF06AF
:01118D00223F
:10103600E4FDFCC2AFEF14600F14601114601324BA
:10104600037017906101800D90610580089061031F
:101056008003906107E0FCA3E0FDD2AFAE04AF05CC
:011066002267
:10129B00EF24FE600704700775990A22E4F5992282
:1012AB00EF24FE6007047007759A1122759A1822B5
:100C6800906109E06004E0B4040D7F0112129B90CA
:100C780061097401F08033906109E0B4010B78696F
:100C8800E24401F27402F08021906109E0B4020AA2
:100C98007F0212129B7403F08010906109E0B40384
:100CA800097869E24401F27404F090610AE0600492
:100CB800E0B4040C7F011212AB90610A7401F022B7
:100CC80090610AE0B4010A7869E24402F27402F021
:100CD8002290610AE0B402097F021212AB7403F099
:100CE8002290610AE0B403097869E24402F27404CC
:020CF800F022E8
:030042000209347C
:10093400C0E0C0F0C083C082C0D075D000C000C089
:0309440005C007E4
:100947009060FFE4F0A3F0786BE230E153AF93EFF0
:1009570075F010A4FFE594C4540FFDEF4DFF9060B0
:10096700FFE5F0F0A3EFF0E24402F2906109E0B492
:1009770002139060FFE0FFA3E0906101CFF0A3EFC7
:10098700F0E4FF8018906109E0B404149060FFE080
:10099700FFA3E0906105CFF0A3EFF07F01121211E2
:1009A700786BE230E253AF95EF75F010A4FFE59650
:1009B700C4540FFDEF4DFF9060FFE5F0F0A3EFF09B
:1009C700E24404F290610AE0B402139060FFE0FF92
:1009D700A3E0906103CFF0A3EFF07F02801890614E
:1009E7000AE0B404149060FFE0FFA3E0906107CF32
:0909F700F0A3EFF07F03121211CE
:100A0000D007D005D000D0D0D082D083D0F0D0E0B5
:010A100032B3
:080319004561100102080A64AD
:100E540043A820D2AF75D101906110E0FBE4FAF908
:100E6400F87F807EBBFDFC120218EF24FFFFEE34F6
:100E7400FFFEED34FFFDEC34FFFC78081202AA7883
:100E840095EFF2906110E0FBE4FAF9F87F807EBB05
:100E9400FDFC120218EF24FFFF7894EFF2789174AE
:070EA400A0F21874E1F22234
:03001E00020FAB23
:100FAB00C0E0C0F0C083C082C0D075D000C000C00C
:100FBB0001C002C003C004C005C006C0077891E29F
:100FCB0030E70DE24480F2120D86120C6812127695
:100FDB00D007D006D005D004D003D002D001D0006A
:0B0FEB00D0D0D082D083D0F0D0E03214
:10032100603060830000000001FF042F0000000026
:1003310001FF058D0000000005FF0EAB000000006D
:1003410005FF0F01000000000AFF128B00000000F2
:0403510064FF0DF147
:100F5700E49060F3F0F09060F3E0FFC39406504331
:100F6700EF75F008A42483F582E43460F583E0602C
:100F77002A9060F3E075F008A42483F582E43460D6
:100F8700F583E4F0EF75F008A42488F582E4346073
:100F9700F583A3E0FAA3E0F91202BD9060F3E00441
:030FA700F080B324
:010FAA002224
:100D8600E4FFEF75F008A42484F582E43460F5836B
:100D9600E475F0011201C6EF75F008A42486F58209
:100DA600E43460F583E0FCA3E0FDEF75F008A424CD
:100DB60084F582E43460F583E0FAA3E0C39DEA9CFF
:100DC6004023EF75F008A42484F582E43460F583AB
:100DD600E4F0A3F0EF75F008A42483F582E4346010
:0A0DE600F5837401F00FEFB40698D6
:010DF00022E0
:10081D0078D2E2543FF2E24440F2907189740AF0CA
:10082D00E254F3F2E24404F29071877409F078E334
:10083D00E2543FF2E24440F29071957408F078C2B0
:10084D00E2543FF2E24440F29071817407F0785621
:10085D00E4F278277409F218745FF27833E4F21831
:10086D00F27819E254FEF218E24401F27811E244F2
:10087D0001F27817E24401F27812E24401F27814A1
:10088D00E24401F27857E4F278297409F218745FA2
:10089D00F27837E4F218F27819E254FDF218E244D6
:1008AD0002F27811E24402F27817E24402F2781271
:1008BD00E24402F27814E24402F27858E4F2782B22
:1008CD007409F218745FF2783BE4F218F27819E2C9
:1008DD0054FBF218E24404F27811E24404F2781762
:1008ED00E24404F27812E24404F27814E24404F291
:1008FD007859E4F2782D7409F218745FF2783FE4B8
:10090D00F218F27819E254F7F218E24408F278116D
:10091D00E24408F27817E24408F27812E24408F251
:07092D007814E24408F222F5
:1012BB00AC06EC7833F218EFF27817E24401F22225
:1012CB00AC06EC7837F218EFF27817E24402F22210
:1012DB00AC06EC783BF218EFF27817E24404F222FA
:1012EB00AC06EC783FF218EFF27817E24408F222E2
:08035500416118FF416119FF2D
:1012450078D0E24440F278D3E254CFF278C0E24459
:0912550004F278C2E254CFF22247
:100EAB00A296E4339060F3F0906118E0FF9060F34A
:100EBB00E06F6041906118E0F4602D9060F3E060AA
:100ECB002C9060C37401F09060C5F0A3742CF0E417
:100EDB00FFFE1212BBE4FFFE1212CB9060CB74012B
:100EEB00F0E49060C9F08005E49060C3F09060F38B
:050EFB00E0906118F019
:010F000022CE
:100F0100A282E4339060F3F0906119E0FF9060F306
:100F1100E06F6041906119E0F4602D9060F3E06052
:100F21002C9060C47401F09060C7F0A3742CF0E4BD
:100F3100FFFE1212DBE4FFFE1212EB9060CC740193
:100F4100F0E49060CAF08005E49060C4F09060F332
:050F5100E0906119F0C1
:010F56002278
:10035D00608360000000000000000000000000004D
:10036D000000000000000000000000000000000080
:10037D000000000000000000000000000000000070
:10038D000000000000000000000000000000000060
:10039D000000000000000000000000000000000050
:1003AD000000000000000000000000000000000040
:1003BD000000000000000000000000000000000030
:1003CD000000000000000000000000000000000020
:0703DD000000000000000019
:10111B0078D3E254F3F2E24404F290718B7404F04E
:10112B00E254FCF2907175740DF075D60175D59F74
:09113B0075D21143AA20D2AF22A3
:0D000F00E5D430E4FB8FD7E5D430E4FB22CC
:0B109400906115EBF0A3EAF0A3E9F077
:10109F00E4FEEEC39D501A906115E0FBA3E0FAA3A6
:1010AF00E0F98E82758300120144FF12000F0E804B
:0110BF00E14F
:0110C000220D
:06004500906082E0FF2242
:1011B200906082E07002FF22906081E004547FF030
:1011C200E02400F582E43460F583E0FF906082E081
:0211D20014F017
:0111D40022F8
:10118E00906080E004547FF0E02400F582E4346047
:10119E00F583EFF0906082E004F0E0D3948040039A
:0411AE007480F02237
:03004B000211445B
:10114400C0E0C083C082C0D075D000C005C007E530
:10115400D430E505AFD712118ED007D005D0D0D04A
:0611640082D083D0E032CE
:1003E4004160C3004160C4004260C500004260C770
:1003F40000004160CB004160CC004160C900416015
:10040400CA004260B300004260B500004260B70019
:10041400004260B900004260BB00004260BD0000C1
:0A0424004260BF00004260C100000A
:1010C100EF64016004EFB402239060C3EFF0E49099
:1010D10060C9F09060CB04F09060C5F0A3742CF06F
:0D10E100E4FFFE1212BBE4FFFE1212CB2250
:1010EE00EF64016004EFB402239060C4EFF0E4906B
:1010FE0060CAF09060CC04F09060C7F0A3742CF03E
:0D110E00E4FFFE1212DBE4FFFE1212EB22E2
:10042F00D39060C6E094009060C5E09400400EA3A6
:10043F00E024FFF09060C5E034FFF080429060CB85
:10044F00E0603CE4F09060C3E0B4010C7FF87E07FD
:10045F001212BBE4FFFE80119060C3E0B40220E4EF
:10046F00FFFE1212BB7FF87E071212CBE49060B32F
:10047F00F0A3F09060C904F0E49060B5F0A3F0E44D
:10048F00FF12116AEF6012E4FF12122BE4FF121039
:10049F00369060B9EEF0A3EFF07F0112116AEF60B2
:1004AF00127F0112122B7F011210369060B7EEF0FF
:1004BF00A3EFF09060C9E07003020577D39060BAA4
:1004CF00E094799060B9E0940640369060B6E0040D
:1004DF00F070069060B5E004F0D39060B6E094C879
:1004EF009060B5E0940040199060C37402F0906082
:1004FF00C514F0A3742CF0E49060C9F09060CB04A5
:10050F00F0D39060B8E094799060B7E09406402201
:10051F009060B6E004F070069060B5E004F0D39000
:10052F0060B6E094C89060B5E094004005E4906038
:10053F00C3F0C39060B4E094C49060B3E0940950EA
:10054F000EA3E004F070219060B3E004F0801990E6
:10055F0060C37402F09060C514F0A3742CF0E490A3
:10056F0060C9F09060CB04F09060C3E0700F9060B2
:0D057F00C9F0FFFE1212BBE4FFFE1212CB0A
:01058C00224C
:10058D00D39060C8E094009060C7E09400400EA343
:10059D00E024FFF09060C7E034FFF080429060CC23
:1005AD00E0603CE4F09060C4E0B4010C7FF87E079D
:1005BD001212DBE4FFFE80119060C4E0B40220E46F
:1005CD00FFFE1212DB7FF87E071212EBE49060BF84
:1005DD00F0A3F09060CA04F0E49060C1F0A3F07F46
:1005ED000212116AEF60127F0212122B7F0212109B
:1005FD00369060BDEEF0A3EFF07F0312116AEF604D
:10060D00127F0312122B7F031210369060BBEEF097
:10061D00A3EFF09060CAE070030206D5D39060BEE0
:10062D00E094799060BDE0940640369060C2E0049D
:10063D00F070069060C1E004F0D39060C2E094C801
:10064D009060C1E0940040199060C47402F0906015
:10065D00C714F0A3742CF0E49060CAF09060CC0441
:10066D00F0D39060BCE094799060BBE0940640229A
:10067D009060C2E004F070069060C1E004F0D39089
:10068D0060C2E094C89060C1E094004005E49060C1
:10069D00C4F0C39060C0E094C49060BFE094095072
:1006AD000EA3E004F070219060BFE004F08019907B
:1006BD0060C47402F09060C714F0A3742CF0E49041
:1006CD0060CAF09060CC04F09060C4E0700F906050
:0D06DD00CAF0FFFE1212DBE4FFFE1212EB6A
:0106EA0022ED
:100D0600021067E493A3F8E493A34003F68001F28C
:100D160008DFF48029E493A3F85407240CC8C333EE
:100D2600C4540F4420C8834004F456800146F6DFBD
:100D3600E4800B01020408102040809002C3E47E88
:100D4600019360BCA3FF543F30E509541FFEE493B2
:100D5600A360010ECF54C025E060A840B8E493A379
:100D6600FAE493A3F8E493A3C8C582C8CAC583CAA4
:100D7600F0A3C8C582C8CAC583CADFE9DEE780BE5C
:01042E0000CD
:10004E00E709F608DFFA8046E709F208DFFA803E94
:10005E0088828C83E709F0A3DFFA8032E309F60881
:10006E00DFFA8078E309F208DFFA807088828C83E9
:10007E00E309F0A3DFFA806489828A83E0A3F6089D
:10008E00DFFA805889828A83E0A3F208DFFA804C77
:10009E0080D280FA80C680D4806980F2803380104E
:1000AE0080A680EA809A80A880DA80E280CA8033B7
:1000BE0089828A83ECFAE493A3C8C582C8CCC5832F
:1000CE00CCF0A3C8C582C8CCC583CCDFE9DEE780FF
:1000DE000D89828A83E493A3F608DFF9ECFAA9F07E
:1000EE00EDFB2289828A83ECFAE0A3C8C582C8CCD4
:1000FE00C583CCF0A3C8C582C8CCC583CCDFEADEED
:10010E00E880DB89828A83E493A3F208DFF980CC4E
:10011E0088F0EF60010E4E60C388F0ED2402B40447
:10012E000050B9F582EB2402B4040050AF232345EE
:06013E00822390009E7375
:10014400BB010CE58229F582E5833AF583E0225070
:1001540006E92582F8E622BBFE06E92582F8E222BA
:0D016400E58229F582E5833AF583E49322D4
:10017100BC000BBE0029EF8DF084FFADF022E4CC72
:10018100F875F008EF2FFFEE33FEEC33FCEE9DEC3B
:10019100984005FCEE9DFE0FD5F0E9E4CEFD22ED81
:1001A100F8F5F0EE8420D21CFEADF075F008EF2FCB
:1001B100FFED33FD4007985006D5F0F222C398FDBC
:0501C1000FD5F0EA2259
:1001C600C5F0F8A3E028F0C5F0F8E58215827002C4
:0601D6001583E038F02261
:1001DC0075F008758200EF2FFFEE33FECD33CDCCDA
:1001EC0033CCC58233C5829BED9AEC99E58298405D
:1001FC000CF582EE9BFEED9AFDEC99FC0FD5F0D63A
:10020C00E4CEFBE4CDFAE4CCF9A88222B800C1B963
:10021C000059BA002DEC8BF084CFCECDFCE5F0CBA1
:10022C00F97818EF2FFFEE33FEED33FDEC33FCEBDA
:10023C0033FB10D703994004EB99FB0FD8E5E4F995
:10024C00FA227818EF2FFFEE33FEED33FDEC33FC82
:10025C00C933C910D7059BE99A4007EC9BFCE99A76
:10026C00F90FD8E0E4C9FAE4CCFB2275F010EF2FBB
:10027C00FFEE33FEED33FDCC33CCC833C810D707BB
:10028C009BEC9AE899400AED9BFDEC9AFCE899F8F6
:0E029C000FD5F0DAE4CDFBE4CCFAE4C8F92289
:1002AA00E8600FECC313FCED13FDEE13FEEF13FF32
:0302BA00D8F12256
:0602BD008A838982E473CC
:00000001FF
