:03000000020AD819
:0C0AD800787FE4F6D8FD758121020B1F29
:0C000300000000000000000000000000F1
:0B000F00EF1FAC0670011E4C70F622C3
:100ED100AB07AA06EB1BAE0270011A4E60097FAA8E
:080EE1007E0512000F80ED22D6
:10097700907120E04480F07F057E0012000FE4FFB5
:10098700FE120ED175A75575AC589071327450F0A0
:100997009071307403F0907136742FF07F18EF2444
:1009A70066FDE434718D82F583E4F00FEFB433EE26
:1009B700904011E4935407FF90711CE054F84FF0F6
:1009C700904017E493547FFF90711DE054804FF0DF
:1009D700904010E493FF5401C43333335480FE90A6
:1009E7007123E0547F4EF0EFC313543F4440FFA3FD
:1009F700E054804FF0904012E493FF540FFE907143
:100A070046E054F04EF0EFC4540FFF90714FE0549E
:100A1700F04FF0904013E493543FFF907140E0543F
:100A2700C04FF0904014E493907126F0904015E485
:0E0A370093907128F0904016E49390712AF08D
:010A4500228E
:0B0F69007379732072657365740A00D1
:080B640045604D0102080A641E
:100C410012097775D95590715EE054FEF075D9BBE4
:100C510012002178D3E254FCF2E24401F290718A4D
:100C6100E4F07BFF7A0F79691200B0120696120E3A
:100C710051120C997FF87E07120F297FF87E071217
:100C81000F397FF87E07120F497FF87E07120F593F
:080C910075D9AA120CF080F8DD
:080F7400E5F430E4FB8FF722E5
:1000210078E3E2543FF2E24440F29071957403F0B8
:0A00310075F60175F59F75F21022B7
:100B6C0042603B000042603F000042603D0000429A
:100B7C0060410000C10BC109C10CC10A41604300B6
:040B8C004160440080
:100E5100907123E054D8F0E0441DF09071227407A2
:100E6100F043AA04D2AF786AE2447BF218E2445814
:080E7100F27F017E00020ED1A8
:100E9D00EF14600D14600D14600D2403700BD20B54
:0A0EAD0022D20922D20C22D20A221E
:100EB700EF14600D14600D14600D2403700BC20B4A
:0A0EC70022C20922C20C22C20A2234
:100E7900E4FEEF14600E14600F1460102403701167
:100E8900A20B800AA2098006A20C8002A20AE433FE
:030E9900FEAF06A3
:010E9C002233
:100DCE00E4FDFCC2AFEF14600F1460111460132425
:100DDE0003701790603B800D90603F800890603DDF
:100DEE008003906041E0FCA3E0FDD2AFAE04AF05FE
:010DFE0022D2
:100EE900EF24FE600704700775991622759915227B
:100EF900EF24FE6007047007759A1422759A13226D
:100A4600906043E06004E0B4040D7F01120EE9906B
:100A560060437401F08033906043E0B4010B786921
:100A6600E24401F27402F08021906043E0B4020A8D
:100A76007F02120EE97403F08010906043E0B40325
:100A8600097869E24401F27404F0906044E060047D
:100A9600E0B4040C7F01120EF99060447401F02258
:100AA600906044E0B4010A7869E24402F27402F00C
:100AB60022906044E0B402097F02120EF97403F03A
:100AC60022906044E0B403097869E24402F27404B7
:020AD600F0220C
:0300420002089A17
:10089A00C0E0C0F0C083C082C0D075D000C000C024
:0308AA0005C0077F
:1008AD00906028E4F0A3F0786BE230E153AF93EF62
:1008BD0075F010A4FFE594C4540FFDEF4DFF90604B
:1008CD0028E5F0F0A3EFF0E24402F2906043E0B4CB
:1008DD000213906028E0FFA3E090603BCFF0A3EF00
:1008ED00F0E4FF8018906043E0B40414906028E0B9
:1008FD00FFA3E090603FCFF0A3EFF07F01120E9DBC
:10090D00786BE230E253AF95EF75F010A4FFE596EA
:10091D00C4540FFDEF4DFF906028E5F0F0A3EFF00C
:10092D00E24404F2906044E0B40213906028E0FFCA
:10093D00A3E090603DCFF0A3EFF07F0280189060B0
:10094D0044E0B40414906028E0FFA3E0906041CF30
:09095D00F0A3EFF07F03120E9DE0
:10096600D007D005D000D0D0D082D083D0F0D0E050
:01097600324E
:080B90004560520102080A64ED
:100C990043A820D2AF75D101906052E0FBE4FAF984
:100CA900F87F807EBBFDFC1203FCEF24FFFFEE34CE
:100CB900FFFEED34FFFDEC34FFFC780812048E785A
:100CC90095EFF2906052E0FBE4FAF9F87F807EBB81
:100CD900FDFC1203FCEF24FFFF7894EFF278917486
:070CE900A0F21874E1F222F1
:03001E00020D448C
:100D4400C0E0C0F0C083C082C0D075D000C000C075
:100D540001C002C003C004C005C006C0077891E208
:100D640030E707E24480F2120BD6D007D006D00554
:100D7400D004D003D002D001D000D0D0D082D08310
:050D8400D0F0D0E032C8
:0B0B98004860450000000064FF0A46B2
:100CF000E4906000F0F0906000E0FFC39401504386
:100D0000EF75F008A42445F582E43460F583E060D3
:100D10002A906000E075F008A42445F582E4346070
:100D2000F583E4F0EF75F008A4244AF582E434601A
:100D3000F583A3E0FAA3E0F91204A1906000E004B7
:030D4000F080B38D
:010D4300228D
:100BD600E4FFEF75F008A42446F582E43460F5835B
:100BE600E475F0011203AAEF75F008A42448F58213
:100BF600E43460F583E0FCA3E0FDEF75F008A4247F
:100C060046F582E43460F583E0FAA3E0C39DEA9CEE
:100C16004023EF75F008A42446F582E43460F5839A
:100C2600E4F0A3F0EF75F008A42445F582E43460FF
:0A0C3600F5837401F00FEFB401988C
:010C40002291
:100BA30041603800426036000041603A00416031E4
:100BB30000426034000041602AFF41603900426016
:100BC30032000042602B000042602D000042602F83
:020BD300000020
:1007AB0078E2E254F3F2E24404F290718F740AF0AF
:1007BB007856E4F278277409F218745FF27833E410
:1007CB00F218F27819E254FEF218E24401F27811B1
:1007DB00E24401F27817E24401F27812E24401F2AA
:1007EB007814E24401F278C3E254CFF2E24410F2FF
:1007FB009071847409F07857E4F278297409F2182F
:10080B00745FF27837E4F218F27819E254FDF218BB
:10081B00E24402F27811E24402F27817E24402F267
:10082B007812E24402F27814E24402F278E2E254E3
:10083B00CFF2E2F278C3E254F3F2E2F278F2E2544E
:10084B00F3F278F0E24402F278C3E254F3F2E244BA
:10085B000CF278E2E254CFF2E24430F2907123E0F2
:10086B0054D8F0E0441DF09071227407F07599058F
:10087B007869E24448F2759A12E24450F27F017EA5
:0F088B0000120ED178B6741FF208F278B5F2227F
:100F0900AC06EC7833F218EFF27817E24401F222DA
:100F1900AC06EC7837F218EFF27817E24402F222C5
:100D8900A2B1E433FB90602AE0FF6B6037EFF460B7
:100D990027EB60299060387401F0906036F0A374F5
:100DA9002CF0E4FFFE120F09120F1990603A74013A
:100DB900F0E4906031F08005E4906038F0AF039082
:040DC900602AEBF0C1
:010DCD002203
:100DFF007869E24401F2786BE220E104E4FEFF221D
:100E0F00786B7402F2AF93EF75F010A4FFAEF0E5BC
:080E1F0094C4540FFDEF4DFFD8
:010E270022A8
:100E28007869E24402F2786BE220E204E4FEFF22F1
:100E3800786B7404F2AF95EF75F010A4FFAEF0E58F
:080E480096C4540FFDEF4DFFAD
:010E5000227F
:10054500D3906037E09400906036E09400400EA3AD
:10055500E024FFF0906036E034FFF0805890603A78
:10056500E06052E4F0906038E0B401207FF87E0747
:10057500120F09E4FFFE120F19E490602FF0A3F0AB
:10058500A304F0E4906034F0A3F08029906038E093
:10059500B40222E4FFFE120F097FF87E07120F193D
:1005A500E490602FF0A3F0A304F0E4906034F0A38E
:1005B500F0906039F0120DFF90602BEEF0A3EFF094
:1005C500120E28A3EEF0A3EFF0906031E070030265
:1005D5000683D390602EE0947990602DE0940640D8
:1005E50036906035E004F07006906034E004F0D396
:1005F500906035E094C8906034E0940040199060B4
:10060500387402F090603614F0A3742CF0E4906016
:1006150031F090603A04F0D390602CE094799060CA
:100625002BE094064022906035E004F0700690605F
:1006350034E004F0D3906035E094C8906034E094E1
:10064500004005E4906038F0C3906030E094C490B9
:10065500602FE09409500EA3E004F0700690602F1F
:10066500E004F080199060387402F090603614F060
:10067500A3742CF0E4906031F090603A04F090603F
:1006850038E0700C906031F0FFFE120F09120F195F
:010695002242
:1006960078F2E254FCF2E24401F2907196740AF0A8
:1006A60078C2E254CFF2E24410F29071807409F0FD
:1006B600E254F3F2E24404F290717F7408F0E254DB
:1006C600FCF2E24401F290717E7407F07856E4F28F
:1006D60078277409F218745FF27833E4F218F27826
:1006E60019E254FEF218E24401F27811E24401F2F2
:1006F6007817E24401F27812E24401F27814E244F7
:1007060001F27857E4F278297409F218745FF278E6
:1007160037E4F218F27819E254FDF218E24402F2D4
:100726007811E24402F27817E24402F27812E244C7
:1007360002F27814E24402F27858E4F2782B740953
:10074600F218745FF2783BE4F218F27819E254FB7F
:10075600F218E24404F27811E24404F27817E24413
:1007660004F27812E24404F27814E24404F278596E
:10077600E4F2782D7409F218745FF2783FE4F21807
:10078600F27819E254F7F218E24408F27811E244DA
:1007960008F27817E24408F27812E24408F2781474
:0507A600E24408F2220C
:100F2900AC06EC7833F218EFF27817E24401F222BA
:100F3900AC06EC7837F218EFF27817E24402F222A5
:100F4900AC06EC783BF218EFF27817E24404F2228F
:100F5900AC06EC783FF218EFF27817E24408F22277
:01001A0022C3
:01001B0022C2
:100AE400020C41E493A3F8E493A34003F68001F2DB
:100AF40008DFF48029E493A3F85407240CC8C33313
:100B0400C4540F4420C8834004F456800146F6DFE1
:100B1400E4800B0102040810204080900B64E47E02
:100B2400019360BCA3FF543F30E509541FFEE493D6
:100B3400A360010ECF54C025E060A840B8E493A39D
:100B4400FAE493A3F8E493A3C8C582C8CAC583CAC8
:100B5400F0A3C8C582C8CAC583CADFE9DEE780BE80
:010BD500001F
:1003AA00C5F0F8A3E028F0C5F0F8E58215827002DE
:0603BA001583E038F0227B
:1003C00075F008758200EF2FFFEE33FECD33CDCCF4
:1003D00033CCC58233C5829BED9AEC99E582984077
:1003E0000CF582EE9BFEED9AFDEC99FC0FD5F0D654
:1003F000E4CEFBE4CDFAE4CCF9A88222B800C1B97E
:100400000059BA002DEC8BF084CFCECDFCE5F0CBBB
:10041000F97818EF2FFFEE33FEED33FDEC33FCEBF4
:1004200033FB10D703994004EB99FB0FD8E5E4F9AF
:10043000FA227818EF2FFFEE33FEED33FDEC33FC9C
:10044000C933C910D7059BE99A4007EC9BFCE99A90
:10045000F90FD8E0E4C9FAE4CCFB2275F010EF2FD5
:10046000FFEE33FEED33FDCC33CCC833C810D707D5
:100470009BEC9AE899400AED9BFDEC9AFCE899F810
:0E0480000FD5F0DAE4CDFBE4CCFAE4C8F922A3
:10048E00E8600FECC313FCED13FDEE13FEEF13FF4C
:03049E00D8F12270
:0604A1008A838982E473E6
:10004500E5082403F582E43460F583E00508229091
:100055006000300703906003E475F0011204FF02AD
:1000650004A72000E97F2ED2008018EF540F2490BA
:10007500D43440D4FF30040BEF24BFB41A0050032E
:100085002461FFE50960021509050CE50C70020500
:100095000B30070E906000E475F0011204FFEF02CB
:1000A50004ED020F747403D2078003E4C207F50858
:1000B500906000120516E4F509F50BF50CE50960ED
:1000C500077F2012008880F5750AFFC201C200C2B1
:1000D50002C203C205C206C208120054FF700D30E9
:1000E50007057F00120099AF0CAE0B22B4255FC245
:1000F500D5C204120054FF24D0B40A00501A75F07A
:100105000A780930D50508B6FF0106C6A426F620EB
:10011500D5047002D20380D924CFB41A00EF50045D
:10012500C2E5D20402029AD20180C6D20080C0D2B2
:100135000280BCD2D580BAD20580B47F2012008857
:100145002002077401B5090040F1120045FF1200B5
:10015500880200C2D208D2068095120045FB120023
:1001650045FA120045F94A4B7006796B7A037BFF15
:1001750020022EE509602A7E008E82758300120416
:10018500C060060EEE650A70F0C2D5EBC0E0EAC0AD
:10019500E0E9C0E0EE1202E1D0E0F9D0E0FAD0E00B
:1001A500FB1204A7FF60AAEBC0E0EAC0E0E9C0E0EB
:1001B500120088D0E02401F9D0E03400FAD0E0FB49
:1001C500E50A0460DCD50AD980877BFF7A0279DDF0
:1001D500D202809C791080027908C206C208800884
:1001E500D2D5790A8004790AC2D5E50A047002F5E8
:1001F5000AE4FAFDFEFF120045FC7B0820011312FC
:100205000045FD7B1030000A120045FE120045FF37
:100215007B20EC3382D592D55013C3E43000069F82
:10022500FFE49EFEE42001039DFDE49CFCE4CBF885
:10023500C201EC700CCFCECDCCE824F8F870F38079
:1002450017C3EF33FFEE33FEED33FDEC33FCEB3339
:10025500FB994002FB0FD8E9EB300105F8D0E0C46B
:1002650048B201C0E00AEC4D4E4F78207B0070C2C9
:10027500EAB50A0040BCC0E01202E3D0F0D0E020AD
:100285000104C4C0E0C4B201C0F0120071D0F0D5C1
:10029500F0EB0200C212051F015F5301D95801306E
:1002A5004C012C4201DD4F01E54401E5490145437F
:0802B50001EB5501CF4601CF1A
:1002BD004501CF47038B5001342D01382E015B2BA7
:1002CD00013C2301592003742A00F4480000015316
:1002DD003F3F3F00790AA2D5200314300509B9101C
:1002ED00020404B9080104A2D5200602500104201D
:1002FD0002689202B509005034C0E07F2030031926
:10030D007F30A20272067205500F12033AC202C26A
:10031D0006C205C2087F30800F300503E9C0E01228
:10032D000088300503D0E0F9D0E0B509CC300517D1
:10033D007F30B9100C1200887F583004077F788009
:10034D0003B908031200883002057F2D0200887F53
:10035D00202008F87F2B2006F322920280CF286EF2
:10036D00756C6C2900D2011200453001F8C201787C
:10037D000930D50108F60200F42D504349581200FA
:10038D00452403B405004001E490038693120079DF
:0D039D00743A120079D2037509040201D9E7
:1004A700BB010689828A83E0225002E722BBFE0253
:0904B700E32289828A83E4932286
:1004C000BB010CE58229F582E5833AF583E02250F1
:1004D00006E92582F8E622BBFE06E92582F8E2223B
:0D04E000E58229F582E5833AF583E4932255
:1004ED00BB010689828A83F0225002F722BBFE01EE
:0204FD00F322E8
:1004FF00F8E0FBA3A3E0F925F0F0E5821582700286
:07050F001583E0FA38F02229
:09051600EBF0A3EAF0A3E9F022E6
:10051F00D083D082F8E4937012740193700DA3A36B
:10052F0093F8740193F5828883E47374029368607F
:06053F00EFA3A3A380DF7F
:00000001FF
