:0300000002129554
:0C129500787FE4F6D8FD7581210212DCA0
:0C000300000000000000000000000000F1
:0B18DD00EF1FAC0670011E4C70F622DD
:10184000AB07AA06EB1BAE0270011A4E60097FAA15
:081850007E051218DD80ED2277
:10108900907120E04480F07F057E001218DDE4FFB6
:10109900FE12184075A75575AC589071327450F00E
:1010A9009071307403F0907136742FF07F18EF242B
:1010B90066FDE434718D82F583E4F00FEFB433EE0D
:1010C900904011E4935407FF90711CE054F84FF0DD
:1010D900904017E493547FFF90711DE054804FF0C6
:1010E900904010E493FF5401C43333335480FE908D
:1010F9007123E0547F4EF0EFC313543F4440FFA3E4
:10110900E054804FF0904012E493FF540FFE907129
:1011190046E054F04EF0EFC4540FFF90714FE05485
:10112900F04FF0904013E493543FFF907140E05426
:10113900C04FF0904014E493907126F0904015E46C
:0E11490093907128F0904016E49390712AF074
:011157002275
:0B18E8007379732072657365740A0049
:080B4E004561170102080A6469
:10138C0012108975D95590715EE054FEF075D9BB79
:10139C00121719120C991215E61218271213F17B59
:1013AC00FF7A1879E81200B97F011200217F01122F
:1013BC000021E4FF1200217F011200217F021200A4
:1013CC0021E4FF1200217F021200217F0112002173
:1013DC00E4FF120021E4FF12002175D9AA1214F4C3
:0513EC0012069980F5D6
:101158003D3D3D3D3D3D3D3D3D3D3D3D3D3D3D3DB7
:101168003D3D3D3D3D3D3D3D3D3D3D3D3D3D3D3DA7
:101178003D3E0A0075617274207265637620746959
:101188006D656F75740A0025303278003D3D3D3D30
:101198003D3D3D3D3D3D3D3D3D3D3D3D3D3D3D3D77
:1011A8003D3D3D3D3D3D3D3D3D3D3D3D3D5E0A00B6
:1011B800636865636B2073756D206572726F720A60
:1011C80000636865636B2073756D206F6B0A003070
:1011D800782530327820000A006D6F746F722030E5
:1011E80020666F72776172640A006D6F746F722087
:0B11F8003020726576657273650A0096
:100B56004A60F1000000000000000000004160EE65
:100B6600004160FC004160FB004260EF0000416014
:020B7600ED0090
:101858009060FBE0600E9060F0E0240AF09060EF8A
:05186800E03400F02255
:10069900E4906083F0120045EF706DC39060F0E064
:1006A90094D09060EFE094075003020891E4F0A31E
:1006B900F09060FBF09060EDF07BFF7A11795812B1
:1006C90000B97BFF7A11797C1200B9E4906084F05B
:1006D900906084E0FFC3940A50257BFF7A11798FDB
:1006E90074F12FF582E43460F583E0FF906096E4BD
:1006F900F0A3EFF01200B9906084E004F080D17BA0
:10070900FF7A1179940200B99060FB7401F0E490CA
:1007190060EFF0A3F01217B29060EDE014601F14BF
:10072900603C240260030207F0EF64A5600302073E
:10073900F09060F1EFF09060EE74010207DC9060D8
:10074900EEE0FE04F074F12EF582E43460F583EFF7
:10075900F09060FCF09060ED7402F00207F0906098
:10076900EEE0FE04F074F12EF582E43460F583EFD7
:10077900F09060FCE0FF9060EEE0C39F4069E49078
:100789006084F09060FCE014FF906084E0FEC39FF9
:10079900501874F12EF582E43460F583E0FF90601F
:1007A90083E02FF0A3E004F080D99060FCE024F00E
:1007B900F582E43460F583E0FF906083E06F7BFFAE
:1007C90060187A1179B81200B9E49060EFF0A3F0DB
:1007D9009060FBF09060EDF0800D7A1179C91200FC
:1007E900B99060ED7403F09060EDE064036003027A
:1007F9000891906084F09060FCE0FF906084E0FED6
:10080900C39F50257BFF7A1179D774F12EF582E4C5
:100819003460F583E0FF906096E4F0A3EFF01200F6
:10082900B9906084E004F080CD7BFF7A1179DF1202
:1008390000B99060F3E024FE602B04703C9060F4F2
:10084900E024FE60100470317F011216BF7BFF7A2D
:100859001179E1800B7F021216BF7BFF7A1179F2C1
:100869001200B980149060F4E024FE600704700956
:100879007F0180027F021216ECE49060EFF0A3F092
:080889009060FBF09060EDF0BF
:010891002244
:1015480077656967687465645F73756D5B253031AD
:10155800645D203D20253032640A006D6F746F721F
:101568005F305F7374617475733A20253032640A92
:10157800006D6F746F725F315F7374617475733A65
:1015880020253032640A000000000000000000003E
:0315980000000050
:080B78004160D7004160D80084
:100021009060D7E024D9F582E43460F583EFF09055
:0E00310060D7E004F0E0C3940A4002E4F0223D
:1017D5009060D8E024E3F582E43460F583EFF0907F
:0E17E50060D8E004F0E0C3940A4002E4F02271
:100DB20078857C607D017BFF7A15798F7E007F06C6
:100DC200120483E490608BF0A3F0A3F07B0AA3F0FB
:090DD20090608EE0FFC39B50729B
:100DDB00EBFD9060D7E02DFDE433CD24FFCD34FF48
:100DEB00FCC3ED9FFFEC9400FEEBFD7C001204D6E0
:100DFB00AF0590608FEDF0E024D9F582E43460F517
:0D0E0B0083E0906090F0E0FFC39403502D51
:100E180090608EE0FDEBC39DFCE49400906091F03F
:100E2800A3CCF0906091E0FCA3E0FDEF25E02485E1
:0D0E3800F582E43460F583EC8DF012052B9B
:100E450090608EE004F08085E490608EF090608E76
:100E5500E0FFC394035065EF25E02485F582E43473
:100E650060F583E0FEA3E0FF90608CE0FCA3E0FD6D
:100E7500D3EF9DEE9C4010A3E0FD90608CEEF0A3B7
:100E8500EFF090608BEDF07BFF7A15794890608EDE
:100E9500E0FD906096E4F0A3EDF025E02485F58271
:100EA500E43460F583E0FFA3E0906098CFF0A3EF12
:100EB500F01200B990608EE004F0809190608BE0B4
:010EC500FF2D
:010EC6002209
:100EC70078857C607D017BFF7A1579957E007F06AA
:100ED700120483E490608BF0A3F0A3F0A3F0A3F0D7
:080EE7007A0AFBEBC39A507379
:100EEF00EAFF9060D8E02FFFE433CF24FFCF34FF29
:100EFF00FEEBFDC3EF9DFFEE9400FEEAFD7C0012BA
:100F0F0004D6AF05906090EDF0E024E3F582E43471
:0F0F1F0060F583E0906091F0E0FFC394035031E0
:100F2E00EB2401FCE433A3F0A3CCF0906092E0FC40
:100F3E00A3E0FDEF25E02485F582E43460F583EC33
:100F4E008DF012052B90608CE02DF090608BE03CC4
:010F5E00F0A2
:100F5F000B8088E4FBEB25E02485F582E43460F513
:100F6F0083E0FEA3E0FF90608EE0FCA3E0FDD3EFF3
:100F7F009DEE9C401DEB25E02485F582E43460F561
:100F8F0083E0FFA3E090608ECFF0A3EFF090608D31
:0C0F9F00EBF00BEBB403BE90608DE0FFA4
:010FAB002223
:01001C0022C1
:10186D009060CDE0FF1200219060CEE0FF0217D511
:10162500120DB2906083EFF0120EC7906084EFF058
:101635007BFF7A157963906083E0FF906096E4F014
:10164500A3EFF01200B97BFF7A157979906084E0F9
:0C165500FF906096E4F0A3EFF00200B9F3
:100B800042610D0000426111000042610F0000420D
:100B900061130000C10BC109C10CC10A41611500FC
:040BA0004161160099
:1015E60078C3E2440CF218E24403F278E2E2440CD7
:1015F600F278F2E24403F2907123E054D8F0E0442A
:101606001DF09071227407F043AA04D2AF786AE203
:0F161600447BF218E24458F27F017E0002184034
:1017F300EF14600D14600D14600D2403700BD20BF5
:0A18030022D20922D20C22D20A22BE
:10180D00EF14600D14600D14600D2403700BC20BEA
:0A181D0022C20922C20C22C20A22D4
:10176A00E4FEEF14600E14600F146010240370116D
:10177A00A20B800AA2098006A20C8002A20AE43304
:03178A00FEAF06A9
:01178D002239
:10166100E4FDFCC2AFEF14600F1460111460132489
:1016710003701790610D800D906111800890610FCA
:101681008003906113E0FCA3E0FDD2AFAE04AF058F
:011691002236
:10187D00EF24FE600704700775990522E4F599229F
:10188D00EF24FE6007047007759A1122759A1822CD
:10120300906115E06004E0B4040D7F0112187D9035
:1012130061157401F08033906115E0B4010B7869B6
:10122300E24401F27402F08021906115E0B4020AF5
:101233007F0212187D7403F08010906115E0B403EF
:10124300097869E24401F27404F0906116E06004E5
:10125300E0B4040C7F0112188D9061167401F02222
:10126300906116E0B4010A7869E24402F27402F074
:1012730022906116E0B402097F0212188D7403F004
:1012830022906116E0B403097869E24402F274041F
:02129300F02247
:03004200020FACFE
:100FAC00C0E0C0F0C083C082C0D075D000C000C00B
:030FBC0005C00766
:100FBF009060BBE4F0A3F0786BE230E153AF93EFB6
:100FCF0075F010A4FFE594C4540FFDEF4DFF906032
:100FDF00BBE5F0F0A3EFF0E24402F2906115E0B44C
:100FEF0002139060BBE0FFA3E090610DCFF0A3EF81
:100FFF00F0E4FF8018906115E0B404149060BBE03A
:10100F00FFA3E0906111CFF0A3EFF07F011217F370
:10101F00786BE230E253AF95EF75F010A4FFE596D1
:10102F00C4540FFDEF4DFF9060BBE5F0F0A3EFF060
:10103F00E24404F2906116E0B402139060BBE0FF4B
:10104F00A3E090610FCFF0A3EFF07F0280189061C3
:10105F0016E0B404149060BBE0FFA3E0906113CFDF
:09106F00F0A3EFF07F031217F368
:10107800D007D005D000D0D0D082D083D0F0D0E037
:011088003235
:080BA40045611C0102080A640E
:1013F10043A820D2AF75D10190611CE0FBE4FAF95A
:10140100F87F807EBBFDFC12057DEF24FFFFEE34EB
:10141100FFFEED34FFFDEC34FFFC780812060F7877
:1014210095EFF290611CE0FBE4FAF9F87F807EBB56
:10143100FDFC12057DEF24FFFF7894EFF2789174A3
:07144100A0F21874E1F22291
:03001E0002159B2D
:10159B00C0E0C0F0C083C082C0D075D000C000C016
:1015AB0001C002C003C004C005C006C0077891E2A9
:1015BB0030E70DE24480F212132112120312185875
:1015CB00D007D006D005D004D003D002D001D00074
:0B15DB00D0D0D082D083D0F0D0E0321E
:100BAC005060FD00000003E8FF1625000000006403
:030BBC00FF001D1A
:1014F400E4906083F0F0906083E0FFC39402504373
:10150400EF75F008A424FDF582E43460F583E0600F
:101514002A906083E075F008A424FDF582E4346029
:10152400F583E4F0EF75F008A42402F582E4346155
:10153400F583A3E0FAA3E0F9120622906083E004A5
:03154400F080B381
:011547002281
:10132100E4FFEF75F008A424FEF582E43460F58350
:10133100E475F00112052BEF75F008A42400F58285
:10134100E43461F583E0FCA3E0FDEF75F008A4242B
:10135100FEF582E43460F583E0FAA3E0C39DEA9CE4
:101361004023EF75F008A424FEF582E43460F58390
:10137100E4F0A3F0EF75F008A424FDF582E43460F5
:0A138100F5837401F00FEFB4029839
:01138B00223F
:01001D0022C0
:100C990078D2E2543FF2E24440F2907189740AF04A
:100CA90078C3E254CFF2E24410F29071847409F0EF
:100CB90078E3E2543FF2E24440F29071957408F00F
:100CC90078C2E254F3F2E24404F290717F7407F0BF
:100CD9007856E4F278277409F218745FF27833E4ED
:100CE900F218F27819E254FEF218E24401F278118E
:100CF900E24401F27817E24401F27812E24401F287
:100D09007814E24401F27857E4F278297409F21868
:100D1900745FF27837E4F218F27819E254FDF218A8
:100D2900E24402F27811E24402F27817E24402F254
:100D39007812E24402F27814E24402F27858E4F2BA
:100D4900782B7409F218745FF2783BE4F218F278A0
:100D590019E254FBF218E24404F27811E24404F275
:100D69007817E24404F27812E24404F27814E24477
:100D790004F27859E4F2782D7409F218745FF27864
:100D89003FE4F218F27819E254F7F218E24408F253
:100D99007811E24408F27817E24408F27812E24442
:090DA90008F27814E24408F22279
:10189D00AC06EC7833F218EFF27817E24401F2223D
:1018AD00AC06EC7837F218EFF27817E24402F22228
:1018BD00AC06EC783BF218EFF27817E24404F22212
:1018CD00AC06EC783FF218EFF27817E24408F222FA
:080BBF00416124FF416125FFA3
:1018270078D0E24440F278D3E254CFF278C0E24471
:0918370004F278C2E254CFF2225F
:10144800A296E433906126F0906124E0FF90612633
:10145800E06F6041906124E0F4602D906126E060C7
:101468002C9060CD7401F09060CFF0A3742CF0E460
:10147800FFFE12189DE4FFFE1218AD9060D57401AE
:10148800F0E49060D3F08005E49060CDF0906126A0
:05149800E0906124F06A
:01149D00222C
:10149E00A282E433906127F0906125E0FF906127EE
:1014AE00E06F6041906125E0F4602D906127E0606F
:1014BE002C9060CE7401F09060D1F0A3742CF0E407
:1014CE00FFFE1218BDE4FFFE1218CD9060D6740117
:1014DE00F0E49060D4F08005E49060CEF090612747
:0514EE00E0906125F013
:0114F30022D6
:100BC70060836000000000000000000000000000DB
:100BD700000000000000000000000000000000000E
:100BE70000000000000000000000000000000000FE
:100BF70000000000000000000000000000000000EE
:100C070000000000000000000000000000000000DD
:100C170000000000000000000000000000000000CD
:100C270000000000000000000000000000000000BD
:100C370000000000000000000000000000000000AD
:070C470000000000000000A6
:0818F300E5D430E4FB8FD7229D
:1017190078E3E254CFF2E24410F29071947404F049
:1017290078D3E254FCF2907175740DF075D6017599
:0B173900D59F75D21143AA20D2AF2229
:0D000F00E5D430E4FB8FD7E5D430E4FB22CC
:0B169200906121EBF0A3EAF0A3E9F067
:10169D00E4FEEEC39D501A906121E0FBA3E0FAA396
:1016AD00E0F98E827583001204A9FF12000F0E80DF
:0116BD00E14B
:0116BE002209
:06004500906082E0FF2242
:1017B200906082E07002FF22906081E004547FF02A
:1017C200E02400F582E43460F583E0FF906082E07B
:0217D20014F011
:0117D40022F2
:10178E00906080E004547FF0E02400F582E4346041
:10179E00F583EFF0906082E004F0E0D39480400394
:0417AE007480F02231
:03004B0002174455
:10174400C0E0C083C082C0D075D000C005C007E52A
:10175400D430E505AFD712178ED007D005D0D0D03E
:0617640082D083D0E032C8
:100C4E004160CD004160CE004260CF00004260D1D5
:100C5E0000004160D5004160D6004160D300416084
:100C6E00D4004260BD00004260BF00004260C1007F
:100C7E00004260C300004260C500004260C7000031
:0A0C8E004260C900004260CB000084
:1016BF00EF64016004EFB402239060CDEFF0E4908B
:1016CF0060D3F09060D504F09060CFF0A3742CF04D
:0D16DF00E4FFFE12189DE4FFFE1218AD227C
:1016EC00EF64016004EFB402239060CEEFF0E4905D
:1016FC0060D4F09060D604F09060D1F0A3742CF01C
:0D170C00E4FFFE1218BDE4FFFE1218CD220E
:10089200D39060D0E094009060CFE09400400EA32B
:1008A200E024FFF09060CFE034FFF080429060D50A
:1008B200E0603CE4F09060CDE0B4010C7FF87E078C
:1008C20012189DE4FFFE80119060CDE0B40220E496
:1008D200FFFE12189D7FF87E071218ADE49060BDEE
:1008E200F0A3F09060D304F0E49060BFF0A3F0E4D2
:1008F200FF12176AEF6012E4FF12180DE4FF1216DE
:10090200619060C3EEF0A3EFF07F0112176AEF600F
:10091200127F0112180D7F011216619060C1EEF074
:10092200A3EFF09060D3E070030209DAD39060C4C1
:10093200E094799060C3E0940640369060C0E00491
:10094200F070069060BFE004F0D39060C0E094C8FD
:100952009060BFE0940040199060CD7402F0906006
:10096200CF14F0A3742CF0E49060D3F09060D5041F
:10097200F0D39060C2E094799060C1E09406402286
:100982009060C0E004F070069060BFE004F0D39085
:1009920060C0E094C89060BFE094004005E49060BD
:1009A200CDF0C39060BEE094C49060BDE094095065
:1009B2000EA3E004F070219060BDE004F080199075
:1009C20060CD7402F09060CF14F0A3742CF0E49028
:1009D20060D3F09060D504F09060CDE0700F90602D
:0D09E200D3F0FFFE12189DE4FFFE1218ADC9
:0109EF0022E5
:1009F000D39060D2E094009060D1E09400400EA3C8
:100A0000E024FFF09060D1E034FFF080429060D6A7
:100A1000E0603CE4F09060CEE0B4010C7FF87E072B
:100A20001218BDE4FFFE80119060CEE0B40220E415
:100A3000FFFE1218BD7FF87E071218CDE49060C942
:100A4000F0A3F09060D404F0E49060CBF0A3F07FCA
:100A50000212176AEF60127F0212180D7F0212163F
:100A6000619060C7EEF0A3EFF07F0312176AEF60AA
:100A7000127F0312180D7F031216619060C5EEF00D
:100A8000A3EFF09060D4E07003020B38D39060C8FD
:100A9000E094799060C7E0940640369060CCE00422
:100AA000F070069060CBE004F0D39060CCE094C886
:100AB0009060CBE0940040199060CE7402F090609A
:100AC000D114F0A3742CF0E49060D4F09060D604BC
:100AD000F0D39060C6E094799060C5E0940640221F
:100AE0009060CCE004F070069060CBE004F0D3900E
:100AF00060CCE094C89060CBE094004005E4906046
:100B0000CEF0C39060CAE094C49060C9E0940950EC
:100B10000EA3E004F070219060C9E004F080199009
:100B200060CE7402F09060D114F0A3742CF0E490C5
:100B300060D4F09060D604F09060CEE0700F9060CA
:0D0B4000D4F0FFFE1218BDE4FFFE1218CD28
:010B4D002285
:1012A10002138CE493A3F8E493A34003F68001F2C4
:1012B10008DFF48029E493A3F85407240CC8C3334E
:1012C100C4540F4420C8834004F456800146F6DF1D
:1012D100E4800B0102040810204080900B4EE47E54
:1012E100019360BCA3FF543F30E509541FFEE49312
:1012F100A360010ECF54C025E060A840B8E493A3D9
:10130100FAE493A3F8E493A3C8C582C8CAC583CA03
:10131100F0A3C8C582C8CAC583CADFE9DEE780BEBB
:010C9800005B
:1003B300E709F608DFFA8046E709F208DFFA803E2C
:1003C30088828C83E709F0A3DFFA8032E309F60819
:1003D300DFFA8078E309F208DFFA807088828C8381
:1003E300E309F0A3DFFA806489828A83E0A3F60835
:1003F300DFFA805889828A83E0A3F208DFFA804C0F
:1004030080D280FA80C680D4806980F280338010E5
:1004130080A680EA809A80A880DA80E280CA80334E
:1004230089828A83ECFAE493A3C8C582C8CCC583C6
:10043300CCF0A3C8C582C8CCC583CCDFE9DEE78096
:100443000D89828A83E493A3F608DFF9ECFAA9F015
:10045300EDFB2289828A83ECFAE0A3C8C582C8CC6B
:10046300C583CCF0A3C8C582C8CCC583CCDFEADE84
:10047300E880DB89828A83E493A3F208DFF980CCE6
:1004830088F0EF60010E4E60C388F0ED2402B404DF
:100493000050B9F582EB2402B4040050AF23234586
:0604A300822390040373A4
:1004A900BB010CE58229F582E5833AF583E0225008
:1004B90006E92582F8E622BBFE06E92582F8E22252
:0D04C900E58229F582E5833AF583E493226C
:1004D600BC000BBE0029EF8DF084FFADF022E4CC0A
:1004E600F875F008EF2FFFEE33FEEC33FCEE9DECD3
:1004F600984005FCEE9DFE0FD5F0E9E4CEFD22ED19
:10050600F8F5F0EE8420D21CFEADF075F008EF2F62
:10051600FFED33FD4007985006D5F0F222C398FD53
:050526000FD5F0EA22F0
:10052B00C5F0F8A3E028F0C5F0F8E582158270025B
:06053B001583E038F022F8
:1005410075F008758200EF2FFFEE33FECD33CDCC71
:1005510033CCC58233C5829BED9AEC99E5829840F4
:100561000CF582EE9BFEED9AFDEC99FC0FD5F0D6D1
:10057100E4CEFBE4CDFAE4CCF9A88222B800C1B9FB
:100581000059BA002DEC8BF084CFCECDFCE5F0CB39
:10059100F97818EF2FFFEE33FEED33FDEC33FCEB72
:1005A10033FB10D703994004EB99FB0FD8E5E4F92D
:1005B100FA227818EF2FFFEE33FEED33FDEC33FC1A
:1005C100C933C910D7059BE99A4007EC9BFCE99A0E
:1005D100F90FD8E0E4C9FAE4CCFB2275F010EF2F53
:1005E100FFEE33FEED33FDCC33CCC833C810D70753
:1005F1009BEC9AE899400AED9BFDEC9AFCE899F88E
:0E0601000FD5F0DAE4CDFBE4CCFAE4C8F92220
:10060F00E8600FECC313FCED13FDEE13FEEF13FFC9
:03061F00D8F122ED
:060622008A838982E47363
:10004E00E5082496F582E43460F583E005082290F5
:10005E006093300703906096E475F0011206530228
:10006E0006282000E97F2ED2008018EF540F24902E
:10007E00D43440D4FF30040BEF24BFB41A00500325
:10008E002461FFE50960021509050CE50C700205F7
:10009E000B30070E906093E475F001120653EF02D9
:1000AE0006410218F37403D2078003E4C207F50871
:1000BE0090609312066AE4F509F50BF50CE50960FC
:1000CE00077F2012009180F5750AFFC201C200C29F
:1000DE0002C203C205C206C20812005DFF700D30D7
:1000EE0007057F001200A2AF0CAE0B22B4255FC233
:1000FE00D5C20412005DFF24D0B40A00501A75F068
:10010E000A780930D50508B6FF0106C6A426F620E2
:10011E00D5047002D20380D924CFB41A00EF500454
:10012E00C2E5D2040202A3D20180C6D20080C0D2A0
:10013E000280BCD2D580BAD20580B47F2012009145
:10014E002002077401B5090040F112004EFF1200A3
:10015E00910200CBD208D206809512004EFB1200FF
:10016E004EFA12004EF94A4B700679747A037BFFF1
:10017E0020022EE509602A7E008E8275830012040D
:10018E00A960060EEE650A70F0C2D5EBC0E0EAC0BB
:10019E00E0E9C0E0EE1202EAD0E0F9D0E0FAD0E0F9
:1001AE00FB120628FF60AAEBC0E0EAC0E0E9C0E05F
:1001BE00120091D0E02401F9D0E03400FAD0E0FB37
:1001CE00E50A0460DCD50AD980877BFF7A0279E6DE
:1001DE00D202809C791080027908C206C20880087B
:1001EE00D2D5790A8004790AC2D5E50A047002F5DF
:1001FE000AE4FAFDFEFF12004EFC7B0820011312EA
:10020E00004EFD7B1030000A12004EFE12004EFF13
:10021E007B20EC3382D592D55013C3E43000069F79
:10022E00FFE49EFEE42001039DFDE49CFCE4CBF87C
:10023E00C201EC700CCFCECDCCE824F8F870F38070
:10024E0017C3EF33FFEE33FEED33FDEC33FCEB3330
:10025E00FB994002FB0FD8E9EB300105F8D0E0C462
:10026E0048B201C0E00AEC4D4E4F78207B0070C2C0
:10027E00EAB50A0040BCC0E01202ECD0F0D0E0209B
:10028E000104C4C0E0C4B201C0F012007AD0F0D5AF
:10029E00F0EB0200CB12067301685301E2580139EC
:1002AE004C01354201E64F01EE4401EE49014E4349
:0802BE0001F45501D84601D8F6
:1002C6004501D847039450013D2D01412E01642B71
:1002D600014523016220037D2A00FD480000015CE0
:1002E6003F3F3F00790AA2D5200314300509B91013
:1002F600020404B9080104A2D52006025001042014
:1003060002689202B509005034C0E07F203003191C
:100316007F30A20272067205500F120343C202C258
:1003260006C205C2087F30800F300503E9C0E0121F
:100336000091300503D0E0F9D0E0B509CC300517BF
:100346007F30B9100C1200917F583004077F7880F7
:1003560003B908031200913002057F2D0200917F38
:10036600202008F87F2B2006F322920280CF286EE9
:10037600756C6C2900D20112004E3001F8C201786A
:100386000930D50108F60200FD2D504349581200E8
:100396004E2403B405004001E490038F93120082BB
:0D03A600743A120082D2037509040201E2CC
:10062800BB010689828A83E0225002E722BBFE02D0
:09063800E32289828A83E4932203
:10064100BB010689828A83F0225002F722BBFE0198
:02065100F32292
:10065300F8E0FBA3A3E0F925F0F0E5821582700230
:070663001583E0FA38F022D4
:09066A00EBF0A3EAF0A3E9F02291
:10067300D083D082F8E4937012740193700DA3A316
:1006830093F8740193F5828883E47374029368602A
:06069300EFA3A3A380DF2A
:00000001FF
