:03000000020F7478
:0C0F7400787FE4F6D8FD758121020FBBE8
:0C000300000000000000000000000000F1
:0B14B500EF1FAC0670011E4C70F62209
:10141B00AB07AA06EB1BAE0270011A4E60097FAA3E
:08142B007E051214B580ED22CC
:100D6800907120E04480F07F057E001214B5E4FF06
:100D7800FE12141B75A75575AC589071327450F05B
:100D88009071307403F0907136742FF07F18EF244F
:100D980066FDE434718D82F583E4F00FEFB433EE31
:100DA800904011E4935407FF90711CE054F84FF001
:100DB800904017E493547FFF90711DE054804FF0EA
:100DC800904010E493FF5401C43333335480FE90B1
:100DD8007123E0547F4EF0EFC313543F4440FFA308
:100DE800E054804FF0904012E493FF540FFE90714E
:100DF80046E054F04EF0EFC4540FFF90714FE054AA
:100E0800F04FF0904013E493543FFF907140E0544A
:100E1800C04FF0904014E493907126F0904015E490
:0E0E280093907128F0904016E49390712AF098
:010E36002299
:0B14C0007379732072657365740A0075
:0807470045611B0102080A6470
:10128100120D6875D95590715EE054FEF075D9BBA9
:10129100121312120B7212120A12140212106B7B29
:1012A100FF7A1479C01200B975D9AA12116E12030E
:0312B100B380F512
:100E37003D3D3D3D3D3D3D3D3D3D3D3D3D3D3D3DDB
:100E47003D3D3D3D3D3D3D3D3D3D3D3D3D3D3D3DCB
:100E57003D3E0A007561727420726563762074697D
:100E67006D656F75740A0025303278003D3D3D3D54
:100E77003D3D3D3D3D3D3D3D3D3D3D3D3D3D3D3D9B
:100E87003D3D3D3D3D3D3D3D3D3D3D3D3D5E0A00DA
:100E9700636865636B2073756D206572726F720A84
:100EA70000636865636B2073756D206F6B0A003094
:100EB700782530327820000A006D6F746F72203009
:100EC70020666F72776172640A006D6F746F7220AB
:0B0ED7003020726576657273650A00BA
:10074F004A61050000000000000000000041610246
:10075F00004161100041610F0042610300004161DF
:02076F00010087
:1014330090610FE0600E906104E0240AF090610374
:05144300E03400F0227E
:1003B300E49060B3F0120045EF706DC3906104E008
:1003C30094D0906103E0940750030205ABE4F0A3DB
:1003D300F090610FF0906101F07BFF7A0E79371294
:1003E30000B97BFF7A0E795B1200B9E49060B4F038
:1003F3009060B4E0FFC3940A50257BFF7A0E796EB8
:1004030074052FF582E43461F583E0FF9060B8E46E
:10041300F0A3EFF01200B99060B4E004F080D17B58
:10042300FF7A0E79730200B990610F7401F0E490C2
:100433006103F0A3F01213AB906101E014601F1489
:10044300603C2402600302050AEF64A56003020511
:100453000A906105EFF090610274010204F6906165
:1004630002E0FE04F074052EF582E43461F583EFB7
:10047300F0906110F09061017402F002050A90613E
:1004830002E0FE04F074052EF582E43461F583EF97
:10049300F0906110E0FF906102E0C39F4069E49037
:1004A30060B4F0906110E014FF9060B4E0FEC39F6D
:1004B300501874052EF582E43461F583E0FF9060F3
:1004C300B3E02FF0A3E004F080D9906110E024049E
:1004D300F582E43461F583E0FF9060B3E06F7BFF66
:1004E30060187A0E79971200B9E4906103F0A3F0D3
:1004F30090610FF0906101F0800D7A0E79A81200DF
:10050300B99061017403F0906101E0640360030238
:1005130005AB9060B4F0906110E0FF9060B4E0FE32
:10052300C39F50257BFF7A0E79B674052EF582E4BE
:100533003461F583E0FF9060B8E4F0A3EFF01200BC
:10054300B99060B4E004F080CD7BFF7A0E79BE12DF
:1005530000B9906107E024FE602B04703C906108B1
:10056300E024FE60100470317F011212497BFF7A90
:100573000E79C0800B7F021212497BFF7A0E79D16C
:100583001200B98014906108E024FE60070470092A
:100593007F0180027F02120021E4906103F0A3F047
:0805A30090610FF0906101F07E
:0105AB00222D
:100771004261110000426115000042611300004214
:1007810061170000C10BC109C10CC10A4161190007
:0407910041611A00A8
:10120A0078C3E2440CF218E24403F278E2E2440CB6
:10121A00F278F2E24403F2907123E054D8F0E04409
:10122A001DF09071227407F043AA04D2AF786AE2E3
:0F123A00447BF218E24458F27F017E0002141B3D
:1013CE00EF14600D14600D14600D2403700BD20B1E
:0A13DE0022D20922D20C22D20A22E8
:1013E800EF14600D14600D14600D2403700BC20B14
:0A13F80022C20922C20C22C20A22FE
:10136300E4FEEF14600E14600F1460102403701178
:10137300A20B800AA2098006A20C8002A20AE4330F
:03138300FEAF06B4
:011386002244
:1012B400E4FDFCC2AFEF14600F146011146013243A
:1012C400037017906111800D90611580089061136F
:1012D4008003906117E0FCA3E0FDD2AFAE04AF053C
:0112E40022E7
:10144800EF24FE600704700775990522E4F59922D8
:10145800EF24FE6007047007759A1122759A182206
:100EE200906119E06004E0B4040D7F01121448908F
:100EF20061197401F08033906119E0B4010B7869D3
:100F0200E24401F27402F08021906119E0B4020A15
:100F12007F021214487403F08010906119E0B40348
:100F2200097869E24401F27404F090611AE0600405
:100F3200E0B4040C7F0112145890611A7401F0227B
:100F420090611AE0B4010A7869E24402F27402F094
:100F52002290611AE0B402097F021214587403F05D
:100F62002290611AE0B403097869E24402F274043F
:020F7200F0226B
:03004200020C8B22
:100C8B00C0E0C0F0C083C082C0D075D000C000C02F
:030C9B0005C0078A
:100C9E009060DDE4F0A3F0786BE230E153AF93EFB8
:100CAE0075F010A4FFE594C4540FFDEF4DFF906056
:100CBE00DDE5F0F0A3EFF0E24402F2906119E0B44A
:100CCE0002139060DDE0FFA3E0906111CFF0A3EF7F
:100CDE00F0E4FF8018906119E0B404149060DDE038
:100CEE00FFA3E0906115CFF0A3EFF07F011213CEBA
:100CFE00786BE230E253AF95EF75F010A4FFE596F6
:100D0E00C4540FFDEF4DFF9060DDE5F0F0A3EFF062
:100D1E00E24404F290611AE0B402139060DDE0FF49
:100D2E00A3E0906113CFF0A3EFF07F0280189061E3
:100D3E001AE0B404149060DDE0FFA3E0906117CFD9
:090D4E00F0A3EFF07F031213CEB5
:100D5700D007D005D000D0D0D082D083D0F0D0E05B
:010D67003259
:080795004561200102080A641D
:10106B0043A820D2AF75D101906120E0FBE4FAF9DF
:10107B00F87F807EBBFDFC12062BEF24FFFFEE34C6
:10108B00FFFEED34FFFDEC34FFFC78081206BD7853
:10109B0095EFF2906120E0FBE4FAF9F87F807EBBDC
:1010AB00FDFC12062BEF24FFFF7894EFF27891747E
:0710BB00A0F21874E1F2221B
:03001E000211C20A
:1011C200C0E0C0F0C083C082C0D075D000C000C0F3
:1011D20001C002C003C004C005C006C0077891E286
:1011E20030E70AE24480F2121000121433D007D022
:1011F20006D005D004D003D002D001D000D0D0D088
:0812020082D083D0F0D0E0326D
:10079D00603060830000000001FF08B6000000001B
:1007AD0001FF0A140000000005FF10C20000000048
:1007BD0005FF11180000000001FF0EE2000000000F
:0407CD0064FF003E87
:10116E00E49060B3F0F09060B3E0FFC39406504398
:10117E00EF75F008A42483F582E43460F583E06013
:10118E002A9060B3E075F008A42483F582E43460FD
:10119E00F583E4F0EF75F008A42488F582E434605A
:1011AE00F583A3E0FAA3E0F91206D09060B3E00451
:0311BE00F080B30B
:0111C100220B
:10100000E4FFEF75F008A42484F582E43460F583EE
:10101000E475F0011205D9EF75F008A42486F58275
:10102000E43460F583E0FCA3E0FDEF75F008A42450
:1010300084F582E43460F583E0FAA3E0C39DEA9C82
:101040004023EF75F008A42484F582E43460F5832E
:10105000E4F0A3F0EF75F008A42483F582E4346093
:0A106000F5837401F00FEFB4069859
:01106A002263
:01003E00229F
:100B720078D2E2543FF2E24440F2907189740AF072
:100B820078C3E254CFF2E24410F29071847409F017
:100B920078E3E2543FF2E24440F29071957408F037
:100BA20078C2E254F3F2E24404F290717F7407F0E7
:100BB2007856E4F278277409F218745FF27833E415
:100BC200F218F27819E254FEF218E24401F27811B6
:100BD200E24401F27817E24401F27812E24401F2AF
:100BE2007814E24401F27857E4F278297409F21891
:100BF200745FF27837E4F218F27819E254FDF218D1
:100C0200E24402F27811E24402F27817E24402F27C
:100C12007812E24402F27814E24402F27858E4F2E2
:100C2200782B7409F218745FF2783BE4F218F278C8
:100C320019E254FBF218E24404F27811E24404F29D
:100C42007817E24404F27812E24404F27814E2449F
:100C520004F27859E4F2782D7409F218745FF2788C
:100C62003FE4F218F27819E254F7F218E24408F27B
:100C72007811E24408F27817E24408F27812E2446A
:090C820008F27814E24408F222A1
:10146800AC06EC7833F218EFF27817E24401F22276
:10147800AC06EC7837F218EFF27817E24402F22261
:10148800AC06EC783BF218EFF27817E24404F2224B
:10149800AC06EC783FF218EFF27817E24408F22233
:0807D100416128FF416129FF8D
:1014020078D0E24440F278D3E254CFF278C0E2449A
:0914120004F278C2E254CFF22288
:1010C200A296E4339060B3F0906128E0FF9060B3A1
:1010D200E06F6041906128E0F4602D9060B3E060C1
:1010E2002C9060F77401F09060F9F0A3742CF0E496
:1010F200FFFE121468E4FFFE1214789060FF740180
:10110200F0E49060FDF08005E49060F7F09060B349
:05111200E0906128F0EF
:0111170022B5
:10111800A282E4339060B3F0906129E0FF9060B35D
:10112800E06F6041906129E0F4602D9060B3E06069
:101138002C9060F87401F09060FBF0A3742CF0E43C
:10114800FFFE121488E4FFFE1214989061007401E7
:10115800F0E49060FEF08005E49060F8F09060B3F1
:05116800E0906129F098
:01116D00225F
:1007D90060836000000000000000000000000000CD
:1007E9000000000000000000000000000000000000
:1007F90000000000000000000000000000000000F0
:1008090000000000000000000000000000000000DF
:1008190000000000000000000000000000000000CF
:1008290000000000000000000000000000000000BF
:1008390000000000000000000000000000000000AF
:10084900000000000000000000000000000000009F
:070859000000000000000098
:0814CB00E5D430E4FB8FD722C9
:1013120078E3E254CFF2E24410F29071947404F054
:1013220078D3E254FCF2907175740DF075D60175A4
:0B133200D59F75D21143AA20D2AF2234
:0D14A800E5D430E4FB8FD7E5D430E4FB221F
:0B12E500906125EBF0A3EAF0A3E9F014
:1012F000E4FEEEC39D501A906125E0FBA3E0FAA343
:10130000E0F98E827583001205ACFF1214A80E80DE
:01131000E1FB
:0113110022B9
:06004500906082E0FF2242
:1013AB00906082E07002FF22906081E004547FF035
:1013BB00E02400F582E43460F583E0FF906082E086
:0213CB0014F01C
:0113CD0022FD
:10138700906080E004547FF0E02400F582E434604C
:10139700F583EFF0906082E004F0E0D3948040039F
:0413A7007480F0223C
:0E000F00120045EF60081213AB90612AEFF06B
:01001D0022C0
:03004B0002133D60
:10133D00C0E0C083C082C0D075D000C005C007E535
:10134D00D430E505AFD7121387D007D005D0D0D054
:06135D0082D083D0E032D3
:100860004160F7004160F8004260F900004260FB1F
:1008700000004160FF00416100004160FD004160F7
:10088000FE004860EF00000000000000004260DF52
:1008900000004260E100004260E300004260E500C9
:1008A000004260E700004260E900004260EB0000A7
:0508B0004260ED0000B4
:10124900EFB4010D9060EFE06407602BE064096082
:1012590026EFB4020D9060EFE06408601AE0640ABA
:1012690060159060EFEFF09060F47401F0A3742CB6
:08127900F09060F67401F02210
:10002100EF64016004EFB402139060F8EFF09061A7
:0D003100007401F09060FBF0A3742CF0222D
:1008B600D39060FAE094009060F9E09400400EA3B3
:1008C600E024FFF09060F9E034FFF080429060FF92
:1008D600E0603CE4F09060F7E0B4010C7FF87E073E
:1008E600121468E4FFFE80119060F7E0B40220E481
:1008F600FFFE1214687FF87E07121478E49060DF1A
:10090600F0A3F09060FD04F0E49060E1F0A3F0E461
:10091600FF121363EF6012E4FF1213E8E4FF1212F2
:10092600B49060E5EEF0A3EFF07F01121363EF6081
:10093600127F011213E87F011212B49060E3EEF009
:10094600A3EFF09060FDE070030209FED39060E62D
:10095600E094799060E5E0940640369060E2E00429
:10096600F070069060E1E004F0D39060E2E094C895
:100976009060E1E0940040199060F77402F0906096
:10098600F914F0A3742CF0E49060FDF09060FF047D
:10099600F0D39060E4E094799060E3E0940640221E
:1009A6009060E2E004F070069060E1E004F0D3901D
:1009B60060E2E094C89060E1E094004005E4906055
:1009C600F7F0C39060E0E094C49060DFE0940950D3
:1009D6000EA3E004F070219060DFE004F08019902F
:1009E60060F77402F09060F914F0A3742CF0E490B0
:1009F60060FDF09060FF04F09060F7E0700F90608B
:0D0A0600FDF0FFFE121468E4FFFE121478EC
:010A130022C0
:100A1400D39060FCE094009060FBE09400400EA34F
:100A2400E024FFF09060FBE034FFF080429061002E
:100A3400E0603CE4F09060F8E0B4010C7FF87E07DD
:100A4400121488E4FFFE80119060F8E0B40220E400
:100A5400FFFE1214887FF87E07121498E49060EB6E
:100A6400F0A3F09060FE04F0E49060EDF0A3F07F5A
:100A740002121363EF60127F021213E87F02121254
:100A8400B49060E9EEF0A3EFF07F03121363EF601C
:100A9400127F031213E87F031212B49060E7EEF0A2
:100AA400A3EFF09060FEE07003020B5CD39060EA69
:100AB400E094799060E9E0940640369060EEE004BA
:100AC400F070069060EDE004F0D39060EEE094C81E
:100AD4009060EDE0940040199060F87402F090602A
:100AE400FB14F0A3742CF0E49060FEF09061000419
:100AF400F0D39060E8E094799060E7E094064022B7
:100B04009060EEE004F070069060EDE004F0D390A5
:100B140060EEE094C89060EDE094004005E49060DD
:100B2400F8F0C39060ECE094C49060EBE09409505A
:100B34000EA3E004F070219060EBE004F0801990C3
:100B440060F87402F09060FB14F0A3742CF0E4904D
:100B540060FEF090610004F09060F8E0700F906027
:0D0B6400FEF0FFFE121488E4FFFE1214984C
:010B71002261
:100F8000021281E493A3F8E493A34003F68001F2F4
:100F900008DFF48029E493A3F85407240CC8C33372
:100FA000C4540F4420C8834004F456800146F6DF41
:100FB000E4800B0102040810204080900747E47E83
:100FC000019360BCA3FF543F30E509541FFEE49336
:100FD000A360010ECF54C025E060A840B8E493A3FD
:100FE000FAE493A3F8E493A3C8C582C8CAC583CA28
:100FF000F0A3C8C582C8CAC583CADFE9DEE780BEE0
:0108B5000042
:1005AC00BB010CE58229F582E5833AF583E0225004
:1005BC0006E92582F8E622BBFE06E92582F8E2224E
:0D05CC00E58229F582E5833AF583E4932268
:1005D900C5F0F8A3E028F0C5F0F8E58215827002AD
:0605E9001583E038F0224A
:1005EF0075F008758200EF2FFFEE33FECD33CDCCC3
:1005FF0033CCC58233C5829BED9AEC99E582984046
:10060F000CF582EE9BFEED9AFDEC99FC0FD5F0D622
:10061F00E4CEFBE4CDFAE4CCF9A88222B800C1B94C
:10062F000059BA002DEC8BF084CFCECDFCE5F0CB8A
:10063F00F97818EF2FFFEE33FEED33FDEC33FCEBC3
:10064F0033FB10D703994004EB99FB0FD8E5E4F97E
:10065F00FA227818EF2FFFEE33FEED33FDEC33FC6B
:10066F00C933C910D7059BE99A4007EC9BFCE99A5F
:10067F00F90FD8E0E4C9FAE4CCFB2275F010EF2FA4
:10068F00FFEE33FEED33FDCC33CCC833C810D707A4
:10069F009BEC9AE899400AED9BFDEC9AFCE899F8DF
:0E06AF000FD5F0DAE4CDFBE4CCFAE4C8F92272
:1006BD00E8600FECC313FCED13FDEE13FEEF13FF1B
:0306CD00D8F1223F
:0606D0008A838982E473B5
:10004E00E50824B8F582E43460F583E005082290D3
:10005E0060B53007039060B8E475F0011207010235
:10006E0006D62000E97F2ED2008018EF540F249080
:10007E00D43440D4FF30040BEF24BFB41A00500325
:10008E002461FFE50960021509050CE50C700205F7
:10009E000B30070E9060B5E475F001120701EF0208
:1000AE0006EF0214CB7403D2078003E4C207F508EF
:1000BE009060B5120718E4F509F50BF50CE509602B
:1000CE00077F2012009180F5750AFFC201C200C29F
:1000DE0002C203C205C206C20812005DFF700D30D7
:1000EE0007057F001200A2AF0CAE0B22B4255FC233
:1000FE00D5C20412005DFF24D0B40A00501A75F068
:10010E000A780930D50508B6FF0106C6A426F620E2
:10011E00D5047002D20380D924CFB41A00EF500454
:10012E00C2E5D2040202A3D20180C6D20080C0D2A0
:10013E000280BCD2D580BAD20580B47F2012009145
:10014E002002077401B5090040F112004EFF1200A3
:10015E00910200CBD208D206809512004EFB1200FF
:10016E004EFA12004EF94A4B700679747A037BFFF1
:10017E0020022EE509602A7E008E8275830012050C
:10018E00AC60060EEE650A70F0C2D5EBC0E0EAC0B8
:10019E00E0E9C0E0EE1202EAD0E0F9D0E0FAD0E0F9
:1001AE00FB1206D6FF60AAEBC0E0EAC0E0E9C0E0B1
:1001BE00120091D0E02401F9D0E03400FAD0E0FB37
:1001CE00E50A0460DCD50AD980877BFF7A0279E6DE
:1001DE00D202809C791080027908C206C20880087B
:1001EE00D2D5790A8004790AC2D5E50A047002F5DF
:1001FE000AE4FAFDFEFF12004EFC7B0820011312EA
:10020E00004EFD7B1030000A12004EFE12004EFF13
:10021E007B20EC3382D592D55013C3E43000069F79
:10022E00FFE49EFEE42001039DFDE49CFCE4CBF87C
:10023E00C201EC700CCFCECDCCE824F8F870F38070
:10024E0017C3EF33FFEE33FEED33FDEC33FCEB3330
:10025E00FB994002FB0FD8E9EB300105F8D0E0C462
:10026E0048B201C0E00AEC4D4E4F78207B0070C2C0
:10027E00EAB50A0040BCC0E01202ECD0F0D0E0209B
:10028E000104C4C0E0C4B201C0F012007AD0F0D5AF
:10029E00F0EB0200CB12072101685301E25801393D
:1002AE004C01354201E64F01EE4401EE49014E4349
:0802BE0001F45501D84601D8F6
:1002C6004501D847039450013D2D01412E01642B71
:1002D600014523016220037D2A00FD480000015CE0
:1002E6003F3F3F00790AA2D5200314300509B91013
:1002F600020404B9080104A2D52006025001042014
:1003060002689202B509005034C0E07F203003191C
:100316007F30A20272067205500F120343C202C258
:1003260006C205C2087F30800F300503E9C0E0121F
:100336000091300503D0E0F9D0E0B509CC300517BF
:100346007F30B9100C1200917F583004077F7880F7
:1003560003B908031200913002057F2D0200917F38
:10036600202008F87F2B2006F322920280CF286EE9
:10037600756C6C2900D20112004E3001F8C201786A
:100386000930D50108F60200FD2D504349581200E8
:100396004E2403B405004001E490038F93120082BB
:0D03A600743A120082D2037509040201E2CC
:1006D600BB010689828A83E0225002E722BBFE0222
:0906E600E32289828A83E4932255
:1006EF00BB010689828A83F0225002F722BBFE01EA
:0206FF00F322E4
:10070100F8E0FBA3A3E0F925F0F0E5821582700281
:070711001583E0FA38F02225
:09071800EBF0A3EAF0A3E9F022E2
:10072100D083D082F8E4937012740193700DA3A367
:1007310093F8740193F5828883E47374029368607B
:06074100EFA3A3A380DF7B
:00000001FF
