:03000000020A35BC
:0C0A3500787FE4F6D8FD758121020A7C70
:0C000300000000000000000000000000F1
:08097E004560810102080A64D2
:0B0D8900EF1FAC0670011E4C70F6223C
:100D3400AB07AA06EB1BAE0270011A4E60097FAA2C
:080D44007E05120D8980ED22ED
:1008A200907120E04480F07F057E00120D89E4FF04
:1008B200FE120D3475A75575AC589071327450F014
:1008C2009071307403F0907136742FF07F18EF241A
:1008D20066FDE434718D82F583E4F00FEFB433EEFC
:1008E200904011E4935407FF90711CE054F84FF0CC
:1008F200904017E493547FFF90711DE054804FF0B5
:10090200904010E493FF5401C43333335480FE907B
:100912007123E0547F4EF0EFC313543F4440FFA3D2
:10092200E054804FF0904012E493FF540FFE907118
:1009320046E054F04EF0EFC4540FFF90714FE05474
:10094200F04FF0904013E493543FFF907140E05415
:10095200C04FF0904014E493907126F0904015E45B
:1009620093907128F0904016E49390712AF075D913
:0B0972005590715EE054FEF0E4F5D9F2
:01097D002257
:080986004560860102080A64C5
:100D4C001208A2120B401206C575D9AA120B978075
:010D5C00F89E
:08098E0045608B0102080A64B8
:080D9400E5F430E4FB8FF722C7
:0D000F00E5F430E4FB8FF7E5F430E4FB226C
:100D1500E4906098F078F2E254FCF2E24401F2903B
:0E0D250071967403F075F60175F59F75F21066
:010D3300229D
:100C7500906095EBF0A3EAF0A3E9F0906095E0FBB6
:100C8500A3E0FAA3E0F91203866017906095A3E448
:100C950075F0011203B5A9F0FA120386FF12000FD1
:030CA50080D922D1
:0C0D7D00613D25642C00763D25642C00AF
:100996004560290102080A64602060030000000027
:1009A6000000000000000000000000000000000041
:1009B600000000000000000000000000416002008E
:1009C60044602300000000426027000042600000EF
:0109D6000020
:100CA80078C3E2440CF2907123E054D8F0E0441D7C
:100CB800F09071227407F07599057869E24448F25A
:070CC8007F017E00020D34E4
:1007B400E4906099F07869E24401F2786BE230E108
:1007C4001D7402F2AF93EF75F010A4FFE594C454C6
:1007D4000FFDEF4DFF906000E5F0F0A3EFF09060A7
:1007E40000E0FEA3E0FFA3E025E02403F582E43467
:1007F40060F583EEF0A3EFF0906002E004F0C394A0
:10080400104002E4F09060231204B800000000E4F9
:10081400906099F0906023E0F8A3E0F9A3E0FAA3D4
:10082400E0FB906099E025E02403F582E43460F570
:1008340083E0FEA3E0FFE4FCFDEB2FFFEA3EFEEDC8
:1008440039FDEC38FC9060231204AC906099E0040C
:10085400F0E0B410BF906023E0FCA3E0FDA3E0FE51
:10086400A3E0FF7804120499A3EEF0A3EFF07BFF5A
:100874007A0D797D906000E0FFA3E0906031CFF0C5
:10088400A3EFF012008C7BFF7A0D7983906027E050
:0E089400FFA3E0906031CFF0A3EFF002008CE4
:0809D7004560900102080A646A
:100B400043A820D2AF75D101906090E0FBE4FAF9A0
:100B5000F87F807EBBFDFC120407EF24FFFFEE341C
:100B6000FFFEED34FFFDEC34FFFC780812049978A9
:100B700095EFF2906090E0FBE4FAF9F87F807EBB9D
:100B8000FDFC120407EF24FFFF7894EFF2789174D4
:070B9000A0F21874E1F2224B
:03001E00020BEBE7
:100BEB00C0E0C0F0C083C082C0D075D000C000C0D0
:100BFB0001C002C003C004C005C006C0077891E263
:100C0B0030E707E24480F2120AC1D007D006D005C4
:100C1B00D004D003D002D001D000D0D0D082D0836A
:050C2B00D0F0D0E03222
:1009DF0045607C0102080A6450606C000001000150
:0B09EF00FF05740000050005FF0C3040
:100B9700E490609AF0F090609AE0FFC394025043AB
:100BA700EF75F008A4246CF582E43460F583E06007
:100BB7002A90609AE075F008A4246CF582E434600A
:100BC700F583E4F0EF75F008A42471F582E434604E
:100BD700F583A3E0FAA3E0F91204E990609AE00430
:030BE700F080B3E8
:010BEA0022E8
:100AC100E4FFEF75F008A4246DF582E43460F5834A
:100AD100E0FCA3E04C6061EF75F008A4246DF582A1
:100AE100E43460F58374FFF5F012039FEF75F008AD
:100AF100A4246DF582E43460F583E0FCA3E04C703E
:100B010037EF75F008A4246FF582E43460F583E0D3
:100B1100FCA3E0FDEF75F008A4246DF582E43460D8
:100B2100F583ECF0A3EDF0EF75F008A4246CF582E9
:0E0B3100E43460F5837401F00FEF6402708409
:010B3F002293
:1009FA004560650102080A64416064004260620061
:100A0A000041606B0041605D00426060000041602F
:100A1A0056FF41606A0042605E0000426057000073
:0A0A2A00426059000042605B0000CA
:1006C50078E2E254F3F2E24404F290718F740AF096
:1006D5007856E4F278277409F218745FF27833E4F7
:1006E500F218F27819E254FEF218E24401F2781198
:1006F500E24401F27817E24401F27812E24401F291
:100705007814E24401F278C3E254CFF2E24410F2E5
:100715009071847409F07857E4F278297409F21815
:10072500745FF27837E4F218F27819E254FDF218A2
:10073500E24402F27811E24402F27817E24402F24E
:100745007812E24402F27814E24402F278E2E254CA
:10075500CFF2E2F278C3E254F3F2E2F278F2E25435
:10076500F3F278F0E24402F278C3E254F3F2E244A1
:100775000CF278E2E254CFF2E24430F2907123E0D9
:1007850054D8F0E0441DF09071227407F075990576
:100795007869E24448F2759A12E24450F27F017E8C
:0F07A50000120D3478B6741FF208F278B5F22204
:100D5D00AC06EC7833F218EFF27817E24401F22288
:100D6D00AC06EC7837F218EFF27817E24402F22273
:100C3000A2B1E433FB906056E0FF6B6037EFF460E5
:100C400027EB60299060647401F0906062F0A374F7
:100C50002CF0E4FFFE120D5D120D6D90606B7401BF
:100C6000F0E490605DF08005E4906064F0AF039084
:040C70006056EBF0EF
:010C7400225D
:100CCF007869E24401F2786BE230E1167402F2AF18
:100CDF0093EF75F010A4FFAEF0E594C4540FFDEF41
:020CEF004DFFB7
:010CF10022E0
:100CF2007869E24402F2786BE230E2167404F2AFF1
:100D020095EF75F010A4FFAEF0E596C4540FFDEF19
:020D12004DFF93
:010D140022BC
:10057400D3906063E09400906062E09400400EA326
:10058400E024FFF0906062E034FFF0805890606BEC
:10059400E06052E4F0906064E0B401207FF87E07EC
:1005A400120D5DE4FFFE120D6DE490605BF0A3F0AC
:1005B400A304F0E4906060F0A3F08029906064E00C
:1005C400B40222E4FFFE120D5D7FF87E07120D6D6A
:1005D400E490605BF0A3F0A304F0E4906060F0A307
:1005E400F090606AF0120CCF906057EEF0A3EFF039
:1005F400120CF2A3EEF0A3EFF090605DE070030242
:1006040006B2D390605AE09479906059E094064021
:1006140036906061E004F07006906060E004F0D30E
:10062400906061E094C8906060E09400401990602C
:10063400647402F090606214F0A3742CF0E490608F
:100644005DF090606B04F0D3906058E09479906012
:1006540057E094064022906061E004F070069060D8
:1006640060E004F0D3906061E094C8906060E0942E
:10067400004005E4906064F0C390605CE094C49032
:10068400605BE09409500EA3E004F0700690605B98
:10069400E004F080199060647402F090606214F0D9
:1006A400A3742CF0E490605DF090606B04F09060B3
:1006B40064E0700C90605DF0FFFE120D5D120D6D34
:0106C4002213
:100A4100020D4CE493A3F8E493A34003F68001F272
:100A510008DFF48029E493A3F85407240CC8C333B6
:100A6100C4540F4420C8834004F456800146F6DF85
:100A7100E4800B010204081020408090097EE47E8E
:100A8100019360BCA3FF543F30E509541FFEE4937A
:100A9100A360010ECF54C025E060A840B8E493A341
:100AA100FAE493A3F8E493A3C8C582C8CAC583CA6C
:100AB100F0A3C8C582C8CAC583CADFE9DEE780BE24
:010A340000C1
:10038600BB010689828A83E0225002E722BBFE0275
:09039600E32289828A83E49322A8
:10039F00C5F0F8A3E028F0C5F0F8E58215827002E9
:0603AF001583E038F02286
:1003B500A3F8E0C5F025F0F0E582158270021583FB
:0603C500E0C838F0E82258
:1003CB0075F008758200EF2FFFEE33FECD33CDCCE9
:1003DB0033CCC58233C5829BED9AEC99E58298406C
:1003EB000CF582EE9BFEED9AFDEC99FC0FD5F0D649
:1003FB00E4CEFBE4CDFAE4CCF9A88222B800C1B973
:10040B000059BA002DEC8BF084CFCECDFCE5F0CBB0
:10041B00F97818EF2FFFEE33FEED33FDEC33FCEBE9
:10042B0033FB10D703994004EB99FB0FD8E5E4F9A4
:10043B00FA227818EF2FFFEE33FEED33FDEC33FC91
:10044B00C933C910D7059BE99A4007EC9BFCE99A85
:10045B00F90FD8E0E4C9FAE4CCFB2275F010EF2FCA
:10046B00FFEE33FEED33FDCC33CCC833C810D707CA
:10047B009BEC9AE899400AED9BFDEC9AFCE899F805
:0E048B000FD5F0DAE4CDFBE4CCFAE4C8F92298
:10049900E8600FECC313FCED13FDEE13FEEF13FF41
:0304A900D8F12265
:0C04AC00ECF0A3EDF0A3EEF0A3EFF022C3
:1004B800A8828583F0D083D0821204CF1204CF1291
:1004C80004CF1204CFE473E493A3C583C5F0C583B6
:1004D800C8C582C8F0A3C583C5F0C583C8C582C88E
:0104E80022F1
:0604E9008A838982E4739E
:10002100E5082431F582E43460F583E00508229087
:10003100602E300703906031E475F00112052E0245
:1000410003862000E97F2ED2008018EF540F249000
:10005100D43440D4FF30040BEF24BFB41A00500352
:100061002461FFE50960021509050CE50C70020524
:100071000B30070E90602EE475F00112052EEF0291
:10008100051C020D947403D2078003E4C207F5082E
:1000910090602E120545E4F509F50BF50CE50960B4
:1000A100077F2012006480F5750AFFC201C200C2F9
:1000B10002C203C205C206C208120030FF700D3031
:1000C10007057F00120075AF0CAE0B22B4255FC28D
:1000D100D5C204120030FF24D0B40A00501A75F0C2
:1000E1000A780930D50508B6FF0106C6A426F62010
:1000F100D5047002D20380D924CFB41A00EF500482
:10010100C2E5D204020276D20180C6D20080C0D2FA
:100111000280BCD2D580BAD20580B47F201200649F
:100121002002077401B5090040F1120021FF1200FD
:100131006402009ED208D2068095120021FB1200B3
:1001410021FA120021F94A4B700679477A037BFFA5
:1001510020022EE509602A7E008E8275830012043A
:10016100EF60060EEE650A70F0C2D5EBC0E0EAC0A2
:10017100E0E9C0E0EE1202BDD0E0F9D0E0FAD0E053
:10018100FB120386FF60AAEBC0E0EAC0E0E9C0E031
:10019100120064D0E02401F9D0E03400FAD0E0FB91
:1001A100E50A0460DCD50AD980877BFF7A0279B938
:1001B100D202809C791080027908C206C2088008A8
:1001C100D2D5790A8004790AC2D5E50A047002F50C
:1001D1000AE4FAFDFEFF120021FC7B082001131244
:1001E1000021FD7B1030000A120021FE120021FFC8
:1001F1007B20EC3382D592D55013C3E43000069FA7
:10020100FFE49EFEE42001039DFDE49CFCE4CBF8A9
:10021100C201EC700CCFCECDCCE824F8F870F3809D
:1002210017C3EF33FFEE33FEED33FDEC33FCEB335D
:10023100FB994002FB0FD8E9EB300105F8D0E0C48F
:1002410048B201C0E00AEC4D4E4F78207B0070C2ED
:10025100EAB50A0040BCC0E01202BFD0F0D0E020F5
:100261000104C4C0E0C4B201C0F012004DD0F0D509
:10027100F0EB02009E12054E013B5301B558010CF3
:100281004C01084201B94F01C14401C14901214357
:0802910001C75501AB4601ABAA
:100299004501AB4703675001102D01142E01372B7F
:1002A90001182301352003502A00D0480000012FEE
:1002B9003F3F3F00790AA2D5200314300509B91040
:1002C900020404B9080104A2D52006025001042041
:1002D90002689202B509005034C0E07F203003194A
:1002E9007F30A20272067205500F120316C202C2B3
:1002F90006C205C2087F30800F300503E9C0E0124D
:100309000064300503D0E0F9D0E0B509CC30051719
:100319007F30B9100C1200647F583004077F788051
:1003290003B908031200643002057F2D0200647FBF
:10033900202008F87F2B2006F322920280CF286E16
:10034900756C6C2900D2011200213001F8C20178C4
:100359000930D50108F60200D02D50434958120042
:10036900212403B405004001E4900362931200556F
:0D037900743A120055D2037509040201B553
:1004EF00BB010CE58229F582E5833AF583E02250C2
:1004FF0006E92582F8E622BBFE06E92582F8E2220C
:0D050F00E58229F582E5833AF583E4932225
:10051C00BB010689828A83F0225002F722BBFE01BE
:02052C00F322B8
:10052E00F8E0FBA3A3E0F925F0F0E5821582700256
:07053E001583E0FA38F022FA
:09054500EBF0A3EAF0A3E9F022B7
:10054E00D083D082F8E4937012740193700DA3A33C
:10055E0093F8740193F5828883E473740293686050
:06056E00EFA3A3A380DF50
:00000001FF
