:03000000020806ED
:0C080600787FE4F6D8FD75812002084DD3
:0C000300000000000000000000000000F1
:0B000F00EF1FAC0670011E4C70F622C3
:100BB100AB07AA06EB1BAE0270011A4E60097FAAB1
:080BC1007E0512000F80ED22F9
:1005F200907120E04480F07F057E0012000FE4FF3E
:10060200FE120BB175A75575AC589071327450F04B
:100612009071307403F0907136742FF07F18EF24CC
:1006220066FDE434718D82F583E4F00FEFB433EEAE
:10063200904011E4935407FF90711CE054F84FF07E
:10064200904017E493547FFF90711DE054804FF067
:10065200904010E493FF5401C43333335480FE902E
:100662007123E0547F4EF0EFC313543F4440FFA385
:10067200E054804FF0904012E493FF540FFE9071CB
:1006820046E054F04EF0EFC4540FFF90714FE05427
:10069200F04FF0904013E493543FFF907140E054C8
:1006A200C04FF0904014E493907126F0904015E40E
:0E06B20093907128F0904016E49390712AF016
:0106C0002217
:0806C10045604C0102080A64C7
:100B33001205F275D95590715EE054FEF075D9BB7C
:100B4300120B0A120301120A99120B981208FD756F
:070B5300D9AA120A0080F884
:1006C900426042000042604600004260440000422D
:1006D90060480000C102C100C103C10141604A0074
:0406E90041604B0021
:100A990078D2E24430F278C2E24403F278E2E244E6
:100AA9000CF278F2E24403F2907123E054D8F0E0BA
:100AB900441DF09071227407F043AA04D2AF786AFA
:100AC900E2447BF218E24458F27F017E00020BB146
:10002100EF14600D14600D14600D2403700BD202E7
:0A00310022D20022D20322D20122C3
:100B7E00EF14600D14600D14600D2403700BC2028F
:0A0B8E0022C20022C20322C201228B
:100B5A00E4FEEF14600E14600F1460102403701189
:100B6A00A202800AA2008006A2038002A201E43344
:030B7A00FEAF06C5
:010B7D002255
:100AD900E4FDFCC2AFEF14600F146011146013241D
:100AE900037017906042800D9060468008906044C2
:100AF9008003906048E0FCA3E0FDD2AFAE04AF05EF
:010B090022C9
:100BC900EF24FE600704700775990A22E4F599225B
:100BD900EF24FE6007047007759A1122759A18228E
:1007740090604AE06004E0B4040D7F01120BC9905C
:10078400604A7401F0803390604AE0B4010B7869E8
:10079400E24401F27402F0802190604AE0B4020A5B
:1007A4007F02120BC97403F0801090604AE0B40316
:1007B400097869E24401F27404F090604BE060044B
:1007C400E0B4040C7F01120BD990604B7401F02249
:1007D40090604BE0B4010A7869E24402F27402F0DA
:1007E4002290604BE0B402097F02120BD97403F02B
:1007F4002290604BE0B403097869E24402F2740485
:02080400F022E0
:030042000205159F
:10051500C0E0C0F0C083C082C0D075D000C000C0AC
:0305250005C00707
:10052800906057E4F0A3F0786BE230E153AF93EFBB
:1005380075F010A4FFE594C4540FFDEF4DFF9060D3
:1005480057E5F0F0A3EFF0E24402F290604AE0B41D
:100558000213906057E0FFA3E0906042CFF0A3EF52
:10056800F0E4FF801890604AE0B40414906057E00B
:10057800FFA3E0906046CFF0A3EFF07F01120021C7
:10058800786BE230E253AF95EF75F010A4FFE59673
:10059800C4540FFDEF4DFF906057E5F0F0A3EFF066
:1005A800E24404F290604BE0B40213906057E0FF1D
:1005B800A3E0906044CFF0A3EFF07F028018906032
:1005C8004BE0B40414906057E0FFA3E0906048CF7C
:0905D800F0A3EFF07F03120021F3
:1005E100D007D005D000D0D0D082D083D0F0D0E0D9
:0105F10032D7
:0806ED004560510102080A6496
:1008FD0043A820D2AF75D101906051E0FBE4FAF925
:10090D00F87F807EBBFDFC12046AEF24FFFFEE34FE
:10091D00FFFEED34FFFDEC34FFFC78081204FC788B
:10092D0095EFF2906051E0FBE4FAF9F87F807EBB21
:10093D00FDFC12046AEF24FFFF7894EFF2789174B6
:07094D00A0F21874E1F22290
:03001E00020A547F
:100A5400C0E0C0F0C083C082C0D075D000C000C068
:100A640001C002C003C004C005C006C0077891E2FB
:100A740030E707E24480F2120892D007D006D0058E
:100A8400D004D003D002D001D000D0D0D082D08303
:050A9400D0F0D0E032BB
:1006F500602860000000000001FF004500000000C8
:1007050001FF01A30000000005FF095400000000DF
:0C07150005FF09AA0000000001FF0774A6
:100A0000E4906056F0F0906056E0FFC394055043C8
:100A1000EF75F008A42400F582E43460F583E0600B
:100A20002A906056E075F008A42400F582E4346052
:100A3000F583E4F0EF75F008A42405F582E4346052
:100A4000F583A3E0FAA3E0F912050F906056E004E5
:030A5000F080B380
:010A53002280
:10089200E4FFEF75F008A42401F582E43460F583E7
:1008A200E475F001120418EF75F008A42403F58230
:1008B200E43460F583E0FCA3E0FDEF75F008A424C6
:1008C20001F582E43460F583E0FAA3E0C39DEA9C7B
:1008D2004023EF75F008A42401F582E43460F58327
:1008E200E4F0A3F0EF75F008A42400F582E434608C
:0A08F200F5837401F00FEFB40598D0
:0108FC0022D9
:1003010078D2E2543FF2E24440F2907189740AF0EB
:10031100E254F3F2E24404F29071877409F078E355
:10032100E2543FF2E24440F29071957408F078C2D1
:10033100E2543FF2E24440F29071817407F0785642
:10034100E4F278277409F218745FF27833E4F21852
:10035100F27819E254FEF218E24401F27811E24413
:1003610001F27817E24401F27812E24401F27814C2
:10037100E24401F27857E4F278297409F218745FC3
:10038100F27837E4F218F27819E254FDF218E244F7
:1003910002F27811E24402F27817E24402F2781292
:1003A100E24402F27814E24402F27858E4F2782B43
:1003B1007409F218745FF2783BE4F218F27819E2EA
:1003C10054FBF218E24404F27811E24404F2781783
:1003D100E24404F27812E24404F27814E24404F2B2
:1003E1007859E4F2782D7409F218745FF2783FE4D9
:1003F100F218F27819E254F7F218E24408F278118F
:10040100E24408F27817E24408F27812E24408F272
:070411007814E24408F22216
:100BE900AC06EC7833F218EFF27817E24401F222FE
:100BF900AC06EC7837F218EFF27817E24402F222E9
:100C0900AC06EC783BF218EFF27817E24404F222D2
:100C1900AC06EC783FF218EFF27817E24408F222BA
:08072100416059FF41605AFFDD
:100B980078D0E24440F278D3E254CFF278C0E2440D
:090BA80004F278C2E254CFF222FB
:10095400A296E433906056F0906059E0FF906056A0
:10096400E06F6041906059E0F4602D906056E06063
:100974002C9060387401F090603AF0A3742CF0E489
:10098400FFFE120BE9E4FFFE120BF99060407401C4
:10099400F0E490603EF08005E4906038F09060569A
:0509A400E0906059F035
:0109A900222B
:1009AA00A282E433906056F090605AE0FF9060565D
:1009BA00E06F604190605AE0F4602D906056E0600C
:1009CA002C9060397401F090603CF0A3742CF0E430
:1009DA00FFFE120C09E4FFFE120C1990604174012B
:1009EA00F0E490603FF08005E4906039F090605642
:0509FA00E090605AF0DE
:0109FF0022D5
:100B0A0078D3E254F3F2E24404F290718B7404F065
:100B1A00E254FCF2907175740DF075D60175D59F8B
:090B2A0075D21143AA20D2AF22BA
:10072900416038004160390042603A000042603C53
:100739000000416040004160410041603E0041606D
:100749003F00426028000042602A000042602C00FD
:100759000042602E0000426030000042603200001A
:0A07690042603400004260360000D8
:10004500D390603BE0940090603AE09400400EA3AA
:10005500E024FFF090603AE034FFF0804290604089
:10006500E0603CE4F0906038E0B4010C7FF87E0776
:10007500120BE9E4FFFE8011906038E0B40220E441
:10008500FFFE120BE97FF87E07120BF9E490602C56
:10009500F0A3F090603E04F0E490602EF0A3F0E44D
:1000A500FF120B5AEF6012E4FF120B7EE4FF120AF7
:1000B500D990602AEEF0A3EFF07F01120B5AEF60A2
:1000C500127F01120B7E7F01120AD9906028EEF093
:1000D500A3EFF090603EE0700302018DD390602B9A
:1000E500E0947990602AE09406403690602FE00411
:1000F500F0700690602EE004F0D390602FE094C875
:1001050090602EE0940040199060387402F0906081
:100115003A14F0A3742CF0E490603EF09060400433
:10012500F0D3906029E09479906028E0940640220D
:1001350090602FE004F0700690602EE004F0D390FC
:10014500602FE094C890602EE094004005E4906034
:1001550038F0C390602DE094C490602CE094095071
:100165000EA3E004F0702190602CE004F08019905B
:1001750060387402F090603A14F0A3742CF0E490A7
:10018500603EF090604004F0906038E0700F906041
:0D0195003EF0FFFE120BE9E4FFFE120BF935
:0101A200223A
:1001A300D390603DE0940090603CE09400400EA347
:1001B300E024FFF090603CE034FFF0804290604127
:1001C300E0603CE4F0906039E0B4010C7FF87E0716
:1001D300120C09E4FFFE8011906039E0B40220E4C0
:1001E300FFFE120C097FF87E07120C19E4906034AD
:1001F300F0A3F090603F04F0E4906036F0A3F07F4A
:1002030002120B5AEF60127F02120B7E7F02120A58
:10021300D9906032EEF0A3EFF07F03120B5AEF6038
:10022300127F03120B7E7F03120AD9906030EEF027
:10023300A3EFF090603FE070030202EBD3906033D2
:10024300E09479906032E094064036906037E004A1
:10025300F07006906036E004F0D3906037E094C805
:10026300906036E0940040199060397402F0906019
:100273003C14F0A3742CF0E490603FF090604104D0
:10028300F0D3906031E09479906030E0940640229E
:10029300906037E004F07006906036E004F0D3908D
:1002A3006037E094C8906036E094004005E49060C5
:1002B30039F0C3906035E094C4906034E094095001
:1002C3000EA3E004F07021906034E004F0801990F4
:1002D30060397402F090603C14F0A3742CF0E49045
:1002E300603FF090604104F0906039E0700F9060DF
:0D02F3003FF0FFFE120C09E4FFFE120C1993
:0103000022DA
:10081200020B33E493A3F8E493A34003F68001F2BE
:1008220008DFF48029E493A3F85407240CC8C333E7
:10083200C4540F4420C8834004F456800146F6DFB6
:10084200E4800B01020408102040809006C1E47E7F
:10085200019360BCA3FF543F30E509541FFEE493AB
:10086200A360010ECF54C025E060A840B8E493A372
:10087200FAE493A3F8E493A3C8C582C8CAC583CA9D
:10088200F0A3C8C582C8CAC583CADFE9DEE780BE55
:010773000085
:10041800C5F0F8A3E028F0C5F0F8E582158270026F
:060428001583E038F0220C
:10042E0075F008758200EF2FFFEE33FECD33CDCC85
:10043E0033CCC58233C5829BED9AEC99E582984008
:10044E000CF582EE9BFEED9AFDEC99FC0FD5F0D6E5
:10045E00E4CEFBE4CDFAE4CCF9A88222B800C1B90F
:10046E000059BA002DEC8BF084CFCECDFCE5F0CB4D
:10047E00F97818EF2FFFEE33FEED33FDEC33FCEB86
:10048E0033FB10D703994004EB99FB0FD8E5E4F941
:10049E00FA227818EF2FFFEE33FEED33FDEC33FC2E
:1004AE00C933C910D7059BE99A4007EC9BFCE99A22
:1004BE00F90FD8E0E4C9FAE4CCFB2275F010EF2F67
:1004CE00FFEE33FEED33FDCC33CCC833C810D70767
:1004DE009BEC9AE899400AED9BFDEC9AFCE899F8A2
:0E04EE000FD5F0DAE4CDFBE4CCFAE4C8F92235
:1004FC00E8600FECC313FCED13FDEE13FEEF13FFDE
:03050C00D8F12201
:06050F008A838982E47377
:00000001FF
